:04000000DFEF21F01D
:10100000000000803F000020410000C84200007A3C
:101010004400401C460050C3470024744980961881
:101020004B20BCBE4C286B6E4EF9021550EC78ADCF
:1010300060CAF249710000803FCDCCCC3D0AD72375
:101040003C6F12833A17B7D138ACC52737BD378606
:101050003595BFD63377CC2B325F708930FFE6DB16
:101060002E08E53C1E6042A20D010000000A0000AF
:101070000064000000E803000010270000A08601C3
:101080000040420F008096980000E1F50500CA9AE2
:101090003B252E326600546573740055693D004946
:1010A0003D00553D0020410020560000550E000136
:1010B0009A6F000E9B6F16EF0DF0250EAE19D8B487
:1010C00064EF08F066EF08F070EF08F051C0D9FF48
:1010D00052C0DAFFAEC0DFFF514A522A16EF0DF0C0
:1010E000000E9D6F000E9C6F53C0F6FF54C0F7FFBB
:1010F0000800F5502E0AD8A480EF08F082EF08F01F
:10110000BCEF08F09D8D534A542A000EA96F000EC3
:10111000A86FA9EF08F0A8C001F0A9C002F0000E66
:10112000046E0A0E036EADEC21F053C0F6FF54C0FE
:10113000F7FF0800F5500126000E0222D00E012410
:101140000001A86FFF0E0220A96F534A542AA9EF8D
:1011500008F053C0F6FF54C0F7FF0800F55079ECD3
:1011600021F0D8B0B6EF08F0B8EF08F08BEF08F038
:10117000CFEF08F0CFEF08F0000E0001A96F000ECE
:10118000A86F9D89CFEF08F0CFEF08F02BEF0DF09F
:101190009D85E4EF08F016EF0DF0E4EF08F053C082
:1011A000F6FF54C0F7FF534A542A0800F5CFAEF0BB
:1011B0000001AE51000AD8B42BEF0DF0660AD8B486
:1011C000C8EF08F016EF0DF0070E9D15D8B4EBEF41
:1011D00008F0EDEF08F0B6EF0CF09DA9F2EF08F083
:1011E000F4EF08F0FAEF08F0000EA96F060EA86FF2
:1011F000FAEF08F09AC0D9FF9BC0DAFFDECFAAF061
:10120000DECFABF0DECFACF0DECFADF0040E9A2730
:10121000000E9B23ADBF11EF09F00FEF09F028EF8F
:1012200009F0AAC001F0ABC002F0ACC003F0ADC041
:1012300004F059EC21F001C0AAF002C0ABF003C0E9
:10124000ACF004C0ADF0030E00019C1328EF09F0D0
:10125000000EA36F000EA26FAA51AB11AC11AD111D
:10126000D8B435EF09F037EF09F0D1EF09F0AC351C
:10127000AD35820FA26FA36BFF0EA323A207D8A0E8
:10128000A307A2C001F0A3C002F0000E046E030E7B
:10129000036EADEC21F001C0A2F002C0A3F0A2C029
:1012A00007F0A3C008F0000E0A6E0A0E096E0AECE1
:1012B0001EF007C0A2F008C0A3F00001A3BF65EFB5
:1012C00009F063EF09F06AEF09F0A207D8A0A307BD
:1012D0006AEF09F0A2510008F7EC0FF028C0A4F063
:1012E00029C0A5F02AC0A6F02BC0A7F0A4C00FF01B
:1012F000A5C010F0A6C011F0A7C012F0AAC013F04C
:10130000ABC014F0ACC015F0ADC016F045EC12F057
:101310000FC0A4F010C0A5F011C0A6F012C0A7F035
:10132000A4C001F0A5C002F0A6C003F0A7C004F05D
:10133000000E056E000E066E800E076E3F0E086EE4
:1013400085EC1AF0D8B0A7EF09F0A9EF09F0AFEFDC
:1013500009F00001A207D8A0A307D1EF09F0A4C0AB
:1013600001F0A5C002F0A6C003F0A7C004F0000E73
:10137000056E000E066E200E076E410E086E85EC9F
:101380001AF0D8A0C6EF09F0C8EF09F0D1EF09F0C4
:101390000001A24BA32BD1EF09F0D1EF09F0D1EF5F
:1013A00009F00001A9BFE0EF09F0A95107E10D0E16
:1013B000A85DD8B0DEEF09F0E0EF09F0FFEF09F02B
:1013C000AAC035F0ABC036F0ACC037F0ADC038F0D5
:1013D000A8518AEC16F028C039F029C03AF02AC08A
:1013E0003BF02BC03CF034EC0DF035C0AAF036C019
:1013F000ABF037C0ACF038C0ADF0FFEF09F0000142
:10140000A3BF0EEF0AF0A35107E10A0EA25DD8B008
:101410000CEF0AF00EEF0AF03FEF0AF0AA51AB1101
:10142000AC11AD11D8B417EF0AF019EF0AF0B4EF10
:101430000AF0AAC031F0ABC032F0ACC033F0ADC09E
:1014400034F039EC1BF03150321033103410D8A482
:101450002CEF0AF02EEF0AF0B4EF0AF00001A3BF60
:101460003BEF0AF0A35109E1020EA25DD8A03BEFC9
:101470000AF03DEF0AF0B4EF0AF03FEF0AF0A4C023
:1014800001F0A5C002F0A6C003F0A7C004F05F0EF3
:10149000056E700E066E890E076E400E086E85ECA6
:1014A0001AF0D8B056EF0AF058EF0AF05FEF0AF0E2
:1014B0000001F70EA227FF0EA32366EF0AF000013A
:1014C000F80EA227FF0EA32366EF0AF0A251F7EC55
:1014D0000FF028C0A4F029C0A5F02AC0A6F02BC0A8
:1014E000A7F0AAC001F0ABC002F0ACC003F0ADC0E1
:1014F00004F0A4C005F0A5C006F0A6C007F0A7C080
:1015000008F0AFEC19F001C09EF002C09FF003C0DC
:10151000A0F004C0A1F0A9EF0AF0AAC001F0ABC08E
:1015200002F0ACC003F0ADC004F0A4C005F0A5C04B
:1015300006F0A6C007F0A7C008F0D8EC18F001C06C
:101540009EF002C09FF003C0A0F004C0A1F0A9EF7C
:101550000AF0000E0001AA6F000EAB6F000EAC6F18
:10156000000EAD6FF2EF0AF0AAC031F0ABC032F05E
:10157000ACC033F0ADC034F039EC1BF031C09EF09C
:1015800032C09FF033C0A0F034C0A1F0AAC049F02F
:10159000ABC04AF0ACC04BF0ADC04CF09EC001F007
:1015A0009FC002F0A0C003F0A1C004F0000EE5EC63
:1015B00017F001C04DF002C04EF003C04FF004C060
:1015C00050F034EC21F049C0AAF04AC0ABF04BC057
:1015D000ACF04CC0ADF0000E0001A36F000EA26F86
:1015E000F2EF0AF0010EAE6F0A0EAE19D8A4FBEFAF
:1015F0000AF0FDEF0AF001EF0BF02CEF0BF02CEFEF
:101600000BF0AE51040D690EF324F66E100EF420AB
:10161000F76E0900F5509E5D0900F5509F590900CD
:10162000F550A0590900F550A159D8B01AEF0BF0A8
:101630001CEF0BF020EF0BF02CEF0BF02CEF0BF06E
:10164000AE2B0A0EAE19D8A428EF0BF02AEF0BF040
:1016500001EF0BF02CEF0BF0030E9C15596E000EF2
:101660009D155A6E59505A10D8B439EF0BF03BEF14
:101670000BF093EF0BF051C0D9FF52C0DAFF2D0EE3
:10168000DF6E514A522A93EF0BF093EF0BF09EC09E
:1016900001F09FC002F0A0C003F0A1C004F0AE5161
:1016A000040D690EF324F66E100EF420F76E090097
:1016B000F5CF05F00900F5CF06F00900F5CF07F0EA
:1016C0000A00F5CF08F0ECEC1EF001C0A4F002C057
:1016D000A5F003C0A6F004C0A7F0A4C001F0A5C007
:1016E00002F0A6C003F0A7C004F00A0E056E000EBB
:1016F000066E000E076E000E086E48EC1FF001C06B
:10170000A4F002C0A5F003C0A6F004C0A7F0000139
:10171000A451300F51C0D9FF52C0DAFFDF6E514AD9
:10172000522A93EF0BF0AE07AE29D8A49AEF0BF034
:101730009CEF0BF047EF0BF0ADEF0BF0ADEF0BF0C4
:1017400051C0D9FF52C0DAFF300EDF6E514A522A23
:10175000A207D8A0A307ADEF0BF0A3BFBAEF0BF021
:10176000A35106E1A205D8B0B8EF0BF0BAEF0BF029
:10177000A0EF0BF0BCEF0BF0A9BFC8EF0BF0A95125
:1017800009E1090EA85DD8A0C8EF0BF0CAEF0BF075
:10179000CEEF0BF0080EAE6FD2EF0BF0A8C0AEF09C
:1017A000D2EF0BF0AE51A85F000EAEBFFF0EA95BEB
:1017B000AE51D8B4DEEF0BF0E0EF0BF0EAEF0BF038
:1017C00051C0D9FF52C0DAFF2E0EDF6E514A522AA5
:1017D000EAEF0BF0AE51F7EC0FF028C096F029C0FD
:1017E00097F02AC098F02BC099F0AAC013F0ABC0B4
:1017F00014F0ACC015F0ADC016F096C00FF097C055
:1018000010F098C011F099C012F045EC12F00FC022
:1018100031F010C032F011C033F012C034F039ECA6
:101820001BF031C09EF032C09FF033C0A0F034C036
:10183000A1F08EEF0CF09EC001F09FC002F0A0C09E
:1018400003F0A1C004F00001AE51040D690EF324B1
:10185000F66E100EF420F76E0900F5CF05F00900C2
:10186000F5CF06F00900F5CF07F00A00F5CF08F034
:10187000ECEC1EF001C0A4F002C0A5F003C0A6F07D
:1018800004C0A7F0A4C001F0A5C002F0A6C003F0F8
:10189000A7C004F00A0E056E000E066E000E076E5D
:1018A000000E086E48EC1FF001C0A4F002C0A5F0C5
:1018B00003C0A6F004C0A7F00001A451300F51C02E
:1018C000D9FF52C0DAFFDF6E514A522A9EC001F0A2
:1018D0009FC002F0A0C003F0A1C004F0AE51040DFF
:1018E000690EF324F66E100EF420F76E0900F5CFA2
:1018F00005F00900F5CF06F00900F5CF07F00A0062
:10190000F5CF08F048EC1FF001C09EF002C09FF038
:1019100003C0A0F004C0A1F08EEF0CF00001AE07F0
:10192000AE29D8A496EF0CF098EF0CF01BEF0CF05A
:10193000A9EF0CF0A9EF0CF051C0D9FF52C0DAFFAB
:10194000300EDF6E514A522AA807D8A0A907A9EF86
:101950000CF0A851A911D8A4B0EF0CF0B2EF0CF024
:101960009CEF0CF016EF0DF016EF0DF0A851A91139
:10197000D8A4BDEF0CF0BFEF0CF0CEEF0CF09E51F1
:101980009F11A011A111D8A4C8EF0CF0CAEF0CF060
:10199000CEEF0CF0A84BA92BCEEF0CF0800EAEBF13
:1019A0007F0E596EA851AE5DA951800A5958D8B022
:1019B000DCEF0CF0DEEF0CF0E2EF0CF0A8C0AEF0C4
:1019C000FBEF0CF0A951800A596EAE51A85D800E54
:1019D000AEBF7F0E5958D8B0F0EF0CF0F2EF0CF01C
:1019E000FBEF0CF0AE51A86FA96BA8BFA907FBEFE6
:1019F0000CF0FBEF0CF0030E9C15596E000E9D15BC
:101A00005A6E59505A10D8B408EF0DF00AEF0DF085
:101A100016EF0DF051C0D9FF52C0DAFF2D0EDF6E68
:101A2000514A522A16EF0DF016EF0DF053C0F6FF93
:101A300054C0F7FF534A542A0800F5CFAEF0AE5118
:101A4000D8A425EF0DF027EF0DF05DEF08F02BEF98
:101A50000DF02BEF0DF051C0D9FF52C0DAFF000E90
:101A6000DF6E33EF0DF012003850800B456E3850AA
:101A70003824476E37AE3FEF0DF041EF0DF044EFE5
:101A80000DF0478044EF0DF04750D8B44AEF0DF009
:101A90004CEF0DF063EF0DF04728D8A452EF0DF096
:101AA00054EF0DF05EEF0DF0000E356E000E366E49
:101AB000000E376E000E386E5EEF0DF0378E000EA2
:101AC000386E6DEF0DF0000E356E000E366E000EA6
:101AD000376E000E386E6DEF0DF03C50800B466E89
:101AE00045504618D8B477EF0DF079EF0DF07CEF44
:101AF0000DF0458C7CEF0DF03C503C24466E3BAE27
:101B000084EF0DF086EF0DF089EF0DF0468089EF40
:101B10000DF04650D8B48FEF0DF091EF0DF0A8EF17
:101B20000DF04628D8A497EF0DF099EF0DF0A3EF34
:101B30000DF0000E396E000E3A6E000E3B6E000E78
:101B40003C6EA3EF0DF03B8E000E3C6EB2EF0DF03D
:101B5000000E396E000E3A6E000E3B6E000E3C6EAB
:101B6000B2EF0DF04750465CD8B0B9EF0DF0BBEFC7
:101B70000DF0E6EF0DF045ACC0EF0DF0C2EF0DF04B
:101B8000C6EF0DF0800E451AC6EF0DF047C048F0C5
:101B900046C047F048C046F035C048F039C035F07F
:101BA00048C039F036C048F03AC036F048C03AF084
:101BB00037C048F03BC037F048C03BF038C048F071
:101BC0003CC038F048C03CF0E6EF0DF0000E486E27
:101BD00047503D6E3E6A3D1E3E1E3D4A3E2A4650DF
:101BE0003F6E406A3D503F263E50402240BE02EFCD
:101BF0000EF0405009E11A0E3F5CD8A002EF0EF043
:101C000004EF0EF041EF0EF035503610371038105B
:101C1000D8A40DEF0EF010EF0EF0010E11EF0EF044
:101C2000000E486E000E356E000E366E000E376EDA
:101C3000000E386E46C047F04CEF0EF041EF0EF04C
:101C400048A025EF0EF027EF0EF02DEF0EF0D89004
:101C500048300109486E31EF0EF0D890483231EF2C
:101C60000EF035A036EF0EF038EF0EF03BEF0EF031
:101C7000488E3BEF0EF03834383237323632353258
:101C8000472A4650475CD8A048EF0EF04AEF0EF0C6
:101C900020EF0EF04CEF0EF045BC51EF0EF053EF7D
:101CA0000EF09CEF0EF04750D8A459EF0EF05BEF0A
:101CB0000EF067EF0EF0000E356E000E366E000E61
:101CC000376E000E386EF6EF0FF0F6EF0FF039506A
:101CD00035263A5036223B5037223C50382238A025
:101CE00074EF0EF076EF0EF04CEF0FF048A07BEFA4
:101CF0000EF07DEF0EF084EF0EF0D8904832485091
:101D00000109486E88EF0EF0D890483288EF0EF047
:101D100035A08DEF0EF08FEF0EF092EF0EF0488EA3
:101D200092EF0EF038343832373236323532472AB5
:101D30004CEF0FF04CEF0FF03950355C3A503658FD
:101D40003B5037583850800A3D6E3C50800A3D5811
:101D5000D8B0ADEF0EF0AFEF0EF0EDEF0EF035C0F6
:101D60003DF036C03EF037C03FF038C040F03D1E79
:101D70003E1E3F1E401E3D2A000E3E223F224022B4
:101D800039503D24416E3A503E20426E3B503F2038
:101D9000436E3C504020446EFF0E4124356EFF0ED2
:101DA0004220366EFF0E4320376EFF0E4420386E01
:101DB000800E451A486C4850D8A4E1EF0EF0E3EFCE
:101DC0000EF0F5EF0EF0010E3526000E362237220A
:101DD0003822F5EF0EF0F5EF0EF03950355E3A503F
:101DE000365A3B50375A3C50385A35503610371017
:101DF0003810D8A4FEEF0EF000EF0FF041EF0FF017
:101E00004850D8A406EF0FF008EF0FF041EF0FF0A5
:101E1000000E356E000E366E000E376E000E386EF8
:101E2000F6EF0FF0F6EF0FF041EF0FF0D8903536E8
:101E300036363736383648AE20EF0FF022EF0FF047
:101E400025EF0FF0358025EF0FF048A02AEF0FF0B7
:101E50002CEF0FF030EF0FF0D880483634EF0FF052
:101E6000D890483634EF0FF04750D8B43AEF0FF01F
:101E70003CEF0FF041EF0FF0470641EF0FF041EF5D
:101E80000FF037AE46EF0FF048EF0FF016EF0FF000
:101E90004CEF0FF04CEF0FF0000E466E48AE53EFD4
:101EA0000FF055EF0FF071EF0FF048C03DF07F0ECF
:101EB0003D16D8B45EEF0FF060EF0FF064EF0FF057
:101EC000010E466E71EF0FF035A069EF0FF06BEF6A
:101ED0000FF071EF0FF0010E466E71EF0FF071EF22
:101EE0000FF04650D8B477EF0FF079EF0FF0AAEF6C
:101EF0000FF0010E3526000E36223722382238A088
:101F000084EF0FF086EF0FF0AAEF0FF035C03DF031
:101F100036C03EF037C03FF038C040F04034403269
:101F20003F323E323D323DC035F03EC036F03FC01C
:101F300037F040C038F04728D8B4A1EF0FF0A3EF36
:101F40000FF0AAEF0FF0472AAAEF0FF0AAEF0FF059
:101F5000AAEF0FF04728D8B4B0EF0FF0B2EF0FF0B0
:101F6000BCEF0FF04750D8A4B8EF0FF0BAEF0FF066
:101F7000D2EF0FF0BCEF0FF0000E356E000E366E94
:101F8000000E376E000E386E4750D8A4CAEF0FF01F
:101F9000CCEF0FF0D2EF0FF0000E456ED2EF0FF046
:101FA000D2EF0FF047A0D7EF0FF0D9EF0FF0DCEF33
:101FB0000FF0378EDFEF0FF0379EDFEF0FF0D89086
:101FC0004730386E45AEE7EF0FF0E9EF0FF0ECEF7A
:101FD0000FF0388EECEF0FF035C035F036C036F02C
:101FE00037C037F038C038F0F6EF0FF01200306E1F
:101FF00030BEFFEF0FF0FDEF0FF023EF11F0306C6C
:102000003050800A120FD8A008EF10F00AEF10F03D
:10201000A7EF10F0000E0A6E0A0E096E000E046E95
:10202000640E036E3050016E026A01BE020680EC3F
:102030001EF001C007F002C008F00AEC1EF0D890B4
:1020400007360836D89007360836240E0726000EC5
:102050000822350E0724F66E100E0820F76E0900D0
:10206000F5CF13F00900F5CF14F00900F5CF15F006
:102070000A00F5CF16F0000E0A6E640E096E30509D
:10208000076E086A07BE08060AEC1EF0D8900736ED
:102090000836D89007360836480E0726000E082264
:1020A000350E0724F66E100E0820F76E0900F5CFE6
:1020B0000FF00900F5CF10F00900F5CF11F00A007C
:1020C000F5CF12F045EC12F00FC02CF010C02DF03F
:1020D00011C02EF012C02FF02CC00FF02DC010F048
:1020E0002EC011F02FC012F0000E046E0A0E036E07
:1020F0003050016E026A01BE020680EC1EF0D890DC
:1021000001360236D89001360236350E0124F66EBD
:10211000100E0220F76E0900F5CF13F00900F5CF7D
:1021200014F00900F5CF15F00A00F5CF16F045ECD4
:1021300012F00FC028F010C029F011C02AF012C010
:102140002BF044EF12F044EF12F00BEF11F030508F
:10215000800A750FD8A0AFEF10F0B1EF10F00BEFC1
:1021600011F0000E0A6E0A0E096E3050076E086AF2
:1021700007BE08060AEC1EF0D89007360836D8903D
:1021800007360836240E0726000E0822350E0724CF
:10219000F66E100E0820F76E0900F5CF0FF009005B
:1021A000F5CF10F00900F5CF11F00A00F5CF12F0CD
:1021B000000E046E0A0E036E3050016E026A01BEFC
:1021C000020680EC1EF0D89001360236D890013617
:1021D0000236350E0124F66E100E0220F76E09004D
:1021E000F5CF13F00900F5CF14F00900F5CF15F085
:1021F0000A00F5CF16F045EC12F00FC028F010C021
:1022000029F011C02AF012C02BF044EF12F044EF75
:1022100012F00BEF11F03050040D350EF324F66E72
:10222000100EF420F76E0900F5CF28F00900F5CF65
:1022300029F00900F5CF2AF00A00F5CF2BF044EF82
:1022400012F044EF12F03050800A120FD8A02BEF9A
:1022500011F02DEF11F0CAEF11F0000E0A6E0A0E08
:10226000096E000E046E640E036E3050016E026A39
:1022700001BE020680EC1EF001C007F002C008F0AB
:102280000AEC1EF0D89007360836D8900736083684
:10229000240E0726000E0822010E0724F66E100EEB
:1022A0000820F76E0900F5CF13F00900F5CF14F000
:1022B0000900F5CF15F00A00F5CF16F0000E0A6EF2
:1022C000640E096E3050076E086A07BE08060AECF5
:1022D0001EF0D89007360836D89007360836480ED4
:1022E0000726000E0822010E0724F66E100E0820A5
:1022F000F76E0900F5CF0FF00900F5CF10F00900D7
:10230000F5CF11F00A00F5CF12F045EC12F00FC036
:102310002CF010C02DF011C02EF012C02FF02CC0E8
:102320000FF02DC010F02EC011F02FC012F0000ED3
:10233000046E0A0E036E3050016E026A01BE020680
:1023400080EC1EF0D89001360236D8900136023665
:10235000010E0124F66E100E0220F76E0900F5CF73
:1023600013F00900F5CF14F00900F5CF15F00A00BD
:10237000F5CF16F045EC12F00FC028F010C029F090
:1023800011C02AF012C02BF044EF12F044EF12F00B
:102390002EEF12F03050800A750FD8A0D2EF11F056
:1023A000D4EF11F02EEF12F0000E0A6E0A0E096E35
:1023B0003050076E086A07BE08060AEC1EF0D89077
:1023C00007360836D89007360836240E0726000E42
:1023D0000822010E0724F66E100E0820F76E090081
:1023E000F5CF0FF00900F5CF10F00900F5CF11F08F
:1023F0000A00F5CF12F0000E046E0A0E036E305084
:10240000016E026A01BE020680EC1EF0D890013611
:102410000236D89001360236010E0124F66E100EF7
:102420000220F76E0900F5CF13F00900F5CF14F084
:102430000900F5CF15F00A00F5CF16F045EC12F0C3
:102440000FC028F010C029F011C02AF012C02BF0E4
:1024500044EF12F044EF12F02EEF12F03050040D62
:10246000010EF324F66E100EF420F76E0900F5CF7E
:1024700028F00900F5CF29F00900F5CF2AF00A006D
:10248000F5CF2BF044EF12F012001250800B1B6EB0
:1024900012501224216E11AE50EF12F052EF12F0D2
:1024A00055EF12F0218055EF12F02150D8B45BEFB8
:1024B00012F05DEF12F072EF12F02128D8A463EF52
:1024C00012F065EF12F06FEF12F0000E0F6E000EBB
:1024D000106E000E116E000E126E6FEF12F0118E64
:1024E0007CEF12F0000E0F6E000E106E000E116EDB
:1024F000000E126E7CEF12F01650800B1B1A165055
:102500001624206E15AE87EF12F089EF12F08CEFD3
:1025100012F020808CEF12F02050D8B492EF12F01D
:1025200094EF12F0A9EF12F02028D8A49AEF12F03D
:102530009CEF12F0A6EF12F0000E136E000E146E58
:10254000000E156E000E166EA6EF12F0158EB1EF8E
:1025500012F0000E136E000E146E000E156E000EBB
:10256000166E2050D8B4B7EF12F0B9EF12F0C3EFE7
:1025700012F02150D8A4BFEF12F0C1EF12F0CFEF4C
:1025800012F0C3EF12F0000E0F6E000E106E000E70
:10259000116E000E126E7BEF14F07BEF14F01550ED
:1025A0000F02F3CF26F0F4CF27F026501C6E1D6AE1
:1025B0001E6A1F6A2750226E236A246A256A1450F5
:1025C0001002F3CF26F0F4CF27F026501C26000E81
:1025D0001D221E221F2227502226000E23222422E3
:1025E000252213501102F3CF26F0F4CF27F0265006
:1025F0001C26000E1D221E221F2227502226000EFE
:102600002322242225221EC01FF01DC01EF01CC044
:102610001DF01C6A13501002F3CF26F0F4CF27F000
:1026200026501C2627501D22000E1E22000E1F229F
:1026300014500F02F3CF26F0F4CF27F026501C26BB
:1026400027501D22000E1E22000E1F221EC01FF04A
:102650001DC01EF01CC01DF01C6A13500F02F3CFEA
:1026600026F0F4CF27F026501C2627501D22000EFE
:102670001E22000E1F2215501002F3CF26F0F4CFB9
:1026800027F02650222627502322000E2422000E57
:10269000252214501102F3CF26F0F4CF27F0265054
:1026A000222627502322000E2422000E2522155018
:1026B0001102F3CF26F0F4CF27F02650176E2750E3
:1026C000186E196A1A6A19C01AF018C019F017C0E2
:1026D00018F0176A17502226185023221950242266
:1026E0001A5025221CC017F01DC018F01EC019F08A
:1026F0001FC01AF0190E82EF13F0D8901A32193257
:1027000018321732E82E7DEF13F01750222618509A
:102710002322195024221A5025221EC01FF01DC04A
:102720001EF01CC01DF01C6A205021C017F0186A52
:102730001726000E1822820E1724266EFF0E182070
:10274000276EBAEF13F0D89022362336243625367A
:102750001FAEADEF13F0AFEF13F0B0EF13F0228028
:10276000D8901C361D361E361F362606D8A02706E2
:10277000BAEF13F024AEBFEF13F0C1EF13F0A3EFE5
:1027800013F0C3EF13F0000E206E1FAECAEF13F06C
:10279000CCEF13F0F4EF13F0FF0E1C14176EFF0EC6
:1027A0001D14186EFF0E1E14196E7F0E1F141A6E64
:1027B0001750181019101A10D8B4E1EF13F0E3EF06
:1027C00013F0E7EF13F0010E206EF4EF13F022A0E8
:1027D000ECEF13F0EEEF13F0F4EF13F0010E206EB8
:1027E000F4EF13F0F4EF13F02050D8B4FAEF13F035
:1027F000FCEF13F024EF14F0010E2226000E23222A
:102800002422252225A007EF14F009EF14F024EF6D
:1028100014F022C017F023C018F024C019F025C00E
:102820001AF01A341A3219321832173217C022F03D
:1028300018C023F019C024F01AC025F0264A272A10
:1028400024EF14F024EF14F027BE2FEF14F02750DC
:1028500008E12628D8A02FEF14F031EF14F03BEF59
:1028600014F0000E226E000E236E800E246E7F0E7A
:10287000256E6FEF14F027BE48EF14F0275006E1E5
:102880002604D8B046EF14F048EF14F054EF14F0DB
:10289000000E226E000E236E000E246E000E256EBA
:1028A000000E1B6E6FEF14F026C021F0FF0E2216F3
:1028B000FF0E23167F0E2416000E251621A063EFAF
:1028C00014F065EF14F068EF14F0248E68EF14F044
:1028D000D8902130256E6FEF14F06FEF14F01B507D
:1028E000251222C00FF023C010F024C011F025C023
:1028F00012F07BEF14F012000450800B0D6E0450A8
:102900000424186E03AE87EF14F089EF14F08CEFF7
:1029100014F018808CEF14F01850D8B492EF14F023
:1029200094EF14F0ABEF14F01828D8A49AEF14F039
:102930009CEF14F0A6EF14F0000E016E000E026E74
:10294000000E036E000E046EA6EF14F0038E000E50
:10295000046EB5EF14F0000E016E000E026E000E54
:10296000036E000E046EB5EF14F00850800B0D1AC4
:1029700008500824196E07AEC0EF14F0C2EF14F02F
:10298000C5EF14F01980C5EF14F01950D8B4CBEF8F
:1029900014F0CDEF14F0E4EF14F01928D8A4D3EF1D
:1029A00014F0D5EF14F0DFEF14F0000E056E000EFA
:1029B000066E000E076E000E086EDFEF14F0078E35
:1029C000000E086EEEEF14F0000E056E000E066E9F
:1029D000000E076E000E086EEEEF14F005500610A4
:1029E00007100810D8A4F7EF14F0F9EF14F011EF66
:1029F00015F0000E016E000E026E000E036E000E4A
:102A0000046E800E03127F0E041201C001F002C09A
:102A100002F003C003F004C004F089EF16F089EF60
:102A200016F01850D8A417EF15F019EF15F02DEF88
:102A300015F0000E016E000E026E000E036E000E09
:102A4000046E01C001F002C002F003C003F004C034
:102A500004F089EF16F089EF16F01950096E0A6A32
:102A6000091E0A1E094A0A2A18500B6E0C6A0950E0
:102A70000B260A500C227F0E0B24126E000E0C2027
:102A8000136E01C00EF002C00FF003C010F004C0BE
:102A900011F0000E016E000E026E000E036E000EAD
:102AA000046E000E146E000E156E000E166E000EF3
:102AB000176E000E196E99EF15F01950D8B463EF28
:102AC00015F065EF15F07EEF15F0D8900E360F3645
:102AD00010361136D890013602360336043617AE5A
:102AE00074EF15F076EF15F077EF15F00180D890C0
:102AF00014361536163617367EEF15F005500E5C77
:102B000006500F580750105808501158D8A08BEF96
:102B100015F08DEF15F098EF15F0178C05500E5E3F
:102B200006500F5A0750105A0850115A98EF15F0D6
:102B3000192A190E19649FEF15F0A1EF15F05DEF3A
:102B400015F0A3EF15F00E500F1010101110D8B49F
:102B5000ACEF15F0AEEF15F0CAEF15F01480CAEF28
:102B600015F0CAEF15F0D890013602360336043658
:102B700017AEBDEF15F0BFEF15F0C0EF15F00180F7
:102B8000D89014361536163617361206D8A0130606
:102B9000CAEF15F003AECFEF15F0D1EF15F0B3EF9C
:102BA00015F0D3EF15F0000E196E17AEDAEF15F031
:102BB000DCEF15F004EF16F0FF0E1414096EFF0E93
:102BC00015140A6EFF0E16140B6E7F0E17140C6E82
:102BD00009500A100B100C10D8B4F1EF15F0F3EFF8
:102BE00015F0F7EF15F0010E196E04EF16F001A0C5
:102BF000FCEF15F0FEEF15F004EF16F0010E196E64
:102C000004EF16F004EF16F01950D8B40AEF16F0DE
:102C10000CEF16F034EF16F0010E0126000E022222
:102C20000322042204A017EF16F019EF16F034EF78
:102C300016F001C009F002C00AF003C00BF004C096
:102C40000CF00C340C320B320A32093209C001F09C
:102C50000AC002F00BC003F00CC004F0124A132AA1
:102C600034EF16F034EF16F013BE3FEF16F01350AA
:102C700008E11228D8A03FEF16F041EF16F04EEF12
:102C800016F0000E136E1268000E016E000E026E3A
:102C9000000E036E000E046E4EEF16F013BE5BEFD7
:102CA00016F0135006E11204D8B059EF16F05BEF9E
:102CB00016F06BEF16F0000E136E000E126E000E83
:102CC000016E000E026E000E036E000E046E000E0A
:102CD0000D6E6BEF16F012C018F018A072EF16F020
:102CE00074EF16F077EF16F0038E7AEF16F0039E6E
:102CF0007AEF16F0D8901830046E0D50041201C00F
:102D000001F002C002F003C003F004C004F089EF38
:102D100016F01200346E6D0E346491EF16F093EFDE
:102D200016F044EF17F0000E0A6E0A0E096E000E40
:102D3000046E640E036E34C001F0026A80EC1EF073
:102D400001C007F002C008F00AEC1EF0D890073668
:102D50000836D89007360836240E0726000E0822BB
:102D6000350E0724F66E100E0820F76E0900F5CF19
:102D700013F00900F5CF14F00900F5CF15F00A00A3
:102D8000F5CF16F0000E0A6E640E096E34C007F01F
:102D9000086A0AEC1EF0D89007360836D890073635
:102DA0000836480E0726000E0822350E0724F66E58
:102DB000100E0820F76E0900F5CF0FF00900F5CFCF
:102DC00010F00900F5CF11F00A00F5CF12F045EC34
:102DD00012F00FC030F010C031F011C032F012C04C
:102DE00033F0000E046E0A0E036E34C001F0026A66
:102DF00080EC1EF0D89001360236D89001360236AB
:102E0000350E0124F66E100E0220F76E0900F5CF84
:102E100013F00900F5CF14F00900F5CF15F00A0002
:102E2000F5CF16F030C00FF031C010F032C011F005
:102E300033C012F045EC12F00FC02CF010C02DF092
:102E400011C02EF012C02FF02CC00FF02DC010F0CA
:102E50002EC011F02FC012F0000E136E000E146E73
:102E6000000E156E3F0E166E45EC12F00FC028F0E6
:102E700010C029F011C02AF012C02BF0E4EF17F0B7
:102E8000E4EF17F0BCEF17F00A0E34644AEF17F0C6
:102E90004CEF17F0BCEF17F0000E046E0A0E036E35
:102EA00034C001F0026A80EC1EF0D8900136023680
:102EB000D89001360236350E0124F66E100E02202F
:102EC000F76E0900F5CF13F00900F5CF14F00900F3
:102ED000F5CF15F00A00F5CF16F0000E0A6E0A0EB7
:102EE000096E34C007F0086A0AEC1EF0D890073665
:102EF0000836D89007360836240E0726000E08221A
:102F0000350E0724F66E100E0820F76E0900F5CF77
:102F10000FF00900F5CF10F00900F5CF11F00A000D
:102F2000F5CF12F045EC12F00FC030F010C031F0C8
:102F300011C032F012C033F030C00FF031C010F0C9
:102F400032C011F033C012F0000E136E000E146E7A
:102F5000000E156E3F0E166E45EC12F00FC028F0F5
:102F600010C029F011C02AF012C02BF0E4EF17F0C6
:102F7000E4EF17F0BCEF17F03450040D350EF324D6
:102F8000F66E100EF420F76E0900F5CF0FF0090071
:102F9000F5CF10F00900F5CF11F00A00F5CF12F0CF
:102FA000000E136E000E146E000E156E3F0E166EA0
:102FB00045EC12F00FC028F010C029F011C02AF023
:102FC00012C02BF0E4EF17F01200096E0950D8B4CC
:102FD000ECEF17F0EEEF17F010EF18F004BEF5EF7E
:102FE00017F0F3EF17F010EF18F001C005F002C072
:102FF00006F003C007F004C008F0051E061E071EF9
:10300000081E052A000E06220722082205C00BF022
:1030100006C00CF007C00DF008C00EF01AEF18F053
:1030200001C00BF002C00CF003C00DF004C00EF0A4
:103030001AEF18F00150021003100410D8A423EF67
:1030400018F025EF18F031EF18F0000E016E000EA9
:10305000026E000E036E000E046ED7EF18F0D7EF6D
:1030600018F0960E0A6E3DEF18F00A2AD8900E322C
:103070000D320C320B323DEF18F0000E0B14056EC2
:10308000000E0C14066E000E0D14076EFE0E0E14CC
:10309000086E0550061007100810D8A452EF18F05B
:1030A00054EF18F035EF18F064EF18F064EF18F0F3
:1030B0000A2A010E0B26000E0C220D220E22D89099
:1030C0000E320D320C320B32000E0B14056E000E58
:1030D0000C14066E000E0D14076EFF0E0E14086E13
:1030E0000550061007100810D8A479EF18F07BEFF0
:1030F00018F058EF18F087EF18F087EF18F00A066D
:10310000D8900B360C360D360E3687EF18F00DBE04
:103110008CEF18F08EEF18F098EF18F0020E0A609E
:1031200094EF18F096EF18F07FEF18F098EF18F082
:103130000AB09DEF18F09FEF18F0A7EF18F0FF0E00
:103140000B16FF0E0C167F0E0D16FF0E0E16D890E6
:103150000A320AC005F0066A076A086A05C008F064
:10316000076A066A056A05500B1206500C120750D2
:103170000D1208500E120950D8B4C1EF18F0C3EF69
:1031800018F0CDEF18F004BECAEF18F0C8EF18F031
:10319000CDEF18F00E8ECDEF18F00BC001F00CC083
:1031A00002F00DC003F00EC004F0D7EF18F01200CB
:1031B00003C009F00A6A0B6A0234093601E30A8087
:1031C0000950116E1150D8A4E8EF18F0EAEF18F08A
:1031D000F6EF18F0000E016E000E026E000E036E88
:1031E000000E046EAEEF19F0AEEF19F007C009F053
:1031F0000A6A0B6A0634093601E30A800950106E28
:103200001050D8A406EF19F008EF19F014EF19F0D8
:10321000000E016E000E026E000E036E000E046EB4
:10322000AEEF19F0AEEF19F0028EFF0E0116FF0E91
:103230000216000E0316068EFF0E0516FF0E06166A
:10324000000E0716000E0C6E000E0D6E000E0E6EB8
:10325000000E0F6E7F0E115E1050980F115E180E4B
:10326000106ED8900C360D360E360F360550015CB8
:103270000650025807500358D8A041EF19F043EF09
:1032800019F04AEF19F00550015E0650025A075036
:10329000035A0C80D890013602360336102E31EFD7
:1032A00019F053EF19F011BE5AEF19F058EF19F059
:1032B0007EEF19F01150800A970FD8B062EF19F025
:1032C00064EF19F072EF19F0000E016E000E026E3D
:1032D000000E036E000E046EAEEF19F0AEEF19F0A3
:1032E00072EF19F0D8900F320E320D320C32113EBF
:1032F00072EF19F0A6EF19F0A6EF19F0170E11648E
:1033000084EF19F086EF19F09CEF19F0000E016EB2
:10331000000E026E000E036E000E046EAEEF19F08A
:10332000AEEF19F09CEF19F0D8900C360D360E3632
:103330000F3611069CEF19F01150D8A4A2EF19F026
:10334000A4EF19F094EF19F0A6EF19F00CC001F0FA
:103350000DC002F00EC003F00FC004F012000334E1
:1033600004340E6E0E50D8A4B8EF19F0BAEF19F06D
:10337000C6EF19F0000E016E000E026E000E036E15
:10338000000E046E84EF1AF084EF1AF0073408344C
:103390000D6E0D50D8A4CFEF19F0D1EF19F0DDEF7D
:1033A00019F0000E016E000E026E000E036E000E8C
:1033B000046E84EF1AF084EF1AF0038EFF0E0116EC
:1033C000FF0E0216FF0E0316000E0416078EFF0EE8
:1033D0000516FF0E0616FF0E0716000E0816000E45
:1033E000096E000E0A6E000E0B6E000E0C6E7F0E44
:1033F0000E5E0D50A00F0E5E200E0D6E00EF1AF047
:10340000D89009360A360B360C360550015C06504A
:1034100002580750035808500458D8A012EF1AF069
:1034200014EF1AF01FEF1AF00550015E0650025A11
:103430000750035A0850045A09801FEF1AF0D89019
:1034400001360236033604360D2E00EF1AF029EF4E
:103450001AF00EBE30EF1AF02EEF1AF054EF1AF0F9
:103460000E50800A9F0FD8B038EF1AF03AEF1AF0DA
:1034700048EF1AF0000E016E000E026E000E036E91
:10348000000E046E84EF1AF084EF1AF048EF1AF081
:10349000D8900C320B320A3209320E3E48EF1AF045
:1034A0007CEF1AF07CEF1AF01F0E0E645AEF1AF040
:1034B0005CEF1AF072EF1AF0000E016E000E026E51
:1034C000000E036E000E046E84EF1AF084EF1AF003
:1034D00072EF1AF0D89009360A360B360C360E0603
:1034E00072EF1AF00E50D8A478EF1AF07AEF1AF0B3
:1034F0006AEF1AF07CEF1AF009C001F00AC002F07E
:103500000BC003F00CC004F01200000E0114096E91
:10351000000E02140A6E800E03140B6E7F0E04144C
:103520000C6E09500A100B100C10D8A49AEF1AF068
:103530009CEF1AF0A6EF1AF0000E016E000E026E5C
:10354000000E036E000E046EA6EF1AF0000E0514B6
:10355000096E000E06140A6E800E07140B6E7F0EA5
:1035600008140C6E09500A100B100C10D8A4BBEFF5
:103570001AF0BDEF1AF0C7EF1AF0000E056E000E3C
:10358000066E000E076E000E086EC7EF1AF004AE4E
:10359000CCEF1AF0CEEF1AF0EDEF1AF001C009F0FF
:1035A00002C00AF003C00BF004C00CF0091E0A1E92
:1035B0000B1E0C1E092A000E0A220B220C22000EE2
:1035C0000924016E000E0A20026E000E0B20036E0D
:1035D000800E0C20046EEDEF1AF008AEF2EF1AF038
:1035E000F4EF1AF011EF1BF005C009F006C00AF065
:1035F00007C00BF008C00CF0091E0A1E0B1E0C1EA3
:10360000092A000E0A220B220C22000E0924056E44
:10361000000E0A20066E000E0B20076E800E0C2096
:10362000086E000E011A000E021A000E031A800E18
:10363000041A000E051A000E061A000E071A800E54
:10364000081A0550015C06500258075003580850EC
:103650000458D8B02EEF1BF030EF1BF033EF1BF007
:10366000D89038EF1BF0D88038EF1BF038EF1BF004
:103670001200333434343A6E3A50D8A442EF1BF07F
:1036800044EF1BF050EF1BF0000E316E000E326E57
:10369000000E336E000E346EE1EF1BF0E1EF1BF015
:1036A00031C035F032C036F033C037F034C038F0B6
:1036B000200E60EF1BF0D890383237323632353278
:1036C000E82E5BEF1BF03550396E338EFF0E31164E
:1036D000FF0E3216FF0E3316000E3416960E3A5EAB
:1036E0003ABE77EF1BF075EF1BF09BEF1BF03A50E3
:1036F000800A970FD8B07FEF1BF081EF1BF08FEFA0
:103700001BF0000E316E000E326E000E336E000E96
:10371000346EE1EF1BF0E1EF1BF08FEF1BF0D89060
:1037200034323332323231323A3E8FEF1BF0C5EF52
:103730001BF0C5EF1BF01F0E3A64A1EF1BF0A3EFC7
:103740001BF0B9EF1BF0000E316E000E326E000E52
:10375000336E000E346EE1EF1BF0E1EF1BF0B9EFBA
:103760001BF0D89031363236333634363A06B9EF5C
:103770001BF03A50D8A4BFEF1BF0C1EF1BF0B1EF24
:103780001BF0C5EF1BF0C5EF1BF03950D8B4CBEFE1
:103790001BF0CDEF1BF0D7EF1BF0341E331E321E93
:1037A000316C000E322233223422D7EF1BF031C0AD
:1037B00031F032C032F033C033F034C034F0E1EFD6
:1037C0001BF012000AEC21F0D3EC21F0F8EC21F010
:1037D00050EC20F0EAEC21F0000E0001B06F320E48
:1037E000AF6FF3EF1BF0B151B211D8A4FAEF1BF099
:1037F000FCEF1BF01FEF1CF010EC1DF0000E0001A1
:10380000B26F010EB16F090E5E6E1E0E5D6EE40E9C
:10381000E82EFED75D2EFCD75E2EFAD700D0000E24
:10382000C46E090E5E6E1E0E5D6EE40EE82EFED7AF
:103830005D2EFCD75E2EFAD700D01FEF1CF00001E2
:10384000B105B211D8A427EF1CF029EF1CF04CEF02
:103850001CF093EC1DF0000E0001B26F020EB16F70
:10386000090E5E6E1E0E5D6EE40EE82EFED75D2E16
:10387000FCD75E2EFAD700D0000EC46E090E5E6E25
:103880001E0E5D6EE40EE82EFED75D2EFCD75E2E7A
:10389000FAD700D04CEF1CF0020E0001B119B211A2
:1038A000D8A455EF1CF057EF1CF07AEF1CF087EC12
:1038B0001CF0000E0001B26F000EB16F090E5E6EBB
:1038C0001E0E5D6EE40EE82EFED75D2EFCD75E2E3A
:1038D000FAD700D0000EC46E090E5E6E1E0E5D6E2D
:1038E000E40EE82EFED75D2EFCD75E2EFAD700D070
:1038F0007AEF1CF0000E0001B06F640EAF6FAFC026
:1039000067FFF3EF1BF0F3EF1BF000EF00F00F0E7B
:10391000C26ED00E5B6ECA0EE82EFED75B2EFCD7B1
:10392000C282090E5C6E1E0E5B6EE40EE82EFED7A0
:103930005B2EFCD75C2EFAD700D0C450016E026A11
:10394000036A046A000EE5EC17F001C074F002C0CF
:1039500075F003C076F004C077F074C00FF075C046
:1039600010F076C011F077C012F0000E136E000E4A
:10397000146EA00E156E3C0E166E45EC12F00FC0C4
:1039800070F010C071F011C072F012C073F070C00E
:1039900001F071C002F072C003F073C004F0CD0EEC
:1039A000056ECC0E066E4C0E076E3E0E086E7CEC5D
:1039B00014F001C068F002C069F003C06AF004C0EE
:1039C0006BF0090E0B6E010E19EC20F09B0E086EC9
:1039D000100E096E96EC1FF08E0E516E000E526E98
:1039E000910E536E100E546E68C055F069C056F0BB
:1039F0006AC057F06BC058F056EC08F00C0E0B6E16
:103A0000010E19EC20F08E0E086E000E096E96EC79
:103A10001FF0A80E086E100E096E96EC1FF0120033
:103A2000070EC26ED00E5B6ECA0EE82EFED75B2E5E
:103A3000FCD7C282090E5C6E1E0E5B6EE40EE82E91
:103A4000FED75B2EFCD75C2EFAD700D0C450016E97
:103A5000026A036A046A000EE5EC17F001C074F014
:103A600002C075F003C076F004C077F074C00FF0A8
:103A700075C010F076C011F077C012F0000E136E12
:103A8000000E146EA00E156E3C0E166E45EC12F074
:103A90000FC070F010C071F011C072F012C073F05E
:103AA00070C001F071C002F072C003F073C004F086
:103AB000000E056E000E066E800E076E3E0E086E3E
:103AC0007CEC14F001C06CF002C06DF003C06EF02D
:103AD00004C06FF0010E0B6E010E19EC20F0A20E67
:103AE000086E100E096E96EC1FF08E0E516E000ED1
:103AF000526E910E536E100E546E6CC055F06DC028
:103B000056F06EC057F06FC058F056EC08F0030E38
:103B10000B6E010E19EC20F08E0E086E000E096E71
:103B200096EC1FF012000B0EC26ED00E5B6ECA0E2A
:103B3000E82EFED75B2EFCD7C282090E5C6E1E0EED
:103B40005B6EE40EE82EFED75B2EFCD75C2EFAD718
:103B500000D0C450016E026A036A046A000EE5ECEC
:103B600017F001C080F002C081F003C082F004C0F1
:103B700083F080C00FF081C010F082C011F083C0CC
:103B800012F0950E136E940E146E940E156E3C0E7C
:103B9000166E45EC12F00FC07CF010C07DF011C025
:103BA0007EF012C07FF07CC078F07DC079F07EC0DE
:103BB0007AF07FC07BF0010E0B6E020E19EC20F044
:103BC0009F0E086E100E096E96EC1FF0860E516E59
:103BD000000E526E910E536E100E546E78C055F05A
:103BE00079C056F07AC057F07BC058F056EC08F018
:103BF000030E0B6E020E19EC20F0860E086E000EFE
:103C0000096E96EC1FF0A50E086E100E096E96EC6C
:103C10001FF01200000E0C6E0ABE13EF1EF011EF23
:103C20001EF01BEF1EF0096C0A1ED8B00A2A010E06
:103C30000C6E1BEF1EF008BE22EF1EF020EF1EF0F0
:103C40002AEF1EF0076C081ED8B0082A010E0C1AC5
:103C50002AEF1EF0000E0E6E000E0D6E09500A10B7
:103C6000D8B435EF1EF037EF1EF06BEF1EF0010EEB
:103C70000B6E41EF1EF0D89009360A360B2A41EF41
:103C80001EF00AAE46EF1EF048EF1EF03BEF1EF0AE
:103C90004CEF1EF04CEF1EF0D8900D360E3609504A
:103CA000075C0A500858D8A058EF1EF05AEF1EF0D3
:103CB00061EF1EF00950075E0A50085A0D8061EF4F
:103CC0001EF0D8900A3209320B2E4CEF1EF06BEF2B
:103CD0001EF06BEF1EF00C50D8B471EF1EF073EFB6
:103CE0001EF079EF1EF00D6C0E1ED8B00E2A79EF83
:103CF0001EF00DC007F00EC008F07FEF1EF012009E
:103D0000000E066E02BE89EF1EF087EF1EF091EFE7
:103D10001EF0016C021ED8B0022A010E066E91EF51
:103D20001EF004BE98EF1EF096EF1EF09EEF1EF000
:103D3000036C041ED8B0042A9EEF1EF0035004103A
:103D4000D8B4A5EF1EF0A7EF1EF0D7EF1EF0010EBE
:103D5000056EB1EF1EF0D89003360436052AB1EF98
:103D60001EF004AEB6EF1EF0B8EF1EF0ABEF1EF083
:103D7000BCEF1EF0BCEF1EF00350015C0450025873
:103D8000D8A0C5EF1EF0C7EF1EF0CDEF1EF0035018
:103D9000015E0450025ACDEF1EF0D8900432033277
:103DA000052EBCEF1EF0D7EF1EF0D7EF1EF0065029
:103DB000D8B4DDEF1EF0DFEF1EF0E5EF1EF0016C72
:103DC000021ED8B0022AE5EF1EF001C001F002C0C9
:103DD00002F0EBEF1EF01200000E096E000E0A6EEC
:103DE000000E0B6E000E0C6E05500610071008102A
:103DF000D8B4FDEF1EF0FFEF1EF03FEF1FF0010EF5
:103E00000D6E0BEF1FF0D8900536063607360836D4
:103E10000D2A0BEF1FF008AE10EF1FF012EF1FF08E
:103E200003EF1FF016EF1FF016EF1FF0D8900936C2
:103E30000A360B360C360550015C06500258075006
:103E4000035808500458D8A028EF1FF02AEF1FF09D
:103E500035EF1FF00550015E0650025A0750035A15
:103E60000850045A098035EF1FF0D8900832073205
:103E7000063205320D2E16EF1FF03FEF1FF009C07E
:103E800001F00AC002F00BC003F00CC004F01200F5
:103E90000550061007100810D8B451EF1FF053EF6B
:103EA0001FF08DEF1FF0010E096E5FEF1FF0D8902D
:103EB0000536063607360836092A5FEF1FF008AECA
:103EC00064EF1FF066EF1FF057EF1FF06AEF1FF06F
:103ED0006AEF1FF00550015C065002580750035866
:103EE00008500458D8A077EF1FF079EF1FF083EF48
:103EF0001FF00550015E0650025A0750035A085041
:103F0000045A83EF1FF0D890083207320632053288
:103F1000092E6AEF1FF08DEF1FF001C001F002C003
:103F200002F003C003F004C004F01200000E0D6E96
:103F3000000E0C6EB9EF1FF00C5008240A6E0D50E5
:103F400009200B6E0AC0F6FF0BC0F7FF000EF86EDB
:103F50000F0EF76403D00800F55005D0F6CFE9FF47
:103F6000F7CFEAFFEF50B4EC20F00C4A0D2AB9EF7E
:103F70001FF00C5008240A6E0D5009200B6E0AC069
:103F8000F6FF0BC0F7FF000EF86E0F0EF76403D0BC
:103F90000800F55005D0F6CFE9FFF7CFEAFFEF5064
:103FA0000009D8A4D6EF1FF0D8EF1FF09CEF1FF048
:103FB000DAEF1FF01200000EC2EC21F0020E0C6EC0
:103FC000A00E0B6E920EE82EFED70B2EFCD70C2EF9
:103FD000FAD700D0030EE0EC20F0680E0B6EE40E72
:103FE000E82EFED70B2EFCD700D0030EE0EC20F01D
:103FF000E50E0B6E910EE82EFED70B2EFCD700F0CF
:10400000030EE0EC20F0020EE0EC20F0020EE0ECFB
:1040100020F0080EE0EC20F0000EE0EC20F00C0E9A
:10402000E0EC20F0000EE0EC20F0060EE0EC20F0DA
:1040300012000C6E0C04D8A420EF20F022EF20F028
:1040400033EF20F00B507F0F0F6E0F380F0B0D6EFC
:104050000F500F0B0E6E0D50E0EC20F00E50E0EC08
:1040600020F04FEF20F0020E0C18D8A43AEF20F009
:104070003CEF20F04FEF20F00B50BF0F0F6E0F38CA
:104080000F0B0D6E0F500F0B0E6E0D50E0EC20F06D
:104090000E50E0EC20F04FEF20F04FEF20F0120038
:1040A00094869488A00E0E6E860E0F6E010E106E12
:1040B000000E116E86EC20F0090E176E1E0E166EA5
:1040C000E40EE82EFED7162EFCD7172EFAD700D016
:1040D000DBEC1FF0EAEC21F0F1EC21F0010E0B6EAD
:1040E000010E19EC20F0960E086E100E096E96EC7B
:1040F0001FF0090E176E1E0E166EE40EE82EFED788
:10410000162EFCD7172EFAD700D01200280EC66E36
:10411000000EC56E000E016E900E026ED00E036E84
:10412000030E046E0EC012F00FC013F010C014F096
:1041300011C015F0020ED89012361336143615360B
:10414000E82E9BEF20F012C005F013C006F014C05B
:1041500007F015C008F0ECEC1EF00104C86E000E6C
:10416000C76E948694881200056E05500F0B076E7B
:104170000738F00B076E0550F00B066E010EC2EC0F
:1041800021F00650C2EC21F006500509C2EC21F0E6
:10419000D50EE82EFED700F006500109C2EC21F042
:1041A0000750C2EC21F007500509C2EC21F0D50EF2
:1041B000E82EFED700F007500109C2EC21F01200F2
:1041C0000A6E0A38F00B0A6E010E076E000E076EBB
:1041D000EAEF20F00750C2EC21F00A50C2EC21F0C7
:1041E000040E0AC005F0066A0510086E0650096E36
:1041F0000850C2EC21F0540E056E1C0EE82EFED7BE
:10420000052EFCD700D00AC008F0096A0850C2EC9D
:1042100021F012009268000E936E000E946E000E54
:10422000956E9668000E806E000E816E000E826E96
:10423000000E836E000E846E000E896E000E8A6E74
:10424000000E8B6E000E8C6E000E8D6E0F013869A5
:10425000000E396F000E3A6F000E3B6F000E3C6F80
:10426000740ED36E9B8C1200000E4D1A000E4E1A67
:10427000000E4F1A800E501A49C035F04AC036F071
:104280004BC037F04CC038F04DC039F04EC03AF05A
:104290004FC03BF050C03CF034EC0DF035C049F05D
:1042A00036C04AF037C04BF038C04CF058EF21F020
:1042B00012000150021003100410D8B462EF21F074
:1042C00064EF21F06EEF21F0000E011A000E021AC9
:1042D000000E031A800E041A6EEF21F001C001F0E7
:1042E00002C002F003C003F004C004F078EF21F034
:1042F0001200036E000E026E3A0E036082EF21F090
:1043000084EF21F090EF21F02F0E03648AEF21F06B
:104310008CEF21F090EF21F0010E026E90EF21F072
:1043200002C001F0013095EF21F0120098EF21F06A
:10433000C7B49DEF21F09FEF21F098EF21F0C5CF9A
:1043400001F01F0E0116D8A4A8EF21F0AAEF21F06A
:1043500098EF21F0ACEF21F0120001500302F3CFEF
:1043600005F0F4CF06F001500402F3500626025087
:104370000302F350062605C001F006C002F0C1EFAB
:1043800021F01200046E07EC22F0000E036E700E96
:10439000026EFEEC21F004C002F0036AFEEC21F094
:1043A00003EC22F01200000E0F01496F0C0E666E36
:1043B0000C0EBD6E7D0EBA6EA00EBB6E120000EE2E
:1043C00060F0360EEE6AE806FDE1000EF86E0001C0
:1043D000E2EF1BF0000EE0EC20F0010EE0EC20F02C
:1043E0001200000EE0EC20F00C0EE0EC20F01200C9
:1043F000800EC16E3E0EC06EC09E120096EC21F083
:1044000002C0C9FF120096EC21F0C584120096ECA0
:0644100021F0C58012003E
:020000040020DA
:08000000FFFFFFFFFFFFFFFF00
:020000040030CA
:0E000000FF18193CFFBF80FF0FC00FE00F403C
:00000001FF
