:0400000041EF23F0B9
:10100000000000803F000020410000C84200007A3C
:101010004400401C460050C3470024744980961881
:101020004B20BCBE4C286B6E4EF9021550EC78ADCF
:1010300060CAF249710000803FCDCCCC3D0AD72375
:101040003C6F12833A17B7D138ACC52737BD378606
:101050003595BFD63377CC2B325F708930FFE6DB16
:101060002E08E53C1E6042A20D010000000A0000AF
:101070000064000000E803000010270000A08601C3
:101080000040420F008096980000E1F50500CA9AE2
:101090003B252E326600546573740055693D004946
:1010A0003D00553D0020410020560000550E000136
:1010B0009C6F000E9D6F16EF0DF0250EB019D8B481
:1010C00064EF08F066EF08F070EF08F051C0D9FF48
:1010D00052C0DAFFB0C0DFFF514A522A16EF0DF0BE
:1010E000000E9F6F000E9E6F53C0F6FF54C0F7FFB7
:1010F0000800F5502E0AD8A480EF08F082EF08F01F
:10110000BCEF08F09F8D534A542A000EAB6F000EBF
:10111000AA6FA9EF08F0AAC001F0ABC002F0000E60
:10112000046E0A0E036E1BEC23F053C0F6FF54C08E
:10113000F7FF0800F5500126000E0222D00E012410
:101140000001AA6FFF0E0220AB6F534A542AA9EF89
:1011500008F053C0F6FF54C0F7FF0800F550E7EC65
:1011600022F0D8B0B6EF08F0B8EF08F08BEF08F037
:10117000CFEF08F0CFEF08F0000E0001AB6F000ECC
:10118000AA6F9F89CFEF08F0CFEF08F02BEF0DF09B
:101190009F85E4EF08F016EF0DF0E4EF08F053C080
:1011A000F6FF54C0F7FF534A542A0800F5CFB0F0B9
:1011B0000001B051000AD8B42BEF0DF0660AD8B484
:1011C000C8EF08F016EF0DF0070E9F15D8B4EBEF3F
:1011D00008F0EDEF08F0B6EF0CF09FA9F2EF08F081
:1011E000F4EF08F0FAEF08F0000EAB6F060EAA6FEE
:1011F000FAEF08F09CC0D9FF9DC0DAFFDECFACF05B
:10120000DECFADF0DECFAEF0DECFAFF0040E9C2728
:10121000000E9D23AFBF11EF09F00FEF09F028EF8B
:1012200009F0ACC001F0ADC002F0AEC003F0AFC039
:1012300004F0C7EC22F001C0ACF002C0ADF003C076
:10124000AEF004C0AFF0030E00019E1328EF09F0CA
:10125000000EA56F000EA46FAC51AD11AE11AF1111
:10126000D8B435EF09F037EF09F0D1EF09F0AE351A
:10127000AF35820FA46FA56BFF0EA523A407D8A0DE
:10128000A507A4C001F0A5C002F0000E046E030E75
:10129000036E1BEC23F001C0A4F002C0A5F0A4C0B3
:1012A00007F0A5C008F0000E0A6E0A0E096EFDECEC
:1012B0001DF007C0A4F008C0A5F00001A5BF65EFB0
:1012C00009F063EF09F06AEF09F0A407D8A0A507B9
:1012D0006AEF09F0A4510008F7EC0FF028C0A6F05F
:1012E00029C0A7F02AC0A8F02BC0A9F0A6C00FF013
:1012F000A7C010F0A8C011F0A9C012F0ACC013F044
:10130000ADC014F0AEC015F0AFC016F045EC12F051
:101310000FC0A6F010C0A7F011C0A8F012C0A9F02D
:10132000A6C001F0A7C002F0A8C003F0A9C004F055
:10133000000E056E000E066E800E076E3F0E086EE4
:10134000A0EC1CF0D8B0A7EF09F0A9EF09F0AFEFBF
:1013500009F00001A407D8A0A507D1EF09F0A6C0A5
:1013600001F0A7C002F0A8C003F0A9C004F0000E6D
:10137000056E000E066E200E076E410E086EA0EC84
:101380001CF0D8A0C6EF09F0C8EF09F0D1EF09F0C2
:101390000001A44BA52BD1EF09F0D1EF09F0D1EF5B
:1013A00009F00001ABBFE0EF09F0AB5107E10D0E12
:1013B000AA5DD8B0DEEF09F0E0EF09F0FFEF09F029
:1013C000ACC035F0ADC036F0AEC037F0AFC038F0CD
:1013D000AA51A5EC18F028C039F029C03AF02AC06B
:1013E0003BF02BC03CF034EC0DF035C0ACF036C017
:1013F000ADF037C0AEF038C0AFF0FFEF09F000013C
:10140000A5BF0EEF0AF0A55107E10A0EA45DD8B002
:101410000CEF0AF00EEF0AF03FEF0AF0AC51AD11FD
:10142000AE11AF11D8B417EF0AF019EF0AF0B4EF0C
:101430000AF0ACC031F0ADC032F0AEC033F0AFC096
:1014400034F054EC1DF03150321033103410D8A465
:101450002CEF0AF02EEF0AF0B4EF0AF00001A5BF5E
:101460003BEF0AF0A55109E1020EA45DD8A03BEFC5
:101470000AF03DEF0AF0B4EF0AF03FEF0AF0A6C021
:1014800001F0A7C002F0A8C003F0A9C004F05F0EED
:10149000056E700E066E890E076E400E086EA0EC8B
:1014A0001CF0D8B056EF0AF058EF0AF05FEF0AF0E0
:1014B0000001F70EA427FF0EA52366EF0AF0000136
:1014C000F80EA427FF0EA52366EF0AF0A451F7EC4F
:1014D0000FF028C0A6F029C0A7F02AC0A8F02BC0A2
:1014E000A9F0ACC001F0ADC002F0AEC003F0AFC0D7
:1014F00004F0A6C005F0A7C006F0A8C007F0A9C078
:1015000008F0CAEC1BF001C0A0F002C0A1F003C0BB
:10151000A2F004C0A3F0A9EF0AF0ACC001F0ADC086
:1015200002F0AEC003F0AFC004F0A6C005F0A7C043
:1015300006F0A8C007F0A9C008F0F3EC1AF001C04B
:10154000A0F002C0A1F003C0A2F004C0A3F0A9EF74
:101550000AF0000E0001AC6F000EAD6F000EAE6F12
:10156000000EAF6FF2EF0AF0ACC031F0ADC032F058
:10157000AEC033F0AFC034F054EC1DF031C0A0F079
:1015800032C0A1F033C0A2F034C0A3F0ACC049F027
:10159000ADC04AF0AEC04BF0AFC04CF0A0C001F0FF
:1015A000A1C002F0A2C003F0A3C004F0000E00EC42
:1015B0001AF001C04DF002C04EF003C04FF004C05D
:1015C00050F07EEC22F049C0ACF04AC0ADF04BC008
:1015D000AEF04CC0AFF0000E0001A56F000EA46F7E
:1015E000F2EF0AF0010EB06F0A0EB019D8A4FBEFAB
:1015F0000AF0FDEF0AF001EF0BF02CEF0BF02CEFEF
:101600000BF0B051040D690EF324F66E100EF420A9
:10161000F76E0900F550A05D0900F550A1590900C9
:10162000F550A2590900F550A359D8B01AEF0BF0A4
:101630001CEF0BF020EF0BF02CEF0BF02CEF0BF06E
:10164000B02B0A0EB019D8A428EF0BF02AEF0BF03C
:1016500001EF0BF02CEF0BF0030E9E15596E000EF0
:101660009F155A6E59505A10D8B439EF0BF03BEF12
:101670000BF093EF0BF051C0D9FF52C0DAFF2D0EE3
:10168000DF6E514A522A93EF0BF093EF0BF0A0C09C
:1016900001F0A1C002F0A2C003F0A3C004F0B05159
:1016A000040D690EF324F66E100EF420F76E090097
:1016B000F5CF05F00900F5CF06F00900F5CF07F0EA
:1016C0000A00F5CF08F0DFEC1EF001C0A6F002C062
:1016D000A7F003C0A8F004C0A9F0A6C001F0A7C0FD
:1016E00002F0A8C003F0A9C004F00A0E056E000EB7
:1016F000066E000E076E000E086EF1EC1FF001C0C2
:10170000A6F002C0A7F003C0A8F004C0A9F0000131
:10171000A651300F51C0D9FF52C0DAFFDF6E514AD7
:10172000522A93EF0BF0B007B029D8A49AEF0BF030
:101730009CEF0BF047EF0BF0ADEF0BF0ADEF0BF0C4
:1017400051C0D9FF52C0DAFF300EDF6E514A522A23
:10175000A407D8A0A507ADEF0BF0A5BFBAEF0BF01B
:10176000A55106E1A405D8B0B8EF0BF0BAEF0BF025
:10177000A0EF0BF0BCEF0BF0ABBFC8EF0BF0AB5121
:1017800009E1090EAA5DD8A0C8EF0BF0CAEF0BF073
:10179000CEEF0BF0080EB06FD2EF0BF0AAC0B0F096
:1017A000D2EF0BF0B051AA5F000EB0BFFF0EAB5BE3
:1017B000B051D8B4DEEF0BF0E0EF0BF0EAEF0BF036
:1017C00051C0D9FF52C0DAFF2E0EDF6E514A522AA5
:1017D000EAEF0BF0B051F7EC0FF028C098F029C0F9
:1017E00099F02AC09AF02BC09BF0ACC013F0ADC0AA
:1017F00014F0AEC015F0AFC016F098C00FF099C04D
:1018000010F09AC011F09BC012F045EC12F00FC01E
:1018100031F010C032F011C033F012C034F054EC8B
:101820001DF031C0A0F032C0A1F033C0A2F034C02E
:10183000A3F08EEF0CF0A0C001F0A1C002F0A2C096
:1018400003F0A3C004F00001B051040D690EF324AD
:10185000F66E100EF420F76E0900F5CF05F00900C2
:10186000F5CF06F00900F5CF07F00A00F5CF08F034
:10187000DFEC1EF001C0A6F002C0A7F003C0A8F084
:1018800004C0A9F0A6C001F0A7C002F0A8C003F0F0
:10189000A9C004F00A0E056E000E066E000E076E5B
:1018A000000E086EF1EC1FF001C0A6F002C0A7F018
:1018B00003C0A8F004C0A9F00001A651300F51C028
:1018C000D9FF52C0DAFFDF6E514A522AA0C001F0A0
:1018D000A1C002F0A2C003F0A3C004F0B051040DF7
:1018E000690EF324F66E100EF420F76E0900F5CFA2
:1018F00005F00900F5CF06F00900F5CF07F00A0062
:10190000F5CF08F0F1EC1FF001C0A0F002C0A1F08B
:1019100003C0A2F004C0A3F08EEF0CF00001B007EA
:10192000B029D8A496EF0CF098EF0CF01BEF0CF058
:10193000A9EF0CF0A9EF0CF051C0D9FF52C0DAFFAB
:10194000300EDF6E514A522AAA07D8A0AB07A9EF82
:101950000CF0AA51AB11D8A4B0EF0CF0B2EF0CF020
:101960009CEF0CF016EF0DF016EF0DF0AA51AB1135
:10197000D8A4BDEF0CF0BFEF0CF0CEEF0CF0A051EF
:10198000A111A211A311D8A4C8EF0CF0CAEF0CF05A
:10199000CEEF0CF0AA4BAB2BCEEF0CF0800EB0BF0D
:1019A0007F0E596EAA51B05DAB51800A5958D8B01C
:1019B000DCEF0CF0DEEF0CF0E2EF0CF0AAC0B0F0C0
:1019C000FBEF0CF0AB51800A596EB051AA5D800E4E
:1019D000B0BF7F0E5958D8B0F0EF0CF0F2EF0CF01A
:1019E000FBEF0CF0B051AA6FAB6BAABFAB07FBEFDC
:1019F0000CF0FBEF0CF0030E9E15596E000E9F15B8
:101A00005A6E59505A10D8B408EF0DF00AEF0DF085
:101A100016EF0DF051C0D9FF52C0DAFF2D0EDF6E68
:101A2000514A522A16EF0DF016EF0DF053C0F6FF93
:101A300054C0F7FF534A542A0800F5CFB0F0B05114
:101A4000D8A425EF0DF027EF0DF05DEF08F02BEF98
:101A50000DF02BEF0DF051C0D9FF52C0DAFF000E90
:101A6000DF6E33EF0DF012003850800B456E3850AA
:101A70003824476E37AE3FEF0DF041EF0DF044EFE5
:101A80000DF0478044EF0DF04750D8B44AEF0DF009
:101A90004CEF0DF063EF0DF04728D8A452EF0DF096
:101AA00054EF0DF05EEF0DF0000E356E000E366E49
:101AB000000E376E000E386E5EEF0DF0378E000EA2
:101AC000386E6DEF0DF0000E356E000E366E000EA6
:101AD000376E000E386E6DEF0DF03C50800B466E89
:101AE00045504618D8B477EF0DF079EF0DF07CEF44
:101AF0000DF0458C7CEF0DF03C503C24466E3BAE27
:101B000084EF0DF086EF0DF089EF0DF0468089EF40
:101B10000DF04650D8B48FEF0DF091EF0DF0A8EF17
:101B20000DF04628D8A497EF0DF099EF0DF0A3EF34
:101B30000DF0000E396E000E3A6E000E3B6E000E78
:101B40003C6EA3EF0DF03B8E000E3C6EB2EF0DF03D
:101B5000000E396E000E3A6E000E3B6E000E3C6EAB
:101B6000B2EF0DF04750465CD8B0B9EF0DF0BBEFC7
:101B70000DF0E6EF0DF045ACC0EF0DF0C2EF0DF04B
:101B8000C6EF0DF0800E451AC6EF0DF047C048F0C5
:101B900046C047F048C046F035C048F039C035F07F
:101BA00048C039F036C048F03AC036F048C03AF084
:101BB00037C048F03BC037F048C03BF038C048F071
:101BC0003CC038F048C03CF0E6EF0DF0000E486E27
:101BD00047503D6E3E6A3D1E3E1E3D4A3E2A4650DF
:101BE0003F6E406A3D503F263E50402240BE02EFCD
:101BF0000EF0405009E11A0E3F5CD8A002EF0EF043
:101C000004EF0EF041EF0EF035503610371038105B
:101C1000D8A40DEF0EF010EF0EF0010E11EF0EF044
:101C2000000E486E000E356E000E366E000E376EDA
:101C3000000E386E46C047F04CEF0EF041EF0EF04C
:101C400048A025EF0EF027EF0EF02DEF0EF0D89004
:101C500048300109486E31EF0EF0D890483231EF2C
:101C60000EF035A036EF0EF038EF0EF03BEF0EF031
:101C7000488E3BEF0EF03834383237323632353258
:101C8000472A4650475CD8A048EF0EF04AEF0EF0C6
:101C900020EF0EF04CEF0EF045BC51EF0EF053EF7D
:101CA0000EF09CEF0EF04750D8A459EF0EF05BEF0A
:101CB0000EF067EF0EF0000E356E000E366E000E61
:101CC000376E000E386EF6EF0FF0F6EF0FF039506A
:101CD00035263A5036223B5037223C50382238A025
:101CE00074EF0EF076EF0EF04CEF0FF048A07BEFA4
:101CF0000EF07DEF0EF084EF0EF0D8904832485091
:101D00000109486E88EF0EF0D890483288EF0EF047
:101D100035A08DEF0EF08FEF0EF092EF0EF0488EA3
:101D200092EF0EF038343832373236323532472AB5
:101D30004CEF0FF04CEF0FF03950355C3A503658FD
:101D40003B5037583850800A3D6E3C50800A3D5811
:101D5000D8B0ADEF0EF0AFEF0EF0EDEF0EF035C0F6
:101D60003DF036C03EF037C03FF038C040F03D1E79
:101D70003E1E3F1E401E3D2A000E3E223F224022B4
:101D800039503D24416E3A503E20426E3B503F2038
:101D9000436E3C504020446EFF0E4124356EFF0ED2
:101DA0004220366EFF0E4320376EFF0E4420386E01
:101DB000800E451A486C4850D8A4E1EF0EF0E3EFCE
:101DC0000EF0F5EF0EF0010E3526000E362237220A
:101DD0003822F5EF0EF0F5EF0EF03950355E3A503F
:101DE000365A3B50375A3C50385A35503610371017
:101DF0003810D8A4FEEF0EF000EF0FF041EF0FF017
:101E00004850D8A406EF0FF008EF0FF041EF0FF0A5
:101E1000000E356E000E366E000E376E000E386EF8
:101E2000F6EF0FF0F6EF0FF041EF0FF0D8903536E8
:101E300036363736383648AE20EF0FF022EF0FF047
:101E400025EF0FF0358025EF0FF048A02AEF0FF0B7
:101E50002CEF0FF030EF0FF0D880483634EF0FF052
:101E6000D890483634EF0FF04750D8B43AEF0FF01F
:101E70003CEF0FF041EF0FF0470641EF0FF041EF5D
:101E80000FF037AE46EF0FF048EF0FF016EF0FF000
:101E90004CEF0FF04CEF0FF0000E466E48AE53EFD4
:101EA0000FF055EF0FF071EF0FF048C03DF07F0ECF
:101EB0003D16D8B45EEF0FF060EF0FF064EF0FF057
:101EC000010E466E71EF0FF035A069EF0FF06BEF6A
:101ED0000FF071EF0FF0010E466E71EF0FF071EF22
:101EE0000FF04650D8B477EF0FF079EF0FF0AAEF6C
:101EF0000FF0010E3526000E36223722382238A088
:101F000084EF0FF086EF0FF0AAEF0FF035C03DF031
:101F100036C03EF037C03FF038C040F04034403269
:101F20003F323E323D323DC035F03EC036F03FC01C
:101F300037F040C038F04728D8B4A1EF0FF0A3EF36
:101F40000FF0AAEF0FF0472AAAEF0FF0AAEF0FF059
:101F5000AAEF0FF04728D8B4B0EF0FF0B2EF0FF0B0
:101F6000BCEF0FF04750D8A4B8EF0FF0BAEF0FF066
:101F7000D2EF0FF0BCEF0FF0000E356E000E366E94
:101F8000000E376E000E386E4750D8A4CAEF0FF01F
:101F9000CCEF0FF0D2EF0FF0000E456ED2EF0FF046
:101FA000D2EF0FF047A0D7EF0FF0D9EF0FF0DCEF33
:101FB0000FF0378EDFEF0FF0379EDFEF0FF0D89086
:101FC0004730386E45AEE7EF0FF0E9EF0FF0ECEF7A
:101FD0000FF0388EECEF0FF035C035F036C036F02C
:101FE00037C037F038C038F0F6EF0FF01200306E1F
:101FF00030BEFFEF0FF0FDEF0FF023EF11F0306C6C
:102000003050800A120FD8A008EF10F00AEF10F03D
:10201000A7EF10F0000E0A6E0A0E096E000E046E95
:10202000640E036E3050016E026A01BE020673EC4C
:102030001EF001C007F002C008F0FDEC1DF0D890C2
:1020400007360836D89007360836240E0726000EC5
:102050000822350E0724F66E100E0820F76E0900D0
:10206000F5CF13F00900F5CF14F00900F5CF15F006
:102070000A00F5CF16F0000E0A6E640E096E30509D
:10208000076E086A07BE0806FDEC1DF0D8900736FB
:102090000836D89007360836480E0726000E082264
:1020A000350E0724F66E100E0820F76E0900F5CFE6
:1020B0000FF00900F5CF10F00900F5CF11F00A007C
:1020C000F5CF12F045EC12F00FC02CF010C02DF03F
:1020D00011C02EF012C02FF02CC00FF02DC010F048
:1020E0002EC011F02FC012F0000E046E0A0E036E07
:1020F0003050016E026A01BE020673EC1EF0D890E9
:1021000001360236D89001360236350E0124F66EBD
:10211000100E0220F76E0900F5CF13F00900F5CF7D
:1021200014F00900F5CF15F00A00F5CF16F045ECD4
:1021300012F00FC028F010C029F011C02AF012C010
:102140002BF044EF12F044EF12F00BEF11F030508F
:10215000800A750FD8A0AFEF10F0B1EF10F00BEFC1
:1021600011F0000E0A6E0A0E096E3050076E086AF2
:1021700007BE0806FDEC1DF0D89007360836D8904B
:1021800007360836240E0726000E0822350E0724CF
:10219000F66E100E0820F76E0900F5CF0FF009005B
:1021A000F5CF10F00900F5CF11F00A00F5CF12F0CD
:1021B000000E046E0A0E036E3050016E026A01BEFC
:1021C000020673EC1EF0D89001360236D890013624
:1021D0000236350E0124F66E100E0220F76E09004D
:1021E000F5CF13F00900F5CF14F00900F5CF15F085
:1021F0000A00F5CF16F045EC12F00FC028F010C021
:1022000029F011C02AF012C02BF044EF12F044EF75
:1022100012F00BEF11F03050040D350EF324F66E72
:10222000100EF420F76E0900F5CF28F00900F5CF65
:1022300029F00900F5CF2AF00A00F5CF2BF044EF82
:1022400012F044EF12F03050800A120FD8A02BEF9A
:1022500011F02DEF11F0CAEF11F0000E0A6E0A0E08
:10226000096E000E046E640E036E3050016E026A39
:1022700001BE020673EC1EF001C007F002C008F0B8
:10228000FDEC1DF0D89007360836D8900736083692
:10229000240E0726000E0822010E0724F66E100EEB
:1022A0000820F76E0900F5CF13F00900F5CF14F000
:1022B0000900F5CF15F00A00F5CF16F0000E0A6EF2
:1022C000640E096E3050076E086A07BE0806FDEC02
:1022D0001DF0D89007360836D89007360836480ED5
:1022E0000726000E0822010E0724F66E100E0820A5
:1022F000F76E0900F5CF0FF00900F5CF10F00900D7
:10230000F5CF11F00A00F5CF12F045EC12F00FC036
:102310002CF010C02DF011C02EF012C02FF02CC0E8
:102320000FF02DC010F02EC011F02FC012F0000ED3
:10233000046E0A0E036E3050016E026A01BE020680
:1023400073EC1EF0D89001360236D8900136023672
:10235000010E0124F66E100E0220F76E0900F5CF73
:1023600013F00900F5CF14F00900F5CF15F00A00BD
:10237000F5CF16F045EC12F00FC028F010C029F090
:1023800011C02AF012C02BF044EF12F044EF12F00B
:102390002EEF12F03050800A750FD8A0D2EF11F056
:1023A000D4EF11F02EEF12F0000E0A6E0A0E096E35
:1023B0003050076E086A07BE0806FDEC1DF0D89085
:1023C00007360836D89007360836240E0726000E42
:1023D0000822010E0724F66E100E0820F76E090081
:1023E000F5CF0FF00900F5CF10F00900F5CF11F08F
:1023F0000A00F5CF12F0000E046E0A0E036E305084
:10240000016E026A01BE020673EC1EF0D89001361E
:102410000236D89001360236010E0124F66E100EF7
:102420000220F76E0900F5CF13F00900F5CF14F084
:102430000900F5CF15F00A00F5CF16F045EC12F0C3
:102440000FC028F010C029F011C02AF012C02BF0E4
:1024500044EF12F044EF12F02EEF12F03050040D62
:10246000010EF324F66E100EF420F76E0900F5CF7E
:1024700028F00900F5CF29F00900F5CF2AF00A006D
:10248000F5CF2BF044EF12F012001250800B1B6EB0
:1024900012501224216E11AE50EF12F052EF12F0D2
:1024A00055EF12F0218055EF12F02150D8B45BEFB8
:1024B00012F05DEF12F072EF12F02128D8A463EF52
:1024C00012F065EF12F06FEF12F0000E0F6E000EBB
:1024D000106E000E116E000E126E6FEF12F0118E64
:1024E0007CEF12F0000E0F6E000E106E000E116EDB
:1024F000000E126E7CEF12F01650800B1B1A165055
:102500001624206E15AE87EF12F089EF12F08CEFD3
:1025100012F020808CEF12F02050D8B492EF12F01D
:1025200094EF12F0A9EF12F02028D8A49AEF12F03D
:102530009CEF12F0A6EF12F0000E136E000E146E58
:10254000000E156E000E166EA6EF12F0158EB1EF8E
:1025500012F0000E136E000E146E000E156E000EBB
:10256000166E2050D8B4B7EF12F0B9EF12F0C3EFE7
:1025700012F02150D8A4BFEF12F0C1EF12F0CFEF4C
:1025800012F0C3EF12F0000E0F6E000E106E000E70
:10259000116E000E126E7BEF14F07BEF14F01550ED
:1025A0000F02F3CF26F0F4CF27F026501C6E1D6AE1
:1025B0001E6A1F6A2750226E236A246A256A1450F5
:1025C0001002F3CF26F0F4CF27F026501C26000E81
:1025D0001D221E221F2227502226000E23222422E3
:1025E000252213501102F3CF26F0F4CF27F0265006
:1025F0001C26000E1D221E221F2227502226000EFE
:102600002322242225221EC01FF01DC01EF01CC044
:102610001DF01C6A13501002F3CF26F0F4CF27F000
:1026200026501C2627501D22000E1E22000E1F229F
:1026300014500F02F3CF26F0F4CF27F026501C26BB
:1026400027501D22000E1E22000E1F221EC01FF04A
:102650001DC01EF01CC01DF01C6A13500F02F3CFEA
:1026600026F0F4CF27F026501C2627501D22000EFE
:102670001E22000E1F2215501002F3CF26F0F4CFB9
:1026800027F02650222627502322000E2422000E57
:10269000252214501102F3CF26F0F4CF27F0265054
:1026A000222627502322000E2422000E2522155018
:1026B0001102F3CF26F0F4CF27F02650176E2750E3
:1026C000186E196A1A6A19C01AF018C019F017C0E2
:1026D00018F0176A17502226185023221950242266
:1026E0001A5025221CC017F01DC018F01EC019F08A
:1026F0001FC01AF0190E82EF13F0D8901A32193257
:1027000018321732E82E7DEF13F01750222618509A
:102710002322195024221A5025221EC01FF01DC04A
:102720001EF01CC01DF01C6A205021C017F0186A52
:102730001726000E1822820E1724266EFF0E182070
:10274000276EBAEF13F0D89022362336243625367A
:102750001FAEADEF13F0AFEF13F0B0EF13F0228028
:10276000D8901C361D361E361F362606D8A02706E2
:10277000BAEF13F024AEBFEF13F0C1EF13F0A3EFE5
:1027800013F0C3EF13F0000E206E1FAECAEF13F06C
:10279000CCEF13F0F4EF13F0FF0E1C14176EFF0EC6
:1027A0001D14186EFF0E1E14196E7F0E1F141A6E64
:1027B0001750181019101A10D8B4E1EF13F0E3EF06
:1027C00013F0E7EF13F0010E206EF4EF13F022A0E8
:1027D000ECEF13F0EEEF13F0F4EF13F0010E206EB8
:1027E000F4EF13F0F4EF13F02050D8B4FAEF13F035
:1027F000FCEF13F024EF14F0010E2226000E23222A
:102800002422252225A007EF14F009EF14F024EF6D
:1028100014F022C017F023C018F024C019F025C00E
:102820001AF01A341A3219321832173217C022F03D
:1028300018C023F019C024F01AC025F0264A272A10
:1028400024EF14F024EF14F027BE2FEF14F02750DC
:1028500008E12628D8A02FEF14F031EF14F03BEF59
:1028600014F0000E226E000E236E800E246E7F0E7A
:10287000256E6FEF14F027BE48EF14F0275006E1E5
:102880002604D8B046EF14F048EF14F054EF14F0DB
:10289000000E226E000E236E000E246E000E256EBA
:1028A000000E1B6E6FEF14F026C021F0FF0E2216F3
:1028B000FF0E23167F0E2416000E251621A063EFAF
:1028C00014F065EF14F068EF14F0248E68EF14F044
:1028D000D8902130256E6FEF14F06FEF14F01B507D
:1028E000251222C00FF023C010F024C011F025C023
:1028F00012F07BEF14F012002BEC22F04EEC23F0E0
:1029000068EC23F042EC21F05AEC23F096EC1FF037
:1029100080C00DF081C00EF082C00FF083C010F0B7
:10292000A3EC22F0000E0001B86F320EB76F99EFE2
:1029300014F00001B951BA11D8A4A1EF14F0A3EF1B
:1029400014F0C8EF14F03BEC1FF055EC22F0000E31
:102950000001BA6F010EB96F090E5C6E1E0E5B6E40
:10296000E40EE82EFED75B2EFCD75C2EFAD700D003
:10297000000EC46E090E5C6E1E0E5B6EE40EE82E39
:10298000FED75B2EFCD75C2EFAD700D0C8EF14F030
:102990000001B905BA11D8A4D0EF14F0D2EF14F0A9
:1029A000F7EF14F03FEC20F078EC21F0000E00017E
:1029B000BA6F020EB96F090E5C6E1E0E5B6EE40EEE
:1029C000E82EFED75B2EFCD75C2EFAD700D0000E87
:1029D000C46E090E5C6E1E0E5B6EE40EE82EFED712
:1029E0005B2EFCD75C2EFAD700D0F7EF14F0020E66
:1029F0000001B919BA11D8A400EF15F002EF15F0D3
:102A000023EF15F096EC1FF0000E0001BA6F000ED8
:102A1000B96F090E5C6E1E0E5B6EE40EE82EFED7DB
:102A20005B2EFCD75C2EFAD700D0000EC46E090EC8
:102A30005C6E1E0E5B6EE40EE82EFED75B2EFCD79E
:102A40005C2EFAD700D07CC00FF07DC010F07EC0A5
:102A500011F07FC012F078C013F079C014F07AC082
:102A600015F07BC016F045EC12F00FC0BBF010C0A3
:102A7000BCF011C0BDF012C0BEF0000E016E000E21
:102A8000026E400E036E410E046EB1C005F0B2C07E
:102A900006F0B3C007F0B4C008F0A0EC1CF0D8B04A
:102AA00054EF15F056EF15F0E7EF15F0000EBE6E7F
:102AB000B7C067FF0001B74BB82B3FEC20F03BECF1
:102AC0001FF07CC00FF07DC010F07EC011F07FC001
:102AD00012F078C013F079C014F07AC015F07BC002
:102AE00016F045EC12F00FC0BFF010C0C0F011C0DE
:102AF000C1F012C0C2F0BBC001F0BCC002F0BDC04A
:102B000003F0BEC004F0BFC005F0C0C006F0C1C0F5
:102B100007F0C2C008F0A0EC1CF0D8B092EF15F09E
:102B200094EF15F09EEF15F0BFC0BBF0C0C0BCF035
:102B3000C1C0BDF0C2C0BEF0E7EF15F00001B75153
:102B4000FE0F676E3FEC20F03BEC1FF07CC00FF0F7
:102B50007DC010F07EC011F07FC012F078C013F07D
:102B600079C014F07AC015F07BC016F045EC12F075
:102B70000FC0BFF010C0C0F011C0C1F012C0C2F051
:102B8000BBC001F0BCC002F0BDC003F0BEC004F089
:102B9000BFC005F0C0C006F0C1C007F0C2C008F059
:102BA000A0EC1CF0D8B0D7EF15F0D9EF15F0E7EF97
:102BB00015F0BFC0BBF0C0C0BCF0C1C0BDF0C2C00A
:102BC000BEF0E7EF15F0E7EF15F0E7EF15F0000EB8
:102BD000016E000E026E400E036E410E046EB1C017
:102BE00005F0B2C006F0B3C007F0B4C008F0A0EC26
:102BF0001CF0D8A0FEEF15F000EF16F099EF14F0DE
:102C0000800E676EB5C0BEFF0001B54BB62B3FEC22
:102C100020F03BEC1FF07CC00FF07DC010F07EC0B8
:102C200011F07FC012F078C013F079C014F07AC0B0
:102C300015F07BC016F045EC12F00FC0BFF010C0CD
:102C4000C0F011C0C1F012C0C2F0BBC001F0BCC0E6
:102C500002F0BDC003F0BEC004F0BFC005F0C0C0AC
:102C600006F0C1C007F0C2C008F0A0EC1CF0D8B05C
:102C70003CEF16F03EEF16F048EF16F0BFC0BBF089
:102C8000C0C0BCF0C1C0BDF0C2C0BEF099EF14F02E
:102C90000001B551FE0FBE6E3FEC20F03BEC1FF083
:102CA0007CC00FF07DC010F07EC011F07FC012F02C
:102CB00078C013F079C014F07AC015F07BC016F01C
:102CC00045EC12F00FC0BFF010C0C0F011C0C1F051
:102CD00012C0C2F0BBC001F0BCC002F0BDC003F026
:102CE000BEC004F0BFC005F0C0C006F0C1C007F010
:102CF000C2C008F0A0EC1CF0D8B081EF16F083EF52
:102D000016F099EF14F0BFC0BBF0C0C0BCF0C1C05A
:102D1000BDF0C2C0BEF099EF14F099EF14F099EF36
:102D200014F099EF14F099EF14F000EF00F0045054
:102D3000800B0D6E04500424186E03AEA2EF16F043
:102D4000A4EF16F0A7EF16F01880A7EF16F01850B2
:102D5000D8B4ADEF16F0AFEF16F0C6EF16F01828A6
:102D6000D8A4B5EF16F0B7EF16F0C1EF16F0000ECD
:102D7000016E000E026E000E036E000E046EC1EFB7
:102D800016F0038E000E046ED0EF16F0000E016EEA
:102D9000000E026E000E036E000E046ED0EF16F0F1
:102DA0000850800B0D1A08500824196E07AEDBEF8F
:102DB00016F0DDEF16F0E0EF16F01980E0EF16F0F8
:102DC0001950D8B4E6EF16F0E8EF16F0FFEF16F062
:102DD0001928D8A4EEEF16F0F0EF16F0FAEF16F07F
:102DE000000E056E000E066E000E076E000E086ED9
:102DF000FAEF16F0078E000E086E09EF17F0000EBE
:102E0000056E000E066E000E076E000E086E09EFCE
:102E100017F00550061007100810D8A412EF17F08D
:102E200014EF17F02CEF17F0000E016E000E026E7B
:102E3000000E036E000E046E800E03127F0E04124D
:102E400001C001F002C002F003C003F004C004F0AE
:102E5000A4EF18F0A4EF18F01850D8A432EF17F030
:102E600034EF17F048EF17F0000E016E000E026EFF
:102E7000000E036E000E046E01C001F002C002F0ED
:102E800003C003F004C004F0A4EF18F0A4EF18F09E
:102E90001950096E0A6A091E0A1E094A0A2A1850A0
:102EA0000B6E0C6A09500B260A500C227F0E0B2465
:102EB000126E000E0C20136E01C00EF002C00FF057
:102EC00003C010F004C011F0000E016E000E026E7F
:102ED000000E036E000E046E000E146E000E156ED2
:102EE000000E166E000E176E000E196EB4EF17F07E
:102EF0001950D8B47EEF17F080EF17F099EF17F064
:102F0000D8900E360F3610361136D890013602366C
:102F10000336043617AE8FEF17F091EF17F092EFEC
:102F200017F00180D890143615361636173699EFFB
:102F300017F005500E5C06500F58075010580850F7
:102F40001158D8A0A6EF17F0A8EF17F0B3EF17F0BD
:102F5000178C05500E5E06500F5A0750105A085035
:102F6000115AB3EF17F0192A190E1964BAEF17F0B6
:102F7000BCEF17F078EF17F0BEEF17F00E500F1000
:102F800010101110D8B4C7EF17F0C9EF17F0E5EF24
:102F900017F01480E5EF17F0E5EF17F0D890013641
:102FA00002360336043617AED8EF17F0DAEF17F013
:102FB000DBEF17F00180D890143615361636173629
:102FC0001206D8A01306E5EF17F003AEEAEF17F0EC
:102FD000ECEF17F0CEEF17F0EEEF17F0000E196ED2
:102FE00017AEF5EF17F0F7EF17F01FEF18F0FF0E21
:102FF0001414096EFF0E15140A6EFF0E16140B6ED4
:103000007F0E17140C6E09500A100B100C10D8B458
:103010000CEF18F00EEF18F012EF18F0010E196E09
:103020001FEF18F001A017EF18F019EF18F01FEFBD
:1030300018F0010E196E1FEF18F01FEF18F019505D
:10304000D8B425EF18F027EF18F04FEF18F0010E65
:103050000126000E02220322042204A032EF18F0FF
:1030600034EF18F04FEF18F001C009F002C00AF079
:1030700003C00BF004C00CF00C340C320B320A32DB
:10308000093209C001F00AC002F00BC003F00CC005
:1030900004F0124A132A4FEF18F04FEF18F013BE46
:1030A0005AEF18F0135008E11228D8A05AEF18F080
:1030B0005CEF18F069EF18F0000E136E1268000E46
:1030C000016E000E026E000E036E000E046E69EFBC
:1030D00018F013BE76EF18F0135006E11204D8B0C2
:1030E00074EF18F076EF18F086EF18F0000E136EFC
:1030F000000E126E000E016E000E026E000E036EC8
:10310000000E046E000E0D6E86EF18F012C018F05F
:1031100018A08DEF18F08FEF18F092EF18F0038ED3
:1031200095EF18F0039E95EF18F0D8901830046EC4
:103130000D50041201C001F002C002F003C003F000
:1031400004C004F0A4EF18F01200346E6D0E346465
:10315000ACEF18F0AEEF18F05FEF19F0000E0A6E4A
:103160000A0E096E000E046E640E036E34C001F088
:10317000026A73EC1EF001C007F002C008F0FDEC1B
:103180001DF0D89007360836D89007360836240E3A
:103190000726000E0822350E0724F66E100E0820B2
:1031A000F76E0900F5CF13F00900F5CF14F0090010
:1031B000F5CF15F00A00F5CF16F0000E0A6E640E7A
:1031C000096E34C007F0086AFDEC1DF0D890073690
:1031D0000836D89007360836480E0726000E082213
:1031E000350E0724F66E100E0820F76E0900F5CF95
:1031F0000FF00900F5CF10F00900F5CF11F00A002B
:10320000F5CF12F045EC12F00FC030F010C031F0E5
:1032100011C032F012C033F0000E046E0A0E036EBD
:1032200034C001F0026A73EC1EF0D8900136023609
:10323000D89001360236350E0124F66E100E0220AB
:10324000F76E0900F5CF13F00900F5CF14F009006F
:10325000F5CF15F00A00F5CF16F030C00FF031C0F1
:1032600010F032C011F033C012F045EC12F00FC074
:103270002CF010C02DF011C02EF012C02FF02CC079
:103280000FF02DC010F02EC011F02FC012F0000E64
:10329000136E000E146E000E156E3F0E166E45EC8A
:1032A00012F00FC028F010C029F011C02AF012C08F
:1032B0002BF0FFEF19F0FFEF19F0D7EF19F00A0E1E
:1032C000346465EF19F067EF19F0D7EF19F0000ECD
:1032D000046E0A0E036E34C001F0026A73EC1EF035
:1032E000D89001360236D89001360236350E0124C8
:1032F000F66E100E0220F76E0900F5CF13F00900EC
:10330000F5CF14F00900F5CF15F00A00F5CF16F04F
:10331000000E0A6E0A0E096E34C007F0086AFDEC52
:103320001DF0D89007360836D89007360836240E98
:103330000726000E0822350E0724F66E100E082010
:10334000F76E0900F5CF0FF00900F5CF10F0090076
:10335000F5CF11F00A00F5CF12F045EC12F00FC0D6
:1033600030F010C031F011C032F012C033F030C074
:103370000FF031C010F032C011F033C012F0000E67
:10338000136E000E146E000E156E3F0E166E45EC99
:1033900012F00FC028F010C029F011C02AF012C09E
:1033A0002BF0FFEF19F0FFEF19F0D7EF19F03450C1
:1033B000040D350EF324F66E100EF420F76E09009E
:1033C000F5CF0FF00900F5CF10F00900F5CF11F09F
:1033D0000A00F5CF12F0000E136E000E146E000EF0
:1033E000156E3F0E166E45EC12F00FC028F010C09F
:1033F00029F011C02AF012C02BF0FFEF19F01200D3
:10340000096E0950D8B407EF1AF009EF1AF02BEF44
:103410001AF004BE10EF1AF00EEF1AF02BEF1AF0AC
:1034200001C005F002C006F003C007F004C008F0B8
:10343000051E061E071E081E052A000E062207226C
:10344000082205C00BF006C00CF007C00DF008C044
:103450000EF035EF1AF001C00BF002C00CF003C003
:103460000DF004C00EF035EF1AF0015002100310F9
:103470000410D8A43EEF1AF040EF1AF04CEF1AF007
:10348000000E016E000E026E000E036E000E046E42
:10349000F2EF1AF0F2EF1AF0960E0A6E58EF1AF0E9
:1034A0000A2AD8900E320D320C320B3258EF1AF035
:1034B000000E0B14056E000E0C14066E000E0D149B
:1034C000076EFE0E0E14086E055006100710081049
:1034D000D8A46DEF1AF06FEF1AF050EF1AF07FEFEB
:1034E0001AF07FEF1AF00A2A010E0B26000E0C22AA
:1034F0000D220E22D8900E320D320C320B32000EFD
:103500000B14056E000E0C14066E000E0D14076EE3
:10351000FF0E0E14086E0550061007100810D8A4F0
:1035200094EF1AF096EF1AF073EF1AF0A2EF1AF078
:10353000A2EF1AF00A06D8900B360C360D360E366E
:10354000A2EF1AF00DBEA7EF1AF0A9EF1AF0B3EF31
:103550001AF0020E0A60AFEF1AF0B1EF1AF09AEF0C
:103560001AF0B3EF1AF00AB0B8EF1AF0BAEF1AF087
:10357000C2EF1AF0FF0E0B16FF0E0C167F0E0D1683
:10358000FF0E0E16D8900A320AC005F0066A076AC6
:10359000086A05C008F0076A066A056A05500B123A
:1035A00006500C1207500D1208500E120950D8B4D4
:1035B000DCEF1AF0DEEF1AF0E8EF1AF004BEE5EFE8
:1035C0001AF0E3EF1AF0E8EF1AF00E8EE8EF1AF0B7
:1035D0000BC001F00CC002F00DC003F00EC004F0EF
:1035E000F2EF1AF0120003C009F00A6A0B6A023403
:1035F000093601E30A800950116E1150D8A403EF77
:103600001BF005EF1BF011EF1BF0000E016E000E1A
:10361000026E000E036E000E046EC9EF1BF0C9EFC0
:103620001BF007C009F00A6A0B6A0634093601E389
:103630000A800950106E1050D8A421EF1BF023EF20
:103640001BF02FEF1BF0000E016E000E026E000E3D
:10365000036E000E046EC9EF1BF0C9EF1BF0028E63
:10366000FF0E0116FF0E0216000E0316068EFF0E49
:103670000516FF0E0616000E0716000E0C6E000E45
:103680000D6E000E0E6E000E0F6E7F0E115E10504E
:10369000980F115E180E106ED8900C360D360E363F
:1036A0000F360550015C0650025807500358D8A049
:1036B0005CEF1BF05EEF1BF065EF1BF00550015E49
:1036C0000650025A0750035A0C80D8900136023631
:1036D0000336102E4CEF1BF06EEF1BF011BE75EF92
:1036E0001BF073EF1BF099EF1BF01150800A970F3E
:1036F000D8B07DEF1BF07FEF1BF08DEF1BF0000EBD
:10370000016E000E026E000E036E000E046EC9EF15
:103710001BF0C9EF1BF08DEF1BF0D8900F320E326B
:103720000D320C32113E8DEF1BF0C1EF1BF0C1EFDB
:103730001BF0170E11649FEF1BF0A1EF1BF0B7EF0A
:103740001BF0000E016E000E026E000E036E000EE6
:10375000046EC9EF1BF0C9EF1BF0B7EF1BF0D89058
:103760000C360D360E360F361106B7EF1BF0115022
:10377000D8A4BDEF1BF0BFEF1BF0AFEF1BF0C1EF04
:103780001BF00CC001F00DC002F00EC003F00FC022
:1037900004F01200033404340E6E0E50D8A4D3EF9C
:1037A0001BF0D5EF1BF0E1EF1BF0000E016E000ED9
:1037B000026E000E036E000E046E9FEF1CF09FEF72
:1037C0001CF0073408340D6E0D50D8A4EAEF1BF03E
:1037D000ECEF1BF0F8EF1BF0000E016E000E026E16
:1037E000000E036E000E046E9FEF1CF09FEF1CF0A6
:1037F000038EFF0E0116FF0E0216FF0E0316000EBB
:103800000416078EFF0E0516FF0E0616FF0E07168E
:10381000000E0816000E096E000E0A6E000E0B6EEA
:10382000000E0C6E7F0E0E5E0D50A00F0E5E200E71
:103830000D6E1BEF1CF0D89009360A360B360C368D
:103840000550015C065002580750035808500458B0
:10385000D8A02DEF1CF02FEF1CF03AEF1CF0055014
:10386000015E0650025A0750035A0850045A098054
:103870003AEF1CF0D89001360236033604360D2E8E
:103880001BEF1CF044EF1CF00EBE4BEF1CF049EF99
:103890001CF06FEF1CF00E50800A9F0FD8B053EF52
:1038A0001CF055EF1CF063EF1CF0000E016E000ED3
:1038B000026E000E036E000E046E9FEF1CF09FEF71
:1038C0001CF063EF1CF0D8900C320B320A32093234
:1038D0000E3E63EF1CF097EF1CF097EF1CF01F0EED
:1038E0000E6475EF1CF077EF1CF08DEF1CF0000EEE
:1038F000016E000E026E000E036E000E046E9FEF4E
:103900001CF09FEF1CF08DEF1CF0D89009360A36A2
:103910000B360C360E068DEF1CF00E50D8A493EF2C
:103920001CF095EF1CF085EF1CF097EF1CF009C020
:1039300001F00AC002F00BC003F00CC004F012004A
:10394000000E0114096E000E02140A6E800E03149C
:103950000B6E7F0E04140C6E09500A100B100C1025
:10396000D8A4B5EF1CF0B7EF1CF0C1EF1CF0000EAF
:10397000016E000E026E000E036E000E046EC1EFAB
:103980001CF0000E0514096E000E06140A6E800E5F
:1039900007140B6E7F0E08140C6E09500A100B10E2
:1039A0000C10D8A4D6EF1CF0D8EF1CF0E2EF1CF0FE
:1039B000000E056E000E066E000E076E000E086EFD
:1039C000E2EF1CF004AEE7EF1CF0E9EF1CF008EFAB
:1039D0001DF001C009F002C00AF003C00BF004C0E2
:1039E0000CF0091E0A1E0B1E0C1E092A000E0A22CC
:1039F0000B220C22000E0924016E000E0A20026E1A
:103A0000000E0B20036E800E0C20046E08EF1DF0DC
:103A100008AE0DEF1DF00FEF1DF02CEF1DF005C0EF
:103A200009F006C00AF007C00BF008C00CF0091E30
:103A30000A1E0B1E0C1E092A000E0A220B220C2243
:103A4000000E0924056E000E0A20066E000E0B20E3
:103A5000076E800E0C20086E000E011A000E021A6E
:103A6000000E031A800E041A000E051A000E061A24
:103A7000000E071A800E081A0550015C0650025805
:103A80000750035808500458D8B049EF1DF04BEFC9
:103A90001DF04EEF1DF0D89053EF1DF0D88053EF7E
:103AA0001DF053EF1DF01200333434343A6E3A50A7
:103AB000D8A45DEF1DF05FEF1DF06BEF1DF0000E61
:103AC000316E000E326E000E336E000E346EFCEF5F
:103AD0001DF0FCEF1DF031C035F032C036F033C0C0
:103AE00037F034C038F0200E7BEF1DF0D89038321C
:103AF000373236323532E82E76EF1DF03550396EDA
:103B0000338EFF0E3116FF0E3216FF0E3316000EE7
:103B10003416960E3A5E3ABE92EF1DF090EF1DF00D
:103B2000B6EF1DF03A50800A970FD8B09AEF1DF00B
:103B30009CEF1DF0AAEF1DF0000E316E000E326EEC
:103B4000000E336E000E346EFCEF1DF0FCEF1DF026
:103B5000AAEF1DF0D89034323332323231323A3E4D
:103B6000AAEF1DF0E0EF1DF0E0EF1DF01F0E3A642C
:103B7000BCEF1DF0BEEF1DF0D4EF1DF0000E316E56
:103B8000000E326E000E336E000E346EFCEF1DF030
:103B9000FCEF1DF0D4EF1DF0D890313632363336BD
:103BA00034363A06D4EF1DF03A50D8A4DAEF1DF0BF
:103BB000DCEF1DF0CCEF1DF0E0EF1DF0E0EF1DF0AD
:103BC0003950D8B4E6EF1DF0E8EF1DF0F2EF1DF02C
:103BD000341E331E321E316C000E32223322342248
:103BE000F2EF1DF031C031F032C032F033C033F0AB
:103BF00034C034F0FCEF1DF01200000E0C6E0ABE53
:103C000006EF1EF004EF1EF00EEF1EF0096C0A1E08
:103C1000D8B00A2A010E0C6E0EEF1EF008BE15EF8A
:103C20001EF013EF1EF01DEF1EF0076C081ED8B03B
:103C3000082A010E0C1A1DEF1EF0000E0E6E000E6B
:103C40000D6E09500A10D8B428EF1EF02AEF1EF0AE
:103C50005EEF1EF0010E0B6E34EF1EF0D8900936A9
:103C60000A360B2A34EF1EF00AAE39EF1EF03BEF96
:103C70001EF02EEF1EF03FEF1EF03FEF1EF0D8902B
:103C80000D360E360950075C0A500858D8A04BEF85
:103C90001EF04DEF1EF054EF1EF00950075E0A5063
:103CA000085A0D8054EF1EF0D8900A3209320B2EBC
:103CB0003FEF1EF05EEF1EF05EEF1EF00C50D8B42A
:103CC00064EF1EF066EF1EF06CEF1EF00D6C0E1E22
:103CD000D8B00E2A6CEF1EF00DC007F00EC008F031
:103CE00072EF1EF01200000E066E02BE7CEF1EF098
:103CF0007AEF1EF084EF1EF0016C021ED8B0022A8B
:103D0000010E066E84EF1EF004BE8BEF1EF089EFED
:103D10001EF091EF1EF0036C041ED8B0042A91EF40
:103D20001EF003500410D8B498EF1EF09AEF1EF066
:103D3000CAEF1EF0010E056EA4EF1EF0D8900336F8
:103D40000436052AA4EF1EF004AEA9EF1EF0ABEF77
:103D50001EF09EEF1EF0AFEF1EF0AFEF1EF003500F
:103D6000015C04500258D8A0B8EF1EF0BAEF1EF064
:103D7000C0EF1EF00350015E0450025AC0EF1EF067
:103D8000D89004320332052EAFEF1EF0CAEF1EF0BA
:103D9000CAEF1EF00650D8B4D0EF1EF0D2EF1EF0DE
:103DA000D8EF1EF0016C021ED8B0022AD8EF1EF028
:103DB00001C001F002C002F0DEEF1EF01200000EA2
:103DC000096E000E0A6E000E0B6E000E0C6E055092
:103DD000061007100810D8B4F0EF1EF0F2EF1EF036
:103DE00032EF1FF0010E0D6EFEEF1EF0D89005367B
:103DF0000636073608360D2AFEEF1EF008AE03EF32
:103E00001FF005EF1FF0F6EF1EF009EF1FF009EFAE
:103E10001FF0D89009360A360B360C360550015C77
:103E2000065002580750035808500458D8A01BEFFA
:103E30001FF01DEF1FF028EF1FF00550015E065028
:103E4000025A0750035A0850045A098028EF1FF0FD
:103E5000D89008320732063205320D2E09EF1FF0D6
:103E600032EF1FF009C001F00AC002F00BC003F0EE
:103E70000CC004F01200070EC26ED00E286ECA0EDF
:103E8000E82EFED7282EFCD7C282090E296E1E0E00
:103E9000286EE40EE82EFED7282EFCD7292EFAD75E
:103EA00000D0C450016E026A036A046A000E00EC7E
:103EB0001AF001C06CF002C06DF003C06EF004C0D7
:103EC0006FF06CC00FF06DC010F06EC011F06FC0DD
:103ED00012F0000E136E000E146EA00E156E3C0E46
:103EE000166E45EC12F00FC068F010C069F011C0FA
:103EF0006AF012C06BF068C001F069C002F06AC0DD
:103F000003F06BC004F0000E056E000E066E800E0E
:103F1000076E3E0E086E97EC16F001C07CF002C0F2
:103F20007DF003C07EF004C07FF012000F0EC26E61
:103F3000D00E286ECA0EE82EFED7282EFCD7C282DD
:103F4000090E296E1E0E286EE40EE82EFED7282ECE
:103F5000FCD7292EFAD700D0C450016E026A036A3A
:103F6000046A000E00EC1AF001C06CF002C06DF0A3
:103F700003C06EF004C06FF06CC00FF06DC010F0A5
:103F80006EC011F06FC012F0000E136E000E146EB2
:103F9000A00E156E3C0E166E45EC12F00FC068F0C8
:103FA00010C069F011C06AF012C06BF068C001F077
:103FB00069C002F06AC003F06BC004F0CD0E056E5C
:103FC000CC0E066E4C0E076E3E0E086E97EC16F089
:103FD00001C080F002C081F003C082F004C083F011
:103FE00012000550061007100810D8B4FAEF1FF0A1
:103FF000FCEF1FF036EF20F0010E096E08EF20F005
:10400000D8900536063607360836092A08EF20F01C
:1040100008AE0DEF20F00FEF20F000EF20F013EFCF
:1040200020F013EF20F00550015C065002580750B5
:10403000035808500458D8A020EF20F022EF20F0B9
:104040002CEF20F00550015E0650025A0750035A2B
:104050000850045A2CEF20F0D8900832073206326C
:104060000532092E13EF20F036EF20F001C001F0E9
:1040700002C002F003C003F004C004F012000B0EF3
:10408000C26ED00E286ECA0EE82EFED7282EFCD7A0
:10409000C282090E296E1E0E286EE40EE82EFED78F
:1040A000282EFCD7292EFAD700D0C450016E026A00
:1040B000036A046A000E00EC1AF001C074F002C03A
:1040C00075F003C076F004C077F074C00FF075C0CF
:1040D00010F076C011F077C012F0950E136E940EAA
:1040E000146E940E156E3C0E166E45EC12F00FC059
:1040F00070F010C071F011C072F012C073F070C097
:1041000078F071C079F072C07AF073C07BF0120061
:10411000000E0D6E000E0C6EABEF20F00C5008245C
:104120000A6E0D5009200B6E0AC0F6FF0BC0F7FF98
:10413000000EF86E0F0EF76403D00800F55005D09E
:10414000F6CFE9FFF7CFEAFFEF50D5EC21F00C4AAC
:104150000D2AABEF20F00C5008240A6E0D500920F8
:104160000B6E0AC0F6FF0BC0F7FF000EF86E0F0EC5
:10417000F76403D00800F55005D0F6CFE9FFF7CF7C
:10418000EAFFEF500009D8A4C8EF20F0CAEF20F0F2
:104190008EEF20F0CCEF20F01200000E30EC23F078
:1041A000020E0C6EA00E0B6E920EE82EFED70B2E9A
:1041B000FCD70C2EFAD700D0030E01EC22F0680ECB
:1041C0000B6EE40EE82EFED70B2EFCD700D0030EAC
:1041D00001EC22F0E50E0B6E910EE82EFED70B2EB1
:1041E000FCD700F0030E01EC22F0020E01EC22F0ED
:1041F000020E01EC22F0080E01EC22F0000E01ECA0
:1042000022F00C0E01EC22F0000E01EC22F0060E62
:1042100001EC22F012000C6E0C04D8A412EF21F075
:1042200014EF21F025EF21F00B507F0F0F6E0F38A8
:104230000F0B0D6E0F500F0B0E6E0D5001EC22F098
:104240000E5001EC22F041EF21F0020E0C18D8A420
:104250002CEF21F02EEF21F041EF21F00B50BF0F9A
:104260000F6E0F380F0B0D6E0F500F0B0E6E0D50A3
:1042700001EC22F00E5001EC22F041EF21F041EF71
:1042800021F0120094869488A00E0E6E860E0F6E9A
:10429000010E106E000E116EA7EC21F0090E176EC4
:1042A0001E0E166EE40EE82EFED7162EFCD7172E25
:1042B000FAD700D0CDEC20F05AEC23F061EC23F0DB
:1042C000010E0B6E010E0BEC21F0960E086E100E17
:1042D000096E88EC20F0090E176E1E0E166EE40EA5
:1042E000E82EFED7162EFCD7172EFAD700D01200D4
:1042F000010E0B6E020E0BEC21F09F0E086E100EDD
:10430000096E88EC20F0880E516E000E526E910EF0
:10431000536E100E546E78C055F079C056F07AC0C6
:1043200057F07BC058F056EC08F0030E0B6E020EEF
:104330000BEC21F0880E086E000E096E88EC20F060
:10434000A50E086E100E096E88EC20F01200280EE3
:10435000C66E000EC56E000E016E900E026ED00E7F
:10436000036E030E046E0EC012F00FC013F010C0E7
:1043700014F011C015F0020ED89012361336143610
:104380001536E82EBCEF21F012C005F013C006F080
:1043900014C007F015C008F0DFEC1EF00104C86E71
:1043A000000EC76E948694881200056E05500F0BA0
:1043B000076E0738F00B076E0550F00B066E010E06
:1043C00030EC23F0065030EC23F00650050930ECB9
:1043D00023F0D50EE82EFED700F00650010930EC90
:1043E00023F0075030EC23F00750050930EC23F0A0
:1043F000D50EE82EFED700F00750010930EC23F06F
:1044000012000A6E0A38F00B0A6E010E076E000EDB
:10441000076E0BEF22F0075030EC23F00A5030EC1F
:1044200023F0040E0AC005F0066A0510086E065057
:10443000096E085030EC23F0540E056E1C0EE82E69
:10444000FED7052EFCD700D00AC008F0096A085034
:1044500030EC23F012009268000E936E000E946E02
:10446000000E956E9668000E806E000E816E000E36
:10447000826E000E836E000E846E000E896E000E3A
:104480008A6E000E8B6E000E8C6E000E8D6E0F010C
:104490003869000E396F000E3A6F000E3B6F000E48
:1044A0003C6F740ED36E9B8C1200010E0B6E010ECE
:1044B0000BEC21F0A20E086E100E096E88EC20F0B5
:1044C000900E516E000E526E910E536E100E546E81
:1044D0007CC055F07DC056F07EC057F07FC058F0CC
:1044E00056EC08F0030E0B6E010E0BEC21F0900E53
:1044F000086E000E096E88EC20F01200000E4D1AB6
:10450000000E4E1A000E4F1A800E501A49C035F098
:104510004AC036F04BC037F04CC038F04DC039F0CF
:104520004EC03AF04FC03BF050C03CF034EC0DF0C0
:1045300035C049F036C04AF037C04BF038C04CF0B7
:10454000A2EF22F01200000E016E000E026E400E6D
:10455000036E410E046E0DC005F00EC006F00FC0D4
:1045600007F010C008F0A0EC1CF0D8B0BAEF22F0B1
:10457000BCEF22F0C6EF22F0000E5E6E000E5D6E04
:104580005DC067FFC6EF22F0C6EF22F012000150B7
:10459000021003100410D8B4D0EF22F0D2EF22F0B2
:1045A000DCEF22F0000E011A000E021A000E031AB0
:1045B000800E041ADCEF22F001C001F002C002F00C
:1045C00003C003F004C004F0E6EF22F01200036E13
:1045D000000E026E3A0E0360F0EF22F0F2EF22F0CE
:1045E000FEEF22F02F0E0364F8EF22F0FAEF22F034
:1045F000FEEF22F0010E026EFEEF22F002C001F08B
:10460000013003EF23F0120006EF23F0C7B40BEFE5
:1046100023F00DEF23F006EF23F0C5CF01F01F0EBE
:104620000116D8A416EF23F018EF23F006EF23F0BD
:104630001AEF23F0120001500302F3CF05F0F4CF7C
:1046400006F001500402F350062602500302F35014
:10465000062605C001F006C002F02FEF23F012007D
:10466000046E77EC23F0000E036E700E026E6EEC9B
:1046700023F004C002F0036A6EEC23F073EC23F025
:10468000120000EE60F0380EEE6AE806FDE15E6AA8
:104690005D6A000EF86E00017CEF14F0000E0F0151
:1046A000496F0C0E666E0C0EBD6E7D0EBA6EA00EBE
:1046B000BB6E1200000E01EC22F0010E01EC22F0A4
:1046C0001200000E01EC22F00C0E01EC22F01200A0
:1046D000800EC16E3E0EC06EC09E120004EC23F030
:1046E00002C0C9FF120004EC23F0C584120004ECE0
:0646F00023F0C58012005A
:020000040020DA
:08000000FFFFFFFFFFFFFFFF00
:020000040030CA
:0E000000FF18193CFFBF80FF0FC00FE00F403C
:00000001FF
