:0400000094EF22F067
:10100000000000803F000020410000C84200007A3C
:101010004400401C460050C3470024744980961881
:101020004B20BCBE4C286B6E4EF9021550EC78ADCF
:1010300060CAF249710000803FCDCCCC3D0AD72375
:101040003C6F12833A17B7D138ACC52737BD378606
:101050003595BFD63377CC2B325F708930FFE6DB16
:101060002E08E53C1E6042A20D010000000A0000AF
:101070000064000000E803000010270000A08601C3
:101080000040420F008096980000E1F50500CA9AE2
:101090003B252E326600546573740055693D004946
:1010A0003D00553D0020410020560000550E000136
:1010B0009C6F000E9D6F16EF0DF0250EB019D8B481
:1010C00064EF08F066EF08F070EF08F051C0D9FF48
:1010D00052C0DAFFB0C0DFFF514A522A16EF0DF0BE
:1010E000000E9F6F000E9E6F53C0F6FF54C0F7FFB7
:1010F0000800F5502E0AD8A480EF08F082EF08F01F
:10110000BCEF08F09F8D534A542A000EAB6F000EBF
:10111000AA6FA9EF08F0AAC001F0ABC002F0000E60
:10112000046E0A0E036E6EEC22F053C0F6FF54C03C
:10113000F7FF0800F5500126000E0222D00E012410
:101140000001AA6FFF0E0220AB6F534A542AA9EF89
:1011500008F053C0F6FF54C0F7FF0800F5503AEC12
:1011600022F0D8B0B6EF08F0B8EF08F08BEF08F037
:10117000CFEF08F0CFEF08F0000E0001AB6F000ECC
:10118000AA6F9F89CFEF08F0CFEF08F02BEF0DF09B
:101190009F85E4EF08F016EF0DF0E4EF08F053C080
:1011A000F6FF54C0F7FF534A542A0800F5CFB0F0B9
:1011B0000001B051000AD8B42BEF0DF0660AD8B484
:1011C000C8EF08F016EF0DF0070E9F15D8B4EBEF3F
:1011D00008F0EDEF08F0B6EF0CF09FA9F2EF08F081
:1011E000F4EF08F0FAEF08F0000EAB6F060EAA6FEE
:1011F000FAEF08F09CC0D9FF9DC0DAFFDECFACF05B
:10120000DECFADF0DECFAEF0DECFAFF0040E9C2728
:10121000000E9D23AFBF11EF09F00FEF09F028EF8B
:1012200009F0ACC001F0ADC002F0AEC003F0AFC039
:1012300004F01AEC22F001C0ACF002C0ADF003C023
:10124000AEF004C0AFF0030E00019E1328EF09F0CA
:10125000000EA56F000EA46FAC51AD11AE11AF1111
:10126000D8B435EF09F037EF09F0D1EF09F0AE351A
:10127000AF35820FA46FA56BFF0EA523A407D8A0DE
:10128000A507A4C001F0A5C002F0000E046E030E75
:10129000036E6EEC22F001C0A4F002C0A5F0A4C061
:1012A00007F0A5C008F0000E0A6E0A0E096E50EC99
:1012B0001DF007C0A4F008C0A5F00001A5BF65EFB0
:1012C00009F063EF09F06AEF09F0A407D8A0A507B9
:1012D0006AEF09F0A4510008F7EC0FF028C0A6F05F
:1012E00029C0A7F02AC0A8F02BC0A9F0A6C00FF013
:1012F000A7C010F0A8C011F0A9C012F0ACC013F044
:10130000ADC014F0AEC015F0AFC016F045EC12F051
:101310000FC0A6F010C0A7F011C0A8F012C0A9F02D
:10132000A6C001F0A7C002F0A8C003F0A9C004F055
:10133000000E056E000E066E800E076E3F0E086EE4
:10134000F3EC1BF0D8B0A7EF09F0A9EF09F0AFEF6D
:1013500009F00001A407D8A0A507D1EF09F0A6C0A5
:1013600001F0A7C002F0A8C003F0A9C004F0000E6D
:10137000056E000E066E200E076E410E086EF3EC31
:101380001BF0D8A0C6EF09F0C8EF09F0D1EF09F0C3
:101390000001A44BA52BD1EF09F0D1EF09F0D1EF5B
:1013A00009F00001ABBFE0EF09F0AB5107E10D0E12
:1013B000AA5DD8B0DEEF09F0E0EF09F0FFEF09F029
:1013C000ACC035F0ADC036F0AEC037F0AFC038F0CD
:1013D000AA51F8EC17F028C039F029C03AF02AC019
:1013E0003BF02BC03CF034EC0DF035C0ACF036C017
:1013F000ADF037C0AEF038C0AFF0FFEF09F000013C
:10140000A5BF0EEF0AF0A55107E10A0EA45DD8B002
:101410000CEF0AF00EEF0AF03FEF0AF0AC51AD11FD
:10142000AE11AF11D8B417EF0AF019EF0AF0B4EF0C
:101430000AF0ACC031F0ADC032F0AEC033F0AFC096
:1014400034F0A7EC1CF03150321033103410D8A413
:101450002CEF0AF02EEF0AF0B4EF0AF00001A5BF5E
:101460003BEF0AF0A55109E1020EA45DD8A03BEFC5
:101470000AF03DEF0AF0B4EF0AF03FEF0AF0A6C021
:1014800001F0A7C002F0A8C003F0A9C004F05F0EED
:10149000056E700E066E890E076E400E086EF3EC38
:1014A0001BF0D8B056EF0AF058EF0AF05FEF0AF0E1
:1014B0000001F70EA427FF0EA52366EF0AF0000136
:1014C000F80EA427FF0EA52366EF0AF0A451F7EC4F
:1014D0000FF028C0A6F029C0A7F02AC0A8F02BC0A2
:1014E000A9F0ACC001F0ADC002F0AEC003F0AFC0D7
:1014F00004F0A6C005F0A7C006F0A8C007F0A9C078
:1015000008F01DEC1BF001C0A0F002C0A1F003C068
:10151000A2F004C0A3F0A9EF0AF0ACC001F0ADC086
:1015200002F0AEC003F0AFC004F0A6C005F0A7C043
:1015300006F0A8C007F0A9C008F046EC1AF001C0F8
:10154000A0F002C0A1F003C0A2F004C0A3F0A9EF74
:101550000AF0000E0001AC6F000EAD6F000EAE6F12
:10156000000EAF6FF2EF0AF0ACC031F0ADC032F058
:10157000AEC033F0AFC034F0A7EC1CF031C0A0F027
:1015800032C0A1F033C0A2F034C0A3F0ACC049F027
:10159000ADC04AF0AEC04BF0AFC04CF0A0C001F0FF
:1015A000A1C002F0A2C003F0A3C004F0000E53ECEF
:1015B00019F001C04DF002C04EF003C04FF004C05E
:1015C00050F0D1EC21F049C0ACF04AC0ADF04BC0B6
:1015D000AEF04CC0AFF0000E0001A56F000EA46F7E
:1015E000F2EF0AF0010EB06F0A0EB019D8A4FBEFAB
:1015F0000AF0FDEF0AF001EF0BF02CEF0BF02CEFEF
:101600000BF0B051040D690EF324F66E100EF420A9
:10161000F76E0900F550A05D0900F550A1590900C9
:10162000F550A2590900F550A359D8B01AEF0BF0A4
:101630001CEF0BF020EF0BF02CEF0BF02CEF0BF06E
:10164000B02B0A0EB019D8A428EF0BF02AEF0BF03C
:1016500001EF0BF02CEF0BF0030E9E15596E000EF0
:101660009F155A6E59505A10D8B439EF0BF03BEF12
:101670000BF093EF0BF051C0D9FF52C0DAFF2D0EE3
:10168000DF6E514A522A93EF0BF093EF0BF0A0C09C
:1016900001F0A1C002F0A2C003F0A3C004F0B05159
:1016A000040D690EF324F66E100EF420F76E090097
:1016B000F5CF05F00900F5CF06F00900F5CF07F0EA
:1016C0000A00F5CF08F032EC1EF001C0A6F002C00F
:1016D000A7F003C0A8F004C0A9F0A6C001F0A7C0FD
:1016E00002F0A8C003F0A9C004F00A0E056E000EB7
:1016F000066E000E076E000E086E44EC1FF001C06F
:10170000A6F002C0A7F003C0A8F004C0A9F0000131
:10171000A651300F51C0D9FF52C0DAFFDF6E514AD7
:10172000522A93EF0BF0B007B029D8A49AEF0BF030
:101730009CEF0BF047EF0BF0ADEF0BF0ADEF0BF0C4
:1017400051C0D9FF52C0DAFF300EDF6E514A522A23
:10175000A407D8A0A507ADEF0BF0A5BFBAEF0BF01B
:10176000A55106E1A405D8B0B8EF0BF0BAEF0BF025
:10177000A0EF0BF0BCEF0BF0ABBFC8EF0BF0AB5121
:1017800009E1090EAA5DD8A0C8EF0BF0CAEF0BF073
:10179000CEEF0BF0080EB06FD2EF0BF0AAC0B0F096
:1017A000D2EF0BF0B051AA5F000EB0BFFF0EAB5BE3
:1017B000B051D8B4DEEF0BF0E0EF0BF0EAEF0BF036
:1017C00051C0D9FF52C0DAFF2E0EDF6E514A522AA5
:1017D000EAEF0BF0B051F7EC0FF028C098F029C0F9
:1017E00099F02AC09AF02BC09BF0ACC013F0ADC0AA
:1017F00014F0AEC015F0AFC016F098C00FF099C04D
:1018000010F09AC011F09BC012F045EC12F00FC01E
:1018100031F010C032F011C033F012C034F0A7EC38
:101820001CF031C0A0F032C0A1F033C0A2F034C02F
:10183000A3F08EEF0CF0A0C001F0A1C002F0A2C096
:1018400003F0A3C004F00001B051040D690EF324AD
:10185000F66E100EF420F76E0900F5CF05F00900C2
:10186000F5CF06F00900F5CF07F00A00F5CF08F034
:1018700032EC1EF001C0A6F002C0A7F003C0A8F031
:1018800004C0A9F0A6C001F0A7C002F0A8C003F0F0
:10189000A9C004F00A0E056E000E066E000E076E5B
:1018A000000E086E44EC1FF001C0A6F002C0A7F0C5
:1018B00003C0A8F004C0A9F00001A651300F51C028
:1018C000D9FF52C0DAFFDF6E514A522AA0C001F0A0
:1018D000A1C002F0A2C003F0A3C004F0B051040DF7
:1018E000690EF324F66E100EF420F76E0900F5CFA2
:1018F00005F00900F5CF06F00900F5CF07F00A0062
:10190000F5CF08F044EC1FF001C0A0F002C0A1F038
:1019100003C0A2F004C0A3F08EEF0CF00001B007EA
:10192000B029D8A496EF0CF098EF0CF01BEF0CF058
:10193000A9EF0CF0A9EF0CF051C0D9FF52C0DAFFAB
:10194000300EDF6E514A522AAA07D8A0AB07A9EF82
:101950000CF0AA51AB11D8A4B0EF0CF0B2EF0CF020
:101960009CEF0CF016EF0DF016EF0DF0AA51AB1135
:10197000D8A4BDEF0CF0BFEF0CF0CEEF0CF0A051EF
:10198000A111A211A311D8A4C8EF0CF0CAEF0CF05A
:10199000CEEF0CF0AA4BAB2BCEEF0CF0800EB0BF0D
:1019A0007F0E596EAA51B05DAB51800A5958D8B01C
:1019B000DCEF0CF0DEEF0CF0E2EF0CF0AAC0B0F0C0
:1019C000FBEF0CF0AB51800A596EB051AA5D800E4E
:1019D000B0BF7F0E5958D8B0F0EF0CF0F2EF0CF01A
:1019E000FBEF0CF0B051AA6FAB6BAABFAB07FBEFDC
:1019F0000CF0FBEF0CF0030E9E15596E000E9F15B8
:101A00005A6E59505A10D8B408EF0DF00AEF0DF085
:101A100016EF0DF051C0D9FF52C0DAFF2D0EDF6E68
:101A2000514A522A16EF0DF016EF0DF053C0F6FF93
:101A300054C0F7FF534A542A0800F5CFB0F0B05114
:101A4000D8A425EF0DF027EF0DF05DEF08F02BEF98
:101A50000DF02BEF0DF051C0D9FF52C0DAFF000E90
:101A6000DF6E33EF0DF012003850800B456E3850AA
:101A70003824476E37AE3FEF0DF041EF0DF044EFE5
:101A80000DF0478044EF0DF04750D8B44AEF0DF009
:101A90004CEF0DF063EF0DF04728D8A452EF0DF096
:101AA00054EF0DF05EEF0DF0000E356E000E366E49
:101AB000000E376E000E386E5EEF0DF0378E000EA2
:101AC000386E6DEF0DF0000E356E000E366E000EA6
:101AD000376E000E386E6DEF0DF03C50800B466E89
:101AE00045504618D8B477EF0DF079EF0DF07CEF44
:101AF0000DF0458C7CEF0DF03C503C24466E3BAE27
:101B000084EF0DF086EF0DF089EF0DF0468089EF40
:101B10000DF04650D8B48FEF0DF091EF0DF0A8EF17
:101B20000DF04628D8A497EF0DF099EF0DF0A3EF34
:101B30000DF0000E396E000E3A6E000E3B6E000E78
:101B40003C6EA3EF0DF03B8E000E3C6EB2EF0DF03D
:101B5000000E396E000E3A6E000E3B6E000E3C6EAB
:101B6000B2EF0DF04750465CD8B0B9EF0DF0BBEFC7
:101B70000DF0E6EF0DF045ACC0EF0DF0C2EF0DF04B
:101B8000C6EF0DF0800E451AC6EF0DF047C048F0C5
:101B900046C047F048C046F035C048F039C035F07F
:101BA00048C039F036C048F03AC036F048C03AF084
:101BB00037C048F03BC037F048C03BF038C048F071
:101BC0003CC038F048C03CF0E6EF0DF0000E486E27
:101BD00047503D6E3E6A3D1E3E1E3D4A3E2A4650DF
:101BE0003F6E406A3D503F263E50402240BE02EFCD
:101BF0000EF0405009E11A0E3F5CD8A002EF0EF043
:101C000004EF0EF041EF0EF035503610371038105B
:101C1000D8A40DEF0EF010EF0EF0010E11EF0EF044
:101C2000000E486E000E356E000E366E000E376EDA
:101C3000000E386E46C047F04CEF0EF041EF0EF04C
:101C400048A025EF0EF027EF0EF02DEF0EF0D89004
:101C500048300109486E31EF0EF0D890483231EF2C
:101C60000EF035A036EF0EF038EF0EF03BEF0EF031
:101C7000488E3BEF0EF03834383237323632353258
:101C8000472A4650475CD8A048EF0EF04AEF0EF0C6
:101C900020EF0EF04CEF0EF045BC51EF0EF053EF7D
:101CA0000EF09CEF0EF04750D8A459EF0EF05BEF0A
:101CB0000EF067EF0EF0000E356E000E366E000E61
:101CC000376E000E386EF6EF0FF0F6EF0FF039506A
:101CD00035263A5036223B5037223C50382238A025
:101CE00074EF0EF076EF0EF04CEF0FF048A07BEFA4
:101CF0000EF07DEF0EF084EF0EF0D8904832485091
:101D00000109486E88EF0EF0D890483288EF0EF047
:101D100035A08DEF0EF08FEF0EF092EF0EF0488EA3
:101D200092EF0EF038343832373236323532472AB5
:101D30004CEF0FF04CEF0FF03950355C3A503658FD
:101D40003B5037583850800A3D6E3C50800A3D5811
:101D5000D8B0ADEF0EF0AFEF0EF0EDEF0EF035C0F6
:101D60003DF036C03EF037C03FF038C040F03D1E79
:101D70003E1E3F1E401E3D2A000E3E223F224022B4
:101D800039503D24416E3A503E20426E3B503F2038
:101D9000436E3C504020446EFF0E4124356EFF0ED2
:101DA0004220366EFF0E4320376EFF0E4420386E01
:101DB000800E451A486C4850D8A4E1EF0EF0E3EFCE
:101DC0000EF0F5EF0EF0010E3526000E362237220A
:101DD0003822F5EF0EF0F5EF0EF03950355E3A503F
:101DE000365A3B50375A3C50385A35503610371017
:101DF0003810D8A4FEEF0EF000EF0FF041EF0FF017
:101E00004850D8A406EF0FF008EF0FF041EF0FF0A5
:101E1000000E356E000E366E000E376E000E386EF8
:101E2000F6EF0FF0F6EF0FF041EF0FF0D8903536E8
:101E300036363736383648AE20EF0FF022EF0FF047
:101E400025EF0FF0358025EF0FF048A02AEF0FF0B7
:101E50002CEF0FF030EF0FF0D880483634EF0FF052
:101E6000D890483634EF0FF04750D8B43AEF0FF01F
:101E70003CEF0FF041EF0FF0470641EF0FF041EF5D
:101E80000FF037AE46EF0FF048EF0FF016EF0FF000
:101E90004CEF0FF04CEF0FF0000E466E48AE53EFD4
:101EA0000FF055EF0FF071EF0FF048C03DF07F0ECF
:101EB0003D16D8B45EEF0FF060EF0FF064EF0FF057
:101EC000010E466E71EF0FF035A069EF0FF06BEF6A
:101ED0000FF071EF0FF0010E466E71EF0FF071EF22
:101EE0000FF04650D8B477EF0FF079EF0FF0AAEF6C
:101EF0000FF0010E3526000E36223722382238A088
:101F000084EF0FF086EF0FF0AAEF0FF035C03DF031
:101F100036C03EF037C03FF038C040F04034403269
:101F20003F323E323D323DC035F03EC036F03FC01C
:101F300037F040C038F04728D8B4A1EF0FF0A3EF36
:101F40000FF0AAEF0FF0472AAAEF0FF0AAEF0FF059
:101F5000AAEF0FF04728D8B4B0EF0FF0B2EF0FF0B0
:101F6000BCEF0FF04750D8A4B8EF0FF0BAEF0FF066
:101F7000D2EF0FF0BCEF0FF0000E356E000E366E94
:101F8000000E376E000E386E4750D8A4CAEF0FF01F
:101F9000CCEF0FF0D2EF0FF0000E456ED2EF0FF046
:101FA000D2EF0FF047A0D7EF0FF0D9EF0FF0DCEF33
:101FB0000FF0378EDFEF0FF0379EDFEF0FF0D89086
:101FC0004730386E45AEE7EF0FF0E9EF0FF0ECEF7A
:101FD0000FF0388EECEF0FF035C035F036C036F02C
:101FE00037C037F038C038F0F6EF0FF01200306E1F
:101FF00030BEFFEF0FF0FDEF0FF023EF11F0306C6C
:102000003050800A120FD8A008EF10F00AEF10F03D
:10201000A7EF10F0000E0A6E0A0E096E000E046E95
:10202000640E036E3050016E026A01BE0206C6ECF9
:102030001DF001C007F002C008F050EC1DF0D89070
:1020400007360836D89007360836240E0726000EC5
:102050000822350E0724F66E100E0820F76E0900D0
:10206000F5CF13F00900F5CF14F00900F5CF15F006
:102070000A00F5CF16F0000E0A6E640E096E30509D
:10208000076E086A07BE080650EC1DF0D8900736A8
:102090000836D89007360836480E0726000E082264
:1020A000350E0724F66E100E0820F76E0900F5CFE6
:1020B0000FF00900F5CF10F00900F5CF11F00A007C
:1020C000F5CF12F045EC12F00FC02CF010C02DF03F
:1020D00011C02EF012C02FF02CC00FF02DC010F048
:1020E0002EC011F02FC012F0000E046E0A0E036E07
:1020F0003050016E026A01BE0206C6EC1DF0D89097
:1021000001360236D89001360236350E0124F66EBD
:10211000100E0220F76E0900F5CF13F00900F5CF7D
:1021200014F00900F5CF15F00A00F5CF16F045ECD4
:1021300012F00FC028F010C029F011C02AF012C010
:102140002BF044EF12F044EF12F00BEF11F030508F
:10215000800A750FD8A0AFEF10F0B1EF10F00BEFC1
:1021600011F0000E0A6E0A0E096E3050076E086AF2
:1021700007BE080650EC1DF0D89007360836D890F8
:1021800007360836240E0726000E0822350E0724CF
:10219000F66E100E0820F76E0900F5CF0FF009005B
:1021A000F5CF10F00900F5CF11F00A00F5CF12F0CD
:1021B000000E046E0A0E036E3050016E026A01BEFC
:1021C0000206C6EC1DF0D89001360236D8900136D2
:1021D0000236350E0124F66E100E0220F76E09004D
:1021E000F5CF13F00900F5CF14F00900F5CF15F085
:1021F0000A00F5CF16F045EC12F00FC028F010C021
:1022000029F011C02AF012C02BF044EF12F044EF75
:1022100012F00BEF11F03050040D350EF324F66E72
:10222000100EF420F76E0900F5CF28F00900F5CF65
:1022300029F00900F5CF2AF00A00F5CF2BF044EF82
:1022400012F044EF12F03050800A120FD8A02BEF9A
:1022500011F02DEF11F0CAEF11F0000E0A6E0A0E08
:10226000096E000E046E640E036E3050016E026A39
:1022700001BE0206C6EC1DF001C007F002C008F066
:1022800050EC1DF0D89007360836D890073608363F
:10229000240E0726000E0822010E0724F66E100EEB
:1022A0000820F76E0900F5CF13F00900F5CF14F000
:1022B0000900F5CF15F00A00F5CF16F0000E0A6EF2
:1022C000640E096E3050076E086A07BE080650ECAF
:1022D0001DF0D89007360836D89007360836480ED5
:1022E0000726000E0822010E0724F66E100E0820A5
:1022F000F76E0900F5CF0FF00900F5CF10F00900D7
:10230000F5CF11F00A00F5CF12F045EC12F00FC036
:102310002CF010C02DF011C02EF012C02FF02CC0E8
:102320000FF02DC010F02EC011F02FC012F0000ED3
:10233000046E0A0E036E3050016E026A01BE020680
:10234000C6EC1DF0D89001360236D8900136023620
:10235000010E0124F66E100E0220F76E0900F5CF73
:1023600013F00900F5CF14F00900F5CF15F00A00BD
:10237000F5CF16F045EC12F00FC028F010C029F090
:1023800011C02AF012C02BF044EF12F044EF12F00B
:102390002EEF12F03050800A750FD8A0D2EF11F056
:1023A000D4EF11F02EEF12F0000E0A6E0A0E096E35
:1023B0003050076E086A07BE080650EC1DF0D89032
:1023C00007360836D89007360836240E0726000E42
:1023D0000822010E0724F66E100E0820F76E090081
:1023E000F5CF0FF00900F5CF10F00900F5CF11F08F
:1023F0000A00F5CF12F0000E046E0A0E036E305084
:10240000016E026A01BE0206C6EC1DF0D8900136CC
:102410000236D89001360236010E0124F66E100EF7
:102420000220F76E0900F5CF13F00900F5CF14F084
:102430000900F5CF15F00A00F5CF16F045EC12F0C3
:102440000FC028F010C029F011C02AF012C02BF0E4
:1024500044EF12F044EF12F02EEF12F03050040D62
:10246000010EF324F66E100EF420F76E0900F5CF7E
:1024700028F00900F5CF29F00900F5CF2AF00A006D
:10248000F5CF2BF044EF12F012001250800B1B6EB0
:1024900012501224216E11AE50EF12F052EF12F0D2
:1024A00055EF12F0218055EF12F02150D8B45BEFB8
:1024B00012F05DEF12F072EF12F02128D8A463EF52
:1024C00012F065EF12F06FEF12F0000E0F6E000EBB
:1024D000106E000E116E000E126E6FEF12F0118E64
:1024E0007CEF12F0000E0F6E000E106E000E116EDB
:1024F000000E126E7CEF12F01650800B1B1A165055
:102500001624206E15AE87EF12F089EF12F08CEFD3
:1025100012F020808CEF12F02050D8B492EF12F01D
:1025200094EF12F0A9EF12F02028D8A49AEF12F03D
:102530009CEF12F0A6EF12F0000E136E000E146E58
:10254000000E156E000E166EA6EF12F0158EB1EF8E
:1025500012F0000E136E000E146E000E156E000EBB
:10256000166E2050D8B4B7EF12F0B9EF12F0C3EFE7
:1025700012F02150D8A4BFEF12F0C1EF12F0CFEF4C
:1025800012F0C3EF12F0000E0F6E000E106E000E70
:10259000116E000E126E7BEF14F07BEF14F01550ED
:1025A0000F02F3CF26F0F4CF27F026501C6E1D6AE1
:1025B0001E6A1F6A2750226E236A246A256A1450F5
:1025C0001002F3CF26F0F4CF27F026501C26000E81
:1025D0001D221E221F2227502226000E23222422E3
:1025E000252213501102F3CF26F0F4CF27F0265006
:1025F0001C26000E1D221E221F2227502226000EFE
:102600002322242225221EC01FF01DC01EF01CC044
:102610001DF01C6A13501002F3CF26F0F4CF27F000
:1026200026501C2627501D22000E1E22000E1F229F
:1026300014500F02F3CF26F0F4CF27F026501C26BB
:1026400027501D22000E1E22000E1F221EC01FF04A
:102650001DC01EF01CC01DF01C6A13500F02F3CFEA
:1026600026F0F4CF27F026501C2627501D22000EFE
:102670001E22000E1F2215501002F3CF26F0F4CFB9
:1026800027F02650222627502322000E2422000E57
:10269000252214501102F3CF26F0F4CF27F0265054
:1026A000222627502322000E2422000E2522155018
:1026B0001102F3CF26F0F4CF27F02650176E2750E3
:1026C000186E196A1A6A19C01AF018C019F017C0E2
:1026D00018F0176A17502226185023221950242266
:1026E0001A5025221CC017F01DC018F01EC019F08A
:1026F0001FC01AF0190E82EF13F0D8901A32193257
:1027000018321732E82E7DEF13F01750222618509A
:102710002322195024221A5025221EC01FF01DC04A
:102720001EF01CC01DF01C6A205021C017F0186A52
:102730001726000E1822820E1724266EFF0E182070
:10274000276EBAEF13F0D89022362336243625367A
:102750001FAEADEF13F0AFEF13F0B0EF13F0228028
:10276000D8901C361D361E361F362606D8A02706E2
:10277000BAEF13F024AEBFEF13F0C1EF13F0A3EFE5
:1027800013F0C3EF13F0000E206E1FAECAEF13F06C
:10279000CCEF13F0F4EF13F0FF0E1C14176EFF0EC6
:1027A0001D14186EFF0E1E14196E7F0E1F141A6E64
:1027B0001750181019101A10D8B4E1EF13F0E3EF06
:1027C00013F0E7EF13F0010E206EF4EF13F022A0E8
:1027D000ECEF13F0EEEF13F0F4EF13F0010E206EB8
:1027E000F4EF13F0F4EF13F02050D8B4FAEF13F035
:1027F000FCEF13F024EF14F0010E2226000E23222A
:102800002422252225A007EF14F009EF14F024EF6D
:1028100014F022C017F023C018F024C019F025C00E
:102820001AF01A341A3219321832173217C022F03D
:1028300018C023F019C024F01AC025F0264A272A10
:1028400024EF14F024EF14F027BE2FEF14F02750DC
:1028500008E12628D8A02FEF14F031EF14F03BEF59
:1028600014F0000E226E000E236E800E246E7F0E7A
:10287000256E6FEF14F027BE48EF14F0275006E1E5
:102880002604D8B046EF14F048EF14F054EF14F0DB
:10289000000E226E000E236E000E246E000E256EBA
:1028A000000E1B6E6FEF14F026C021F0FF0E2216F3
:1028B000FF0E23167F0E2416000E251621A063EFAF
:1028C00014F065EF14F068EF14F0248E68EF14F044
:1028D000D8902130256E6FEF14F06FEF14F01B507D
:1028E000251222C00FF023C010F024C011F025C023
:1028F00012F07BEF14F012000450800B0D6E0450A8
:102900000424186E03AE87EF14F089EF14F08CEFF7
:1029100014F018808CEF14F01850D8B492EF14F023
:1029200094EF14F0ABEF14F01828D8A49AEF14F039
:102930009CEF14F0A6EF14F0000E016E000E026E74
:10294000000E036E000E046EA6EF14F0038E000E50
:10295000046EB5EF14F0000E016E000E026E000E54
:10296000036E000E046EB5EF14F00850800B0D1AC4
:1029700008500824196E07AEC0EF14F0C2EF14F02F
:10298000C5EF14F01980C5EF14F01950D8B4CBEF8F
:1029900014F0CDEF14F0E4EF14F01928D8A4D3EF1D
:1029A00014F0D5EF14F0DFEF14F0000E056E000EFA
:1029B000066E000E076E000E086EDFEF14F0078E35
:1029C000000E086EEEEF14F0000E056E000E066E9F
:1029D000000E076E000E086EEEEF14F005500610A4
:1029E00007100810D8A4F7EF14F0F9EF14F011EF66
:1029F00015F0000E016E000E026E000E036E000E4A
:102A0000046E800E03127F0E041201C001F002C09A
:102A100002F003C003F004C004F089EF16F089EF60
:102A200016F01850D8A417EF15F019EF15F02DEF88
:102A300015F0000E016E000E026E000E036E000E09
:102A4000046E01C001F002C002F003C003F004C034
:102A500004F089EF16F089EF16F01950096E0A6A32
:102A6000091E0A1E094A0A2A18500B6E0C6A0950E0
:102A70000B260A500C227F0E0B24126E000E0C2027
:102A8000136E01C00EF002C00FF003C010F004C0BE
:102A900011F0000E016E000E026E000E036E000EAD
:102AA000046E000E146E000E156E000E166E000EF3
:102AB000176E000E196E99EF15F01950D8B463EF28
:102AC00015F065EF15F07EEF15F0D8900E360F3645
:102AD00010361136D890013602360336043617AE5A
:102AE00074EF15F076EF15F077EF15F00180D890C0
:102AF00014361536163617367EEF15F005500E5C77
:102B000006500F580750105808501158D8A08BEF96
:102B100015F08DEF15F098EF15F0178C05500E5E3F
:102B200006500F5A0750105A0850115A98EF15F0D6
:102B3000192A190E19649FEF15F0A1EF15F05DEF3A
:102B400015F0A3EF15F00E500F1010101110D8B49F
:102B5000ACEF15F0AEEF15F0CAEF15F01480CAEF28
:102B600015F0CAEF15F0D890013602360336043658
:102B700017AEBDEF15F0BFEF15F0C0EF15F00180F7
:102B8000D89014361536163617361206D8A0130606
:102B9000CAEF15F003AECFEF15F0D1EF15F0B3EF9C
:102BA00015F0D3EF15F0000E196E17AEDAEF15F031
:102BB000DCEF15F004EF16F0FF0E1414096EFF0E93
:102BC00015140A6EFF0E16140B6E7F0E17140C6E82
:102BD00009500A100B100C10D8B4F1EF15F0F3EFF8
:102BE00015F0F7EF15F0010E196E04EF16F001A0C5
:102BF000FCEF15F0FEEF15F004EF16F0010E196E64
:102C000004EF16F004EF16F01950D8B40AEF16F0DE
:102C10000CEF16F034EF16F0010E0126000E022222
:102C20000322042204A017EF16F019EF16F034EF78
:102C300016F001C009F002C00AF003C00BF004C096
:102C40000CF00C340C320B320A32093209C001F09C
:102C50000AC002F00BC003F00CC004F0124A132AA1
:102C600034EF16F034EF16F013BE3FEF16F01350AA
:102C700008E11228D8A03FEF16F041EF16F04EEF12
:102C800016F0000E136E1268000E016E000E026E3A
:102C9000000E036E000E046E4EEF16F013BE5BEFD7
:102CA00016F0135006E11204D8B059EF16F05BEF9E
:102CB00016F06BEF16F0000E136E000E126E000E83
:102CC000016E000E026E000E036E000E046E000E0A
:102CD0000D6E6BEF16F012C018F018A072EF16F020
:102CE00074EF16F077EF16F0038E7AEF16F0039E6E
:102CF0007AEF16F0D8901830046E0D50041201C00F
:102D000001F002C002F003C003F004C004F089EF38
:102D100016F012007EEC21F0A1EC22F0BBEC22F0C8
:102D200095EC20F0ADEC22F0E9EC1EF080C00DF047
:102D300081C00EF082C00FF083C010F0F6EC21F0DD
:102D4000A2EF16F00001BD51BE11D8A4AAEF16F0F3
:102D5000ACEF16F0D1EF16F08EEC1EF0A8EC21F0DF
:102D6000000E0001BE6F010EBD6F090E5C6E1E0EDF
:102D70005B6EE40EE82EFED75B2EFCD75C2EFAD7F6
:102D800000D0000EC46E090E5C6E1E0E5B6EE40E6B
:102D9000E82EFED75B2EFCD75C2EFAD700D0D1EF01
:102DA00016F00001BD05BE11D8A4D9EF16F0DBEF77
:102DB00016F000EF17F092EC1FF0CBEC20F0000EB5
:102DC0000001BE6F020EBD6F090E5C6E1E0E5B6EC3
:102DD000E40EE82EFED75B2EFCD75C2EFAD700D08F
:102DE000000EC46E090E5C6E1E0E5B6EE40EE82EC5
:102DF000FED75B2EFCD75C2EFAD700D000EF17F081
:102E0000020E0001BD19BE11D8A409EF17F00BEF97
:102E100017F02CEF17F0E9EC1EF0000E0001BE6F6A
:102E2000000EBD6F090E5C6E1E0E5B6EE40EE82E8A
:102E3000FED75B2EFCD75C2EFAD700D0000EC46EF6
:102E4000090E5C6E1E0E5B6EE40EE82EFED75B2E46
:102E5000FCD75C2EFAD700D07CC00FF07DC010F0FC
:102E60007EC011F07FC012F078C013F079C014F06A
:102E70007AC015F07BC016F045EC12F00FC0B9F027
:102E800010C0BAF011C0BBF012C0BCF0000E016E51
:102E9000000E026E400E036E410E046EB1C005F0CE
:102EA000B2C006F0B3C007F0B4C008F0F3EC1BF0FA
:102EB000D8B05DEF17F05FEF17F0A2EF16F0000E3D
:102EC0000001B86F000EB76FB5C067FFB54BB62BEA
:102ED00092EC1FF08EEC1EF07CC00FF07DC010F065
:102EE0007EC011F07FC012F078C013F079C014F0EA
:102EF0007AC015F07BC016F045EC12F00FC0BFF0A1
:102F000010C0C0F011C0C1F012C0C2F0B9C001F0D1
:102F1000BAC002F0BBC003F0BCC004F0BFC005F0F3
:102F2000C0C006F0C1C007F0C2C008F0F3EC1BF04F
:102F3000D8B09DEF17F09FEF17F0A9EF17F0BFC0C3
:102F4000B9F0C0C0BAF0C1C0BBF0C2C0BCF0A2EFC3
:102F500016F00001B751FE0F676E92EC1FF08EEC79
:102F60001EF07CC00FF07DC010F07EC011F07FC05D
:102F700012F078C013F079C014F07AC015F07BC05D
:102F800016F045EC12F00FC0BFF010C0C0F011C039
:102F9000C1F012C0C2F0B9C001F0BAC002F0BBC0AB
:102FA00003F0BCC004F0BFC005F0C0C006F0C1C053
:102FB00007F0C2C008F0F3EC1BF0D8B0E2EF17F056
:102FC000E4EF17F0A2EF16F0BFC0B9F0C0C0BAF03E
:102FD000C1C0BBF0C2C0BCF0A2EF16F0A2EF16F069
:102FE000A2EF16F0A2EF16F0A2EF16F000EF00F03D
:102FF000346E6D0E3464FFEF17F001EF18F0B2EF8E
:1030000018F0000E0A6E0A0E096E000E046E640EB1
:10301000036E34C001F0026AC6EC1DF001C007F077
:1030200002C008F050EC1DF0D89007360836D89052
:1030300007360836240E0726000E0822350E072410
:10304000F66E100E0820F76E0900F5CF13F0090098
:10305000F5CF14F00900F5CF15F00A00F5CF16F002
:10306000000E0A6E640E096E34C007F0086A50EC58
:103070001DF0D89007360836D89007360836480E27
:103080000726000E0822350E0724F66E100E0820C3
:10309000F76E0900F5CF0FF00900F5CF10F0090029
:1030A000F5CF11F00A00F5CF12F045EC12F00FC089
:1030B00030F010C031F011C032F012C033F0000E09
:1030C000046E0A0E036E34C001F0026AC6EC1DF0F5
:1030D000D89001360236D89001360236350E0124DA
:1030E000F66E100E0220F76E0900F5CF13F00900FE
:1030F000F5CF14F00900F5CF15F00A00F5CF16F062
:1031000030C00FF031C010F032C011F033C012F0F7
:1031100045EC12F00FC02CF010C02DF011C02EF0B5
:1031200012C02FF02CC00FF02DC010F02EC011F0E7
:103130002FC012F0000E136E000E146E000E156EEE
:103140003F0E166E45EC12F00FC028F010C029F0AB
:1031500011C02AF012C02BF052EF19F052EF19F003
:103160002AEF19F00A0E3464B8EF18F0BAEF18F02D
:103170002AEF19F0000E046E0A0E036E34C001F03F
:10318000026AC6EC1DF0D89001360236D89001369E
:103190000236350E0124F66E100E0220F76E09007D
:1031A000F5CF13F00900F5CF14F00900F5CF15F0B5
:1031B0000A00F5CF16F0000E0A6E0A0E096E34C032
:1031C00007F0086A50EC1DF0D89007360836D89002
:1031D00007360836240E0726000E0822350E07246F
:1031E000F66E100E0820F76E0900F5CF0FF00900FB
:1031F000F5CF10F00900F5CF11F00A00F5CF12F06D
:1032000045EC12F00FC030F010C031F011C032F0B8
:1032100012C033F030C00FF031C010F032C011F0E6
:1032200033C012F0000E136E000E146E000E156EF9
:103230003F0E166E45EC12F00FC028F010C029F0BA
:1032400011C02AF012C02BF052EF19F052EF19F012
:103250002AEF19F03450040D350EF324F66E100EDB
:10326000F420F76E0900F5CF0FF00900F5CF10F04C
:103270000900F5CF11F00A00F5CF12F0000E136E21
:10328000000E146E000E156E3F0E166E45EC12F019
:103290000FC028F010C029F011C02AF012C02BF086
:1032A00052EF19F01200096E0950D8B45AEF19F014
:1032B0005CEF19F07EEF19F004BE63EF19F061EFD7
:1032C00019F07EEF19F001C005F002C006F003C04E
:1032D00007F004C008F0051E061E071E081E052A7A
:1032E000000E06220722082205C00BF006C00CF0D3
:1032F00007C00DF008C00EF088EF19F001C00BF008
:1033000002C00CF003C00DF004C00EF088EF19F0FD
:103310000150021003100410D8A491EF19F093EF9C
:1033200019F09FEF19F0000E016E000E026E000EF4
:10333000036E000E046E45EF1AF045EF1AF0960E7C
:103340000A6EABEF19F00A2AD8900E320D320C3209
:103350000B32ABEF19F0000E0B14056E000E0C14BF
:10336000066E000E0D14076EFE0E0E14086E05504C
:10337000061007100810D8A4C0EF19F0C2EF19F01A
:10338000A3EF19F0D2EF19F0D2EF19F00A2A010ECB
:103390000B26000E0C220D220E22D8900E320D327A
:1033A0000C320B32000E0B14056E000E0C14066E60
:1033B000000E0D14076EFF0E0E14086E0550061059
:1033C00007100810D8A4E7EF19F0E9EF19F0C6EFDD
:1033D00019F0F5EF19F0F5EF19F00A06D8900B3651
:1033E0000C360D360E36F5EF19F00DBEFAEF19F06A
:1033F000FCEF19F006EF1AF0020E0A6002EF1AF065
:1034000004EF1AF0EDEF19F006EF1AF00AB00BEF27
:103410001AF00DEF1AF015EF1AF0FF0E0B16FF0E53
:103420000C167F0E0D16FF0E0E16D8900A320AC02B
:1034300005F0066A076A086A05C008F0076A066AA6
:10344000056A05500B1206500C1207500D12085059
:103450000E120950D8B42FEF1AF031EF1AF03BEFEB
:103460001AF004BE38EF1AF036EF1AF03BEF1AF0FC
:103470000E8E3BEF1AF00BC001F00CC002F00DC035
:1034800003F00EC004F045EF1AF0120003C009F07B
:103490000A6A0B6A0234093601E30A800950116E88
:1034A0001150D8A456EF1AF058EF1AF064EF1AF042
:1034B000000E016E000E026E000E036E000E046E12
:1034C0001CEF1BF01CEF1BF007C009F00A6A0B6A27
:1034D0000634093601E30A800950106E1050D8A452
:1034E00074EF1AF076EF1AF082EF1AF0000E016E08
:1034F000000E026E000E036E000E046E1CEF1BF039
:103500001CEF1BF0028EFF0E0116FF0E0216000EBE
:103510000316068EFF0E0516FF0E0616000E071682
:10352000000E0C6E000E0D6E000E0E6E000E0F6E75
:103530007F0E115E1050980F115E180E106ED8900D
:103540000C360D360E360F360550015C065002580B
:1035500007500358D8A0AFEF1AF0B1EF1AF0B8EF48
:103560001AF00550015E0650025A0750035A0C80AB
:10357000D890013602360336102E9FEF1AF0C1EFB5
:103580001AF011BEC8EF1AF0C6EF1AF0ECEF1AF0FD
:103590001150800A970FD8B0D0EF1AF0D2EF1AF07E
:1035A000E0EF1AF0000E016E000E026E000E036EC8
:1035B000000E046E1CEF1BF01CEF1BF0E0EF1AF086
:1035C000D8900F320E320D320C32113EE0EF1AF06D
:1035D00014EF1BF014EF1BF0170E1164F2EF1AF04A
:1035E000F4EF1AF00AEF1BF0000E016E000E026EEF
:1035F000000E036E000E046E1CEF1BF01CEF1BF0A0
:103600000AEF1BF0D8900C360D360E360F36110629
:103610000AEF1BF01150D8A410EF1BF012EF1BF0B3
:1036200002EF1BF014EF1BF00CC001F00DC002F014
:103630000EC003F00FC004F01200033404340E6E09
:103640000E50D8A426EF1BF028EF1BF034EF1BF030
:10365000000E016E000E026E000E036E000E046E70
:10366000F2EF1BF0F2EF1BF0073408340D6E0D5033
:10367000D8A43DEF1BF03FEF1BF04BEF1BF0000E0B
:10368000016E000E026E000E036E000E046EF2EF6D
:103690001BF0F2EF1BF0038EFF0E0116FF0E021659
:1036A000FF0E0316000E0416078EFF0E0516FF0E02
:1036B0000616FF0E0716000E0816000E096E000E05
:1036C0000A6E000E0B6E000E0C6E7F0E0E5E0D501D
:1036D000A00F0E5E200E0D6E6EEF1BF0D890093617
:1036E0000A360B360C360550015C0650025807505E
:1036F000035808500458D8A080EF1BF082EF1BF04D
:103700008DEF1BF00550015E0650025A0750035A18
:103710000850045A09808DEF1BF0D890013602360C
:10372000033604360D2E6EEF1BF097EF1BF00EBE26
:103730009EEF1BF09CEF1BF0C2EF1BF00E50800AB7
:103740009F0FD8B0A6EF1BF0A8EF1BF0B6EF1BF051
:10375000000E016E000E026E000E036E000E046E6F
:10376000F2EF1BF0F2EF1BF0B6EF1BF0D8900C322B
:103770000B320A3209320E3EB6EF1BF0EAEF1BF0B5
:10378000EAEF1BF01F0E0E64C8EF1BF0CAEF1BF030
:10379000E0EF1BF0000E016E000E026E000E036ED5
:1037A000000E046EF2EF1BF0F2EF1BF0E0EF1BF0E7
:1037B000D89009360A360B360C360E06E0EF1BF0B1
:1037C0000E50D8A4E6EF1BF0E8EF1BF0D8EF1BF08B
:1037D000EAEF1BF009C001F00AC002F00BC003F0D1
:1037E0000CC004F01200000E0114096E000E021449
:1037F0000A6E800E03140B6E7F0E04140C6E0950BB
:103800000A100B100C10D8A408EF1CF00AEF1CF0E3
:1038100014EF1CF0000E016E000E026E000E036E1F
:10382000000E046E14EF1CF0000E0514096E000E5D
:1038300006140A6E800E07140B6E7F0E08140C6EB1
:1038400009500A100B100C10D8A429EF1CF02BEF14
:103850001CF035EF1CF0000E056E000E066E000E1B
:10386000076E000E086E35EF1CF004AE3AEF1CF048
:103870003CEF1CF05BEF1CF001C009F002C00AF045
:1038800003C00BF004C00CF0091E0A1E0B1E0C1E18
:10389000092A000E0A220B220C22000E0924016EB6
:1038A000000E0A20026E000E0B20036E800E0C200C
:1038B000046E5BEF1CF008AE60EF1CF062EF1CF0D2
:1038C0007FEF1CF005C009F006C00AF007C00BF03E
:1038D00008C00CF0091E0A1E0B1E0C1E092A000E41
:1038E0000A220B220C22000E0924056E000E0A206B
:1038F000066E000E0B20076E800E0C20086E000E68
:10390000011A000E021A000E031A800E041A000E8D
:10391000051A000E061A000E071A800E081A055026
:10392000015C065002580750035808500458D8B09C
:103930009CEF1CF09EEF1CF0A1EF1CF0D890A6EFBE
:103940001CF0D880A6EF1CF0A6EF1CF01200333458
:1039500034343A6E3A50D8A4B0EF1CF0B2EF1CF0F9
:10396000BEEF1CF0000E316E000E326E000E336E94
:10397000000E346E4FEF1DF04FEF1DF031C035F0EB
:1039800032C036F033C037F034C038F0200ECEEFFE
:103990001CF0D8903832373236323532E82EC9EF43
:1039A0001CF03550396E338EFF0E3116FF0E321675
:1039B000FF0E3316000E3416960E3A5E3ABEE5EF51
:1039C0001CF0E3EF1CF009EF1DF03A50800A970F4E
:1039D000D8B0EDEF1CF0EFEF1CF0FDEF1CF0000E87
:1039E000316E000E326E000E336E000E346E4FEFED
:1039F0001DF04FEF1DF0FDEF1CF0D8903432333244
:103A0000323231323A3EFDEF1CF033EF1DF033EF2E
:103A10001DF01F0E3A640FEF1DF011EF1DF027EFA0
:103A20001DF0000E316E000E326E000E336E000E71
:103A3000346E4FEF1DF04FEF1DF027EF1DF0D890C3
:103A400031363236333634363A0627EF1DF03A50E7
:103A5000D8A42DEF1DF02FEF1DF01FEF1DF033EF59
:103A60001DF033EF1DF03950D8B439EF1DF03BEFA6
:103A70001DF045EF1DF0341E331E321E316C000E5A
:103A800032223322342245EF1DF031C031F032C0F2
:103A900032F033C033F034C034F04FEF1DF0120079
:103AA000000E0C6E0ABE59EF1DF057EF1DF061EFCE
:103AB0001DF0096C0A1ED8B00A2A010E0C6E61EFC7
:103AC0001DF008BE68EF1DF066EF1DF070EF1DF0F1
:103AD000076C081ED8B0082A010E0C1A70EF1DF0F2
:103AE000000E0E6E000E0D6E09500A10D8B47BEF5A
:103AF0001DF07DEF1DF0B1EF1DF0010E0B6E87EF95
:103B00001DF0D89009360A360B2A87EF1DF00AAE51
:103B10008CEF1DF08EEF1DF081EF1DF092EF1DF088
:103B200092EF1DF0D8900D360E360950075C0A5002
:103B30000858D8A09EEF1DF0A0EF1DF0A7EF1DF0D4
:103B40000950075E0A50085A0D80A7EF1DF0D89063
:103B50000A3209320B2E92EF1DF0B1EF1DF0B1EFDA
:103B60001DF00C50D8B4B7EF1DF0B9EF1DF0BFEF4A
:103B70001DF00D6C0E1ED8B00E2ABFEF1DF00DC04B
:103B800007F00EC008F0C5EF1DF01200000E066E23
:103B900002BECFEF1DF0CDEF1DF0D7EF1DF0016C91
:103BA000021ED8B0022A010E066ED7EF1DF004BE29
:103BB000DEEF1DF0DCEF1DF0E4EF1DF0036C041EE2
:103BC000D8B0042AE4EF1DF003500410D8B4EBEF92
:103BD0001DF0EDEF1DF01DEF1EF0010E056EF7EF6D
:103BE0001DF0D89003360436052AF7EF1DF004AE19
:103BF000FCEF1DF0FEEF1DF0F1EF1DF002EF1EF0E7
:103C000002EF1EF00350015C04500258D8A00BEFE5
:103C10001EF00DEF1EF013EF1EF00350015E045076
:103C2000025A13EF1EF0D89004320332052E02EF31
:103C30001EF01DEF1EF01DEF1EF00650D8B423EF4E
:103C40001EF025EF1EF02BEF1EF0016C021ED8B007
:103C5000022A2BEF1EF001C001F002C002F031EF8A
:103C60001EF01200000E096E000E0A6E000E0B6EA2
:103C7000000E0C6E0550061007100810D8B443EF64
:103C80001EF045EF1EF085EF1EF0010E0D6E51EF98
:103C90001EF0D89005360636073608360D2A51EF45
:103CA0001EF008AE56EF1EF058EF1EF049EF1EF062
:103CB0005CEF1EF05CEF1EF0D89009360A360B362A
:103CC0000C360550015C0650025807500358085046
:103CD0000458D8A06EEF1EF070EF1EF07BEF1EF0C0
:103CE0000550015E0650025A0750035A0850045A04
:103CF00009807BEF1EF0D890083207320632053279
:103D00000D2E5CEF1EF085EF1EF009C001F00AC019
:103D100002F00BC003F00CC004F01200070EC26EDC
:103D2000D00E286ECA0EE82EFED7282EFCD7C282EF
:103D3000090E296E1E0E286EE40EE82EFED7282EE0
:103D4000FCD7292EFAD700D0C450016E026A036A4C
:103D5000046A000E53EC19F001C06CF002C06DF063
:103D600003C06EF004C06FF06CC00FF06DC010F0B7
:103D70006EC011F06FC012F0000E136E000E146EC4
:103D8000A00E156E3C0E166E45EC12F00FC068F0DA
:103D900010C069F011C06AF012C06BF068C001F089
:103DA00069C002F06AC003F06BC004F0000E056E3B
:103DB000000E066E800E076E3E0E086E7CEC14F050
:103DC00001C07CF002C07DF003C07EF004C07FF033
:103DD00012000F0EC26ED00E286ECA0EE82EFED74D
:103DE000282EFCD7C282090E296E1E0E286EE40E04
:103DF000E82EFED7282EFCD7292EFAD700D0C450A3
:103E0000016E026A036A046A000E53EC19F001C0E5
:103E10006CF002C06DF003C06EF004C06FF06CC0B7
:103E20000FF06DC010F06EC011F06FC012F0000EF8
:103E3000136E000E146EA00E156E3C0E166E45EC41
:103E400012F00FC068F010C069F011C06AF012C023
:103E50006BF068C001F069C002F06AC003F06BC08B
:103E600004F0CD0E056ECC0E066E4C0E076E3E0EA7
:103E7000086E7CEC14F001C080F002C081F003C039
:103E800082F004C083F012000550061007100810DD
:103E9000D8B44DEF1FF04FEF1FF089EF1FF0010E68
:103EA000096E5BEF1FF0D8900536063607360836E8
:103EB000092A5BEF1FF008AE60EF1FF062EF1FF002
:103EC00053EF1FF066EF1FF066EF1FF00550015C27
:103ED000065002580750035808500458D8A073EFF2
:103EE0001FF075EF1FF07FEF1FF00550015E0650C9
:103EF000025A0750035A0850045A7FEF1FF0D89017
:103F00000832073206320532092E66EF1FF089EFBC
:103F10001FF001C001F002C002F003C003F004C0B2
:103F200004F012000B0EC26ED00E286ECA0EE82EE0
:103F3000FED7282EFCD7C282090E296E1E0E286ECF
:103F4000E40EE82EFED7282EFCD7292EFAD700D073
:103F5000C450016E026A036A046A000E53EC19F041
:103F600001C074F002C075F003C076F004C077F0B1
:103F700074C00FF075C010F076C011F077C012F069
:103F8000950E136E940E146E940E156E3C0E166EF6
:103F900045EC12F00FC070F010C071F011C072F05B
:103FA00012C073F070C078F071C079F072C07AF00E
:103FB00073C07BF01200000E0D6E000E0C6EFEEF53
:103FC0001FF00C5008240A6E0D5009200B6E0AC019
:103FD000F6FF0BC0F7FF000EF86E0F0EF76403D06C
:103FE0000800F55005D0F6CFE9FFF7CFEAFFEF5014
:103FF00028EC21F00C4A0D2AFEEF1FF00C5008248B
:104000000A6E0D5009200B6E0AC0F6FF0BC0F7FFB9
:10401000000EF86E0F0EF76403D00800F55005D0BF
:10402000F6CFE9FFF7CFEAFFEF500009D8A41BEF66
:1040300020F01DEF20F0E1EF1FF01FEF20F0120045
:10404000000E83EC22F0020E0C6EA00E0B6E920E90
:10405000E82EFED70B2EFCD70C2EFAD700D0030E7D
:1040600054EC21F0680E0B6EE40EE82EFED70B2EFA
:10407000FCD700D0030E54EC21F0E50E0B6E910E30
:10408000E82EFED70B2EFCD700F0030E54EC21F0E7
:10409000020E54EC21F0020E54EC21F0080E54EC08
:1040A00021F0000E54EC21F00C0E54EC21F0000E27
:1040B00054EC21F0060E54EC21F012000C6E0C04AE
:1040C000D8A465EF20F067EF20F078EF20F00B50D8
:1040D0007F0F0F6E0F380F0B0D6E0F500F0B0E6E04
:1040E0000D5054EC21F00E5054EC21F094EF20F0E0
:1040F000020E0C18D8A47FEF20F081EF20F094EF8F
:1041000020F00B50BF0F0F6E0F380F0B0D6E0F50BE
:104110000F0B0E6E0D5054EC21F00E5054EC21F0AC
:1041200094EF20F094EF20F0120094869488A00E73
:104130000E6E860E0F6E010E106E000E116EFAECF2
:1041400020F0090E176E1E0E166EE40EE82EFED736
:10415000162EFCD7172EFAD700D020EC20F0ADECAD
:1041600022F0B4EC22F0010E0B6E010E5EEC20F09A
:10417000960E086E100E096EDBEC1FF0090E176E1E
:104180001E0E166EE40EE82EFED7162EFCD7172E46
:10419000FAD700D01200010E0B6E020E5EEC20F07A
:1041A0009F0E086E100E096EDBEC1FF0880E516E2C
:1041B000000E526E910E536E100E546E78C055F074
:1041C00079C056F07AC057F07BC058F056EC08F032
:1041D000030E0B6E020E5EEC20F0880E086E000ED1
:1041E000096EDBEC1FF0A50E086E100E096EDBECFD
:1041F0001FF01200280EC66E000EC56E000E016E76
:10420000900E026ED00E036E030E046E0EC012F0FE
:104210000FC013F010C014F011C015F0020ED890AA
:104220001236133614361536E82E0FEF21F012C071
:1042300005F013C006F014C007F015C008F032EC0A
:104240001EF00104C86E000EC76E9486948812009A
:10425000056E05500F0B076E0738F00B076E055003
:10426000F00B066E010E83EC22F0065083EC22F078
:104270000650050983EC22F0D50EE82EFED700F09B
:104280000650010983EC22F0075083EC22F007501E
:10429000050983EC22F0D50EE82EFED700F007507A
:1042A000010983EC22F012000A6E0A38F00B0A6E44
:1042B000010E076E000E076E5EEF21F0075083ECD3
:1042C00022F00A5083EC22F0040E0AC005F0066AC0
:1042D0000510086E0650096E085083EC22F0540E4B
:1042E000056E1C0EE82EFED7052EFCD700D00AC0A6
:1042F00008F0096A085083EC22F012009268000E60
:10430000936E000E946E000E956E9668000E806E91
:10431000000E816E000E826E000E836E000E846EA3
:10432000000E896E000E8A6E000E8B6E000E8C6E73
:10433000000E8D6E0F013869000E396F000E3A6F56
:10434000000E3B6F000E3C6F740ED36E9B8C120000
:10435000010E0B6E010E5EEC20F0A20E086E100E28
:10436000096EDBEC1FF0900E516E000E526E910E36
:10437000536E100E546E7CC055F07DC056F07EC05A
:1043800057F07FC058F056EC08F0030E0B6E010E8C
:104390005EEC20F0900E086E000E096EDBEC1FF054
:1043A0001200000E4D1A000E4E1A000E4F1A800E0B
:1043B000501A49C035F04AC036F04BC037F04CC0F7
:1043C00038F04DC039F04EC03AF04FC03BF050C00D
:1043D0003CF034EC0DF035C049F036C04AF037C03F
:1043E0004BF038C04CF0F5EF21F01200000E016EDA
:1043F000000E026E400E036E410E046E0DC005F0FD
:104400000EC006F00FC007F010C008F0F3EC1BF070
:10441000D8B00DEF22F00FEF22F019EF22F0000ECE
:104420005E6E000E5D6E5DC067FF19EF22F019EF42
:1044300022F012000150021003100410D8B423EF30
:1044400022F025EF22F02FEF22F0000E011A000ECD
:10445000021A000E031A800E041A2FEF22F001C078
:1044600001F002C002F003C003F004C004F039EF11
:1044700022F01200036E000E026E3A0E036043EF4C
:1044800022F045EF22F051EF22F02F0E03644BEFA4
:1044900022F04DEF22F051EF22F0010E026E51EFAB
:1044A00022F002C001F0013056EF22F0120059EF65
:1044B00022F0C7B45EEF22F060EF22F059EF22F055
:1044C000C5CF01F01F0E0116D8A469EF22F06BEFE3
:1044D00022F059EF22F06DEF22F01200015003029A
:1044E000F3CF05F0F4CF06F001500402F350062696
:1044F00002500302F350062605C001F006C002F088
:1045000082EF22F01200046ECAEC22F0000E036E5D
:10451000700E026EC1EC22F004C002F0036AC1EC1E
:1045200022F0C6EC22F0120000EE60F0380EEE6AC7
:10453000E806FDE15E6A5D6A000EF86E00018AEF32
:1045400016F0000E0F01496F0C0E666E0C0EBD6E5C
:104550007D0EBA6EA00EBB6E1200000E54EC21F060
:10456000010E54EC21F01200000E54EC21F00C0E60
:1045700054EC21F01200800EC16E3E0EC06EC09E43
:10458000120057EC22F002C0C9FF120057EC22F0D3
:0C459000C584120057EC22F0C580120018
:020000040020DA
:08000000FFFFFFFFFFFFFFFF00
:020000040030CA
:0E000000FF18193CFFBF80FF0FC00FE00F403C
:00000001FF
