:04000000C1EF21F03B
:10100000000000803F000020410000C84200007A3C
:101010004400401C460050C3470024744980961881
:101020004B20BCBE4C286B6E4EF9021550EC78ADCF
:1010300060CAF249710000803FCDCCCC3D0AD72375
:101040003C6F12833A17B7D138ACC52737BD378606
:101050003595BFD63377CC2B325F708930FFE6DB16
:101060002E08E53C1E6042A20D010000000A0000AF
:101070000064000000E803000010270000A08601C3
:101080000040420F008096980000E1F50500CA9AE2
:101090003B252E326600546573740055693D004946
:1010A0003D00553D0020410020560000550E000136
:1010B000986F000E996F16EF0DF0250EAC19D8B48D
:1010C00064EF08F066EF08F070EF08F051C0D9FF48
:1010D00052C0DAFFACC0DFFF514A522A16EF0DF0C2
:1010E000000E9B6F000E9A6F53C0F6FF54C0F7FFBF
:1010F0000800F5502E0AD8A480EF08F082EF08F01F
:10110000BCEF08F09B8D534A542A000EA76F000EC7
:10111000A66FA9EF08F0A6C001F0A7C002F0000E6C
:10112000046E0A0E036E86EC21F053C0F6FF54C025
:10113000F7FF0800F5500126000E0222D00E012410
:101140000001A66FFF0E0220A76F534A542AA9EF91
:1011500008F053C0F6FF54C0F7FF0800F55052ECFA
:1011600021F0D8B0B6EF08F0B8EF08F08BEF08F038
:10117000CFEF08F0CFEF08F0000E0001A76F000ED0
:10118000A66F9B89CFEF08F0CFEF08F02BEF0DF0A3
:101190009B85E4EF08F016EF0DF0E4EF08F053C084
:1011A000F6FF54C0F7FF534A542A0800F5CFACF0BD
:1011B0000001AC51000AD8B42BEF0DF0660AD8B488
:1011C000C8EF08F016EF0DF0070E9B15D8B4EBEF43
:1011D00008F0EDEF08F0B6EF0CF09BA9F2EF08F085
:1011E000F4EF08F0FAEF08F0000EA76F060EA66FF6
:1011F000FAEF08F098C0D9FF99C0DAFFDECFA8F067
:10120000DECFA9F0DECFAAF0DECFABF0040E982738
:10121000000E9923ABBF11EF09F00FEF09F028EF93
:1012200009F0A8C001F0A9C002F0AAC003F0ABC049
:1012300004F032EC21F001C0A8F002C0A9F003C014
:10124000AAF004C0ABF0030E00019A1328EF09F0D6
:10125000000EA16F000EA06FA851A911AA11AB1129
:10126000D8B435EF09F037EF09F0D1EF09F0AA351E
:10127000AB35820FA06FA16BFF0EA123A007D8A0F2
:10128000A107A0C001F0A1C002F0000E046E030E81
:10129000036E86EC21F001C0A0F002C0A1F0A0C056
:1012A00007F0A1C008F0000E0A6E0A0E096E8CEC61
:1012B0001CF007C0A0F008C0A1F00001A1BF65EFBD
:1012C00009F063EF09F06AEF09F0A007D8A0A107C1
:1012D0006AEF09F0A0510008F7EC0FF028C0A2F067
:1012E00029C0A3F02AC0A4F02BC0A5F0A2C00FF023
:1012F000A3C010F0A4C011F0A5C012F0A8C013F054
:10130000A9C014F0AAC015F0ABC016F045EC12F05D
:101310000FC0A2F010C0A3F011C0A4F012C0A5F03D
:10132000A2C001F0A3C002F0A4C003F0A5C004F065
:10133000000E056E000E066E800E076E3F0E086EE4
:1013400085EC1AF0D8B0A7EF09F0A9EF09F0AFEFDC
:1013500009F00001A007D8A0A107D1EF09F0A2C0B1
:1013600001F0A3C002F0A4C003F0A5C004F0000E79
:10137000056E000E066E200E076E410E086E85EC9F
:101380001AF0D8A0C6EF09F0C8EF09F0D1EF09F0C4
:101390000001A04BA12BD1EF09F0D1EF09F0D1EF63
:1013A00009F00001A7BFE0EF09F0A75107E10D0E1A
:1013B000A65DD8B0DEEF09F0E0EF09F0FFEF09F02D
:1013C000A8C035F0A9C036F0AAC037F0ABC038F0DD
:1013D000A6518AEC16F028C039F029C03AF02AC08C
:1013E0003BF02BC03CF034EC0DF035C0A8F036C01B
:1013F000A9F037C0AAF038C0ABF0FFEF09F0000148
:10140000A1BF0EEF0AF0A15107E10A0EA05DD8B00E
:101410000CEF0AF00EEF0AF03FEF0AF0A851A91105
:10142000AA11AB11D8B417EF0AF019EF0AF0B4EF14
:101430000AF0A8C031F0A9C032F0AAC033F0ABC0A6
:1014400034F0E3EC1BF03150321033103410D8A4D8
:101450002CEF0AF02EEF0AF0B4EF0AF00001A1BF62
:101460003BEF0AF0A15109E1020EA05DD8A03BEFCD
:101470000AF03DEF0AF0B4EF0AF03FEF0AF0A2C025
:1014800001F0A3C002F0A4C003F0A5C004F05F0EF9
:10149000056E700E066E890E076E400E086E85ECA6
:1014A0001AF0D8B056EF0AF058EF0AF05FEF0AF0E2
:1014B0000001F70EA027FF0EA12366EF0AF000013E
:1014C000F80EA027FF0EA12366EF0AF0A051F7EC5B
:1014D0000FF028C0A2F029C0A3F02AC0A4F02BC0AE
:1014E000A5F0A8C001F0A9C002F0AAC003F0ABC0EB
:1014F00004F0A2C005F0A3C006F0A4C007F0A5C088
:1015000008F0AFEC19F001C09CF002C09DF003C0E0
:101510009EF004C09FF0A9EF0AF0A8C001F0A9C096
:1015200002F0AAC003F0ABC004F0A2C005F0A3C053
:1015300006F0A4C007F0A5C008F0D8EC18F001C070
:101540009CF002C09DF003C09EF004C09FF0A9EF84
:101550000AF0000E0001A86F000EA96F000EAA6F1E
:10156000000EAB6FF2EF0AF0A8C031F0A9C032F064
:10157000AAC033F0ABC034F0E3EC1BF031C09CF0F8
:1015800032C09DF033C09EF034C09FF0A8C049F037
:10159000A9C04AF0AAC04BF0ABC04CF09CC001F00F
:1015A0009DC002F09EC003F09FC004F0000EE5EC69
:1015B00017F001C04DF002C04EF003C04FF004C060
:1015C00050F00DEC21F049C0A8F04AC0A9F04BC082
:1015D000AAF04CC0ABF0000E0001A16F000EA06F8E
:1015E000F2EF0AF0010EAC6F0A0EAC19D8A4FBEFB3
:1015F0000AF0FDEF0AF001EF0BF02CEF0BF02CEFEF
:101600000BF0AC51040D690EF324F66E100EF420AD
:10161000F76E0900F5509C5D0900F5509D590900D1
:10162000F5509E590900F5509F59D8B01AEF0BF0AC
:101630001CEF0BF020EF0BF02CEF0BF02CEF0BF06E
:10164000AC2B0A0EAC19D8A428EF0BF02AEF0BF044
:1016500001EF0BF02CEF0BF0030E9A15596E000EF4
:101660009B155A6E59505A10D8B439EF0BF03BEF16
:101670000BF093EF0BF051C0D9FF52C0DAFF2D0EE3
:10168000DF6E514A522A93EF0BF093EF0BF09CC0A0
:1016900001F09DC002F09EC003F09FC004F0AC5169
:1016A000040D690EF324F66E100EF420F76E090097
:1016B000F5CF05F00900F5CF06F00900F5CF07F0EA
:1016C0000A00F5CF08F06EEC1DF001C0A2F002C0D8
:1016D000A3F003C0A4F004C0A5F0A2C001F0A3C011
:1016E00002F0A4C003F0A5C004F00A0E056E000EBF
:1016F000066E000E076E000E086E80EC1EF001C034
:10170000A2F002C0A3F003C0A4F004C0A5F0000141
:10171000A251300F51C0D9FF52C0DAFFDF6E514ADB
:10172000522A93EF0BF0AC07AC29D8A49AEF0BF038
:101730009CEF0BF047EF0BF0ADEF0BF0ADEF0BF0C4
:1017400051C0D9FF52C0DAFF300EDF6E514A522A23
:10175000A007D8A0A107ADEF0BF0A1BFBAEF0BF027
:10176000A15106E1A005D8B0B8EF0BF0BAEF0BF02D
:10177000A0EF0BF0BCEF0BF0A7BFC8EF0BF0A75129
:1017800009E1090EA65DD8A0C8EF0BF0CAEF0BF077
:10179000CEEF0BF0080EAC6FD2EF0BF0A6C0ACF0A2
:1017A000D2EF0BF0AC51A65F000EACBFFF0EA75BF3
:1017B000AC51D8B4DEEF0BF0E0EF0BF0EAEF0BF03A
:1017C00051C0D9FF52C0DAFF2E0EDF6E514A522AA5
:1017D000EAEF0BF0AC51F7EC0FF028C094F029C001
:1017E00095F02AC096F02BC097F0A8C013F0A9C0BE
:1017F00014F0AAC015F0ABC016F094C00FF095C05D
:1018000010F096C011F097C012F045EC12F00FC026
:1018100031F010C032F011C033F012C034F0E3ECFC
:101820001BF031C09CF032C09DF033C09EF034C03C
:101830009FF08EEF0CF09CC001F09DC002F09EC0A6
:1018400003F09FC004F00001AC51040D690EF324B5
:10185000F66E100EF420F76E0900F5CF05F00900C2
:10186000F5CF06F00900F5CF07F00A00F5CF08F034
:101870006EEC1DF001C0A2F002C0A3F003C0A4F002
:1018800004C0A5F0A2C001F0A3C002F0A4C003F000
:10189000A5C004F00A0E056E000E066E000E076E5F
:1018A000000E086E80EC1EF001C0A2F002C0A3F092
:1018B00003C0A4F004C0A5F00001A251300F51C034
:1018C000D9FF52C0DAFFDF6E514A522A9CC001F0A4
:1018D0009DC002F09EC003F09FC004F0AC51040D07
:1018E000690EF324F66E100EF420F76E0900F5CFA2
:1018F00005F00900F5CF06F00900F5CF07F00A0062
:10190000F5CF08F080EC1EF001C09CF002C09DF005
:1019100003C09EF004C09FF08EEF0CF00001AC07F6
:10192000AC29D8A496EF0CF098EF0CF01BEF0CF05C
:10193000A9EF0CF0A9EF0CF051C0D9FF52C0DAFFAB
:10194000300EDF6E514A522AA607D8A0A707A9EF8A
:101950000CF0A651A711D8A4B0EF0CF0B2EF0CF028
:101960009CEF0CF016EF0DF016EF0DF0A651A7113D
:10197000D8A4BDEF0CF0BFEF0CF0CEEF0CF09C51F3
:101980009D119E119F11D8A4C8EF0CF0CAEF0CF066
:10199000CEEF0CF0A64BA72BCEEF0CF0800EACBF19
:1019A0007F0E596EA651AC5DA751800A5958D8B028
:1019B000DCEF0CF0DEEF0CF0E2EF0CF0A6C0ACF0C8
:1019C000FBEF0CF0A751800A596EAC51A65D800E5A
:1019D000ACBF7F0E5958D8B0F0EF0CF0F2EF0CF01E
:1019E000FBEF0CF0AC51A66FA76BA6BFA707FBEFF0
:1019F0000CF0FBEF0CF0030E9A15596E000E9B15C0
:101A00005A6E59505A10D8B408EF0DF00AEF0DF085
:101A100016EF0DF051C0D9FF52C0DAFF2D0EDF6E68
:101A2000514A522A16EF0DF016EF0DF053C0F6FF93
:101A300054C0F7FF534A542A0800F5CFACF0AC511C
:101A4000D8A425EF0DF027EF0DF05DEF08F02BEF98
:101A50000DF02BEF0DF051C0D9FF52C0DAFF000E90
:101A6000DF6E33EF0DF012003850800B456E3850AA
:101A70003824476E37AE3FEF0DF041EF0DF044EFE5
:101A80000DF0478044EF0DF04750D8B44AEF0DF009
:101A90004CEF0DF063EF0DF04728D8A452EF0DF096
:101AA00054EF0DF05EEF0DF0000E356E000E366E49
:101AB000000E376E000E386E5EEF0DF0378E000EA2
:101AC000386E6DEF0DF0000E356E000E366E000EA6
:101AD000376E000E386E6DEF0DF03C50800B466E89
:101AE00045504618D8B477EF0DF079EF0DF07CEF44
:101AF0000DF0458C7CEF0DF03C503C24466E3BAE27
:101B000084EF0DF086EF0DF089EF0DF0468089EF40
:101B10000DF04650D8B48FEF0DF091EF0DF0A8EF17
:101B20000DF04628D8A497EF0DF099EF0DF0A3EF34
:101B30000DF0000E396E000E3A6E000E3B6E000E78
:101B40003C6EA3EF0DF03B8E000E3C6EB2EF0DF03D
:101B5000000E396E000E3A6E000E3B6E000E3C6EAB
:101B6000B2EF0DF04750465CD8B0B9EF0DF0BBEFC7
:101B70000DF0E6EF0DF045ACC0EF0DF0C2EF0DF04B
:101B8000C6EF0DF0800E451AC6EF0DF047C048F0C5
:101B900046C047F048C046F035C048F039C035F07F
:101BA00048C039F036C048F03AC036F048C03AF084
:101BB00037C048F03BC037F048C03BF038C048F071
:101BC0003CC038F048C03CF0E6EF0DF0000E486E27
:101BD00047503D6E3E6A3D1E3E1E3D4A3E2A4650DF
:101BE0003F6E406A3D503F263E50402240BE02EFCD
:101BF0000EF0405009E11A0E3F5CD8A002EF0EF043
:101C000004EF0EF041EF0EF035503610371038105B
:101C1000D8A40DEF0EF010EF0EF0010E11EF0EF044
:101C2000000E486E000E356E000E366E000E376EDA
:101C3000000E386E46C047F04CEF0EF041EF0EF04C
:101C400048A025EF0EF027EF0EF02DEF0EF0D89004
:101C500048300109486E31EF0EF0D890483231EF2C
:101C60000EF035A036EF0EF038EF0EF03BEF0EF031
:101C7000488E3BEF0EF03834383237323632353258
:101C8000472A4650475CD8A048EF0EF04AEF0EF0C6
:101C900020EF0EF04CEF0EF045BC51EF0EF053EF7D
:101CA0000EF09CEF0EF04750D8A459EF0EF05BEF0A
:101CB0000EF067EF0EF0000E356E000E366E000E61
:101CC000376E000E386EF6EF0FF0F6EF0FF039506A
:101CD00035263A5036223B5037223C50382238A025
:101CE00074EF0EF076EF0EF04CEF0FF048A07BEFA4
:101CF0000EF07DEF0EF084EF0EF0D8904832485091
:101D00000109486E88EF0EF0D890483288EF0EF047
:101D100035A08DEF0EF08FEF0EF092EF0EF0488EA3
:101D200092EF0EF038343832373236323532472AB5
:101D30004CEF0FF04CEF0FF03950355C3A503658FD
:101D40003B5037583850800A3D6E3C50800A3D5811
:101D5000D8B0ADEF0EF0AFEF0EF0EDEF0EF035C0F6
:101D60003DF036C03EF037C03FF038C040F03D1E79
:101D70003E1E3F1E401E3D2A000E3E223F224022B4
:101D800039503D24416E3A503E20426E3B503F2038
:101D9000436E3C504020446EFF0E4124356EFF0ED2
:101DA0004220366EFF0E4320376EFF0E4420386E01
:101DB000800E451A486C4850D8A4E1EF0EF0E3EFCE
:101DC0000EF0F5EF0EF0010E3526000E362237220A
:101DD0003822F5EF0EF0F5EF0EF03950355E3A503F
:101DE000365A3B50375A3C50385A35503610371017
:101DF0003810D8A4FEEF0EF000EF0FF041EF0FF017
:101E00004850D8A406EF0FF008EF0FF041EF0FF0A5
:101E1000000E356E000E366E000E376E000E386EF8
:101E2000F6EF0FF0F6EF0FF041EF0FF0D8903536E8
:101E300036363736383648AE20EF0FF022EF0FF047
:101E400025EF0FF0358025EF0FF048A02AEF0FF0B7
:101E50002CEF0FF030EF0FF0D880483634EF0FF052
:101E6000D890483634EF0FF04750D8B43AEF0FF01F
:101E70003CEF0FF041EF0FF0470641EF0FF041EF5D
:101E80000FF037AE46EF0FF048EF0FF016EF0FF000
:101E90004CEF0FF04CEF0FF0000E466E48AE53EFD4
:101EA0000FF055EF0FF071EF0FF048C03DF07F0ECF
:101EB0003D16D8B45EEF0FF060EF0FF064EF0FF057
:101EC000010E466E71EF0FF035A069EF0FF06BEF6A
:101ED0000FF071EF0FF0010E466E71EF0FF071EF22
:101EE0000FF04650D8B477EF0FF079EF0FF0AAEF6C
:101EF0000FF0010E3526000E36223722382238A088
:101F000084EF0FF086EF0FF0AAEF0FF035C03DF031
:101F100036C03EF037C03FF038C040F04034403269
:101F20003F323E323D323DC035F03EC036F03FC01C
:101F300037F040C038F04728D8B4A1EF0FF0A3EF36
:101F40000FF0AAEF0FF0472AAAEF0FF0AAEF0FF059
:101F5000AAEF0FF04728D8B4B0EF0FF0B2EF0FF0B0
:101F6000BCEF0FF04750D8A4B8EF0FF0BAEF0FF066
:101F7000D2EF0FF0BCEF0FF0000E356E000E366E94
:101F8000000E376E000E386E4750D8A4CAEF0FF01F
:101F9000CCEF0FF0D2EF0FF0000E456ED2EF0FF046
:101FA000D2EF0FF047A0D7EF0FF0D9EF0FF0DCEF33
:101FB0000FF0378EDFEF0FF0379EDFEF0FF0D89086
:101FC0004730386E45AEE7EF0FF0E9EF0FF0ECEF7A
:101FD0000FF0388EECEF0FF035C035F036C036F02C
:101FE00037C037F038C038F0F6EF0FF01200306E1F
:101FF00030BEFFEF0FF0FDEF0FF023EF11F0306C6C
:102000003050800A120FD8A008EF10F00AEF10F03D
:10201000A7EF10F0000E0A6E0A0E096E000E046E95
:10202000640E036E3050016E026A01BE020602ECBD
:102030001DF001C007F002C008F08CEC1CF0D89035
:1020400007360836D89007360836240E0726000EC5
:102050000822350E0724F66E100E0820F76E0900D0
:10206000F5CF13F00900F5CF14F00900F5CF15F006
:102070000A00F5CF16F0000E0A6E640E096E30509D
:10208000076E086A07BE08068CEC1CF0D89007366D
:102090000836D89007360836480E0726000E082264
:1020A000350E0724F66E100E0820F76E0900F5CFE6
:1020B0000FF00900F5CF10F00900F5CF11F00A007C
:1020C000F5CF12F045EC12F00FC02CF010C02DF03F
:1020D00011C02EF012C02FF02CC00FF02DC010F048
:1020E0002EC011F02FC012F0000E046E0A0E036E07
:1020F0003050016E026A01BE020602EC1DF0D8905B
:1021000001360236D89001360236350E0124F66EBD
:10211000100E0220F76E0900F5CF13F00900F5CF7D
:1021200014F00900F5CF15F00A00F5CF16F045ECD4
:1021300012F00FC028F010C029F011C02AF012C010
:102140002BF044EF12F044EF12F00BEF11F030508F
:10215000800A750FD8A0AFEF10F0B1EF10F00BEFC1
:1021600011F0000E0A6E0A0E096E3050076E086AF2
:1021700007BE08068CEC1CF0D89007360836D890BD
:1021800007360836240E0726000E0822350E0724CF
:10219000F66E100E0820F76E0900F5CF0FF009005B
:1021A000F5CF10F00900F5CF11F00A00F5CF12F0CD
:1021B000000E046E0A0E036E3050016E026A01BEFC
:1021C000020602EC1DF0D89001360236D890013696
:1021D0000236350E0124F66E100E0220F76E09004D
:1021E000F5CF13F00900F5CF14F00900F5CF15F085
:1021F0000A00F5CF16F045EC12F00FC028F010C021
:1022000029F011C02AF012C02BF044EF12F044EF75
:1022100012F00BEF11F03050040D350EF324F66E72
:10222000100EF420F76E0900F5CF28F00900F5CF65
:1022300029F00900F5CF2AF00A00F5CF2BF044EF82
:1022400012F044EF12F03050800A120FD8A02BEF9A
:1022500011F02DEF11F0CAEF11F0000E0A6E0A0E08
:10226000096E000E046E640E036E3050016E026A39
:1022700001BE020602EC1DF001C007F002C008F02A
:102280008CEC1CF0D89007360836D8900736083604
:10229000240E0726000E0822010E0724F66E100EEB
:1022A0000820F76E0900F5CF13F00900F5CF14F000
:1022B0000900F5CF15F00A00F5CF16F0000E0A6EF2
:1022C000640E096E3050076E086A07BE08068CEC73
:1022D0001CF0D89007360836D89007360836480ED6
:1022E0000726000E0822010E0724F66E100E0820A5
:1022F000F76E0900F5CF0FF00900F5CF10F00900D7
:10230000F5CF11F00A00F5CF12F045EC12F00FC036
:102310002CF010C02DF011C02EF012C02FF02CC0E8
:102320000FF02DC010F02EC011F02FC012F0000ED3
:10233000046E0A0E036E3050016E026A01BE020680
:1023400002EC1DF0D89001360236D89001360236E4
:10235000010E0124F66E100E0220F76E0900F5CF73
:1023600013F00900F5CF14F00900F5CF15F00A00BD
:10237000F5CF16F045EC12F00FC028F010C029F090
:1023800011C02AF012C02BF044EF12F044EF12F00B
:102390002EEF12F03050800A750FD8A0D2EF11F056
:1023A000D4EF11F02EEF12F0000E0A6E0A0E096E35
:1023B0003050076E086A07BE08068CEC1CF0D890F7
:1023C00007360836D89007360836240E0726000E42
:1023D0000822010E0724F66E100E0820F76E090081
:1023E000F5CF0FF00900F5CF10F00900F5CF11F08F
:1023F0000A00F5CF12F0000E046E0A0E036E305084
:10240000016E026A01BE020602EC1DF0D890013690
:102410000236D89001360236010E0124F66E100EF7
:102420000220F76E0900F5CF13F00900F5CF14F084
:102430000900F5CF15F00A00F5CF16F045EC12F0C3
:102440000FC028F010C029F011C02AF012C02BF0E4
:1024500044EF12F044EF12F02EEF12F03050040D62
:10246000010EF324F66E100EF420F76E0900F5CF7E
:1024700028F00900F5CF29F00900F5CF2AF00A006D
:10248000F5CF2BF044EF12F012001250800B1B6EB0
:1024900012501224216E11AE50EF12F052EF12F0D2
:1024A00055EF12F0218055EF12F02150D8B45BEFB8
:1024B00012F05DEF12F072EF12F02128D8A463EF52
:1024C00012F065EF12F06FEF12F0000E0F6E000EBB
:1024D000106E000E116E000E126E6FEF12F0118E64
:1024E0007CEF12F0000E0F6E000E106E000E116EDB
:1024F000000E126E7CEF12F01650800B1B1A165055
:102500001624206E15AE87EF12F089EF12F08CEFD3
:1025100012F020808CEF12F02050D8B492EF12F01D
:1025200094EF12F0A9EF12F02028D8A49AEF12F03D
:102530009CEF12F0A6EF12F0000E136E000E146E58
:10254000000E156E000E166EA6EF12F0158EB1EF8E
:1025500012F0000E136E000E146E000E156E000EBB
:10256000166E2050D8B4B7EF12F0B9EF12F0C3EFE7
:1025700012F02150D8A4BFEF12F0C1EF12F0CFEF4C
:1025800012F0C3EF12F0000E0F6E000E106E000E70
:10259000116E000E126E7BEF14F07BEF14F01550ED
:1025A0000F02F3CF26F0F4CF27F026501C6E1D6AE1
:1025B0001E6A1F6A2750226E236A246A256A1450F5
:1025C0001002F3CF26F0F4CF27F026501C26000E81
:1025D0001D221E221F2227502226000E23222422E3
:1025E000252213501102F3CF26F0F4CF27F0265006
:1025F0001C26000E1D221E221F2227502226000EFE
:102600002322242225221EC01FF01DC01EF01CC044
:102610001DF01C6A13501002F3CF26F0F4CF27F000
:1026200026501C2627501D22000E1E22000E1F229F
:1026300014500F02F3CF26F0F4CF27F026501C26BB
:1026400027501D22000E1E22000E1F221EC01FF04A
:102650001DC01EF01CC01DF01C6A13500F02F3CFEA
:1026600026F0F4CF27F026501C2627501D22000EFE
:102670001E22000E1F2215501002F3CF26F0F4CFB9
:1026800027F02650222627502322000E2422000E57
:10269000252214501102F3CF26F0F4CF27F0265054
:1026A000222627502322000E2422000E2522155018
:1026B0001102F3CF26F0F4CF27F02650176E2750E3
:1026C000186E196A1A6A19C01AF018C019F017C0E2
:1026D00018F0176A17502226185023221950242266
:1026E0001A5025221CC017F01DC018F01EC019F08A
:1026F0001FC01AF0190E82EF13F0D8901A32193257
:1027000018321732E82E7DEF13F01750222618509A
:102710002322195024221A5025221EC01FF01DC04A
:102720001EF01CC01DF01C6A205021C017F0186A52
:102730001726000E1822820E1724266EFF0E182070
:10274000276EBAEF13F0D89022362336243625367A
:102750001FAEADEF13F0AFEF13F0B0EF13F0228028
:10276000D8901C361D361E361F362606D8A02706E2
:10277000BAEF13F024AEBFEF13F0C1EF13F0A3EFE5
:1027800013F0C3EF13F0000E206E1FAECAEF13F06C
:10279000CCEF13F0F4EF13F0FF0E1C14176EFF0EC6
:1027A0001D14186EFF0E1E14196E7F0E1F141A6E64
:1027B0001750181019101A10D8B4E1EF13F0E3EF06
:1027C00013F0E7EF13F0010E206EF4EF13F022A0E8
:1027D000ECEF13F0EEEF13F0F4EF13F0010E206EB8
:1027E000F4EF13F0F4EF13F02050D8B4FAEF13F035
:1027F000FCEF13F024EF14F0010E2226000E23222A
:102800002422252225A007EF14F009EF14F024EF6D
:1028100014F022C017F023C018F024C019F025C00E
:102820001AF01A341A3219321832173217C022F03D
:1028300018C023F019C024F01AC025F0264A272A10
:1028400024EF14F024EF14F027BE2FEF14F02750DC
:1028500008E12628D8A02FEF14F031EF14F03BEF59
:1028600014F0000E226E000E236E800E246E7F0E7A
:10287000256E6FEF14F027BE48EF14F0275006E1E5
:102880002604D8B046EF14F048EF14F054EF14F0DB
:10289000000E226E000E236E000E246E000E256EBA
:1028A000000E1B6E6FEF14F026C021F0FF0E2216F3
:1028B000FF0E23167F0E2416000E251621A063EFAF
:1028C00014F065EF14F068EF14F0248E68EF14F044
:1028D000D8902130256E6FEF14F06FEF14F01B507D
:1028E000251222C00FF023C010F024C011F025C023
:1028F00012F07BEF14F012000450800B0D6E0450A8
:102900000424186E03AE87EF14F089EF14F08CEFF7
:1029100014F018808CEF14F01850D8B492EF14F023
:1029200094EF14F0ABEF14F01828D8A49AEF14F039
:102930009CEF14F0A6EF14F0000E016E000E026E74
:10294000000E036E000E046EA6EF14F0038E000E50
:10295000046EB5EF14F0000E016E000E026E000E54
:10296000036E000E046EB5EF14F00850800B0D1AC4
:1029700008500824196E07AEC0EF14F0C2EF14F02F
:10298000C5EF14F01980C5EF14F01950D8B4CBEF8F
:1029900014F0CDEF14F0E4EF14F01928D8A4D3EF1D
:1029A00014F0D5EF14F0DFEF14F0000E056E000EFA
:1029B000066E000E076E000E086EDFEF14F0078E35
:1029C000000E086EEEEF14F0000E056E000E066E9F
:1029D000000E076E000E086EEEEF14F005500610A4
:1029E00007100810D8A4F7EF14F0F9EF14F011EF66
:1029F00015F0000E016E000E026E000E036E000E4A
:102A0000046E800E03127F0E041201C001F002C09A
:102A100002F003C003F004C004F089EF16F089EF60
:102A200016F01850D8A417EF15F019EF15F02DEF88
:102A300015F0000E016E000E026E000E036E000E09
:102A4000046E01C001F002C002F003C003F004C034
:102A500004F089EF16F089EF16F01950096E0A6A32
:102A6000091E0A1E094A0A2A18500B6E0C6A0950E0
:102A70000B260A500C227F0E0B24126E000E0C2027
:102A8000136E01C00EF002C00FF003C010F004C0BE
:102A900011F0000E016E000E026E000E036E000EAD
:102AA000046E000E146E000E156E000E166E000EF3
:102AB000176E000E196E99EF15F01950D8B463EF28
:102AC00015F065EF15F07EEF15F0D8900E360F3645
:102AD00010361136D890013602360336043617AE5A
:102AE00074EF15F076EF15F077EF15F00180D890C0
:102AF00014361536163617367EEF15F005500E5C77
:102B000006500F580750105808501158D8A08BEF96
:102B100015F08DEF15F098EF15F0178C05500E5E3F
:102B200006500F5A0750105A0850115A98EF15F0D6
:102B3000192A190E19649FEF15F0A1EF15F05DEF3A
:102B400015F0A3EF15F00E500F1010101110D8B49F
:102B5000ACEF15F0AEEF15F0CAEF15F01480CAEF28
:102B600015F0CAEF15F0D890013602360336043658
:102B700017AEBDEF15F0BFEF15F0C0EF15F00180F7
:102B8000D89014361536163617361206D8A0130606
:102B9000CAEF15F003AECFEF15F0D1EF15F0B3EF9C
:102BA00015F0D3EF15F0000E196E17AEDAEF15F031
:102BB000DCEF15F004EF16F0FF0E1414096EFF0E93
:102BC00015140A6EFF0E16140B6E7F0E17140C6E82
:102BD00009500A100B100C10D8B4F1EF15F0F3EFF8
:102BE00015F0F7EF15F0010E196E04EF16F001A0C5
:102BF000FCEF15F0FEEF15F004EF16F0010E196E64
:102C000004EF16F004EF16F01950D8B40AEF16F0DE
:102C10000CEF16F034EF16F0010E0126000E022222
:102C20000322042204A017EF16F019EF16F034EF78
:102C300016F001C009F002C00AF003C00BF004C096
:102C40000CF00C340C320B320A32093209C001F09C
:102C50000AC002F00BC003F00CC004F0124A132AA1
:102C600034EF16F034EF16F013BE3FEF16F01350AA
:102C700008E11228D8A03FEF16F041EF16F04EEF12
:102C800016F0000E136E1268000E016E000E026E3A
:102C9000000E036E000E046E4EEF16F013BE5BEFD7
:102CA00016F0135006E11204D8B059EF16F05BEF9E
:102CB00016F06BEF16F0000E136E000E126E000E83
:102CC000016E000E026E000E036E000E046E000E0A
:102CD0000D6E6BEF16F012C018F018A072EF16F020
:102CE00074EF16F077EF16F0038E7AEF16F0039E6E
:102CF0007AEF16F0D8901830046E0D50041201C00F
:102D000001F002C002F003C003F004C004F089EF38
:102D100016F01200346E6D0E346491EF16F093EFDE
:102D200016F044EF17F0000E0A6E0A0E096E000E40
:102D3000046E640E036E34C001F0026A02EC1DF0F2
:102D400001C007F002C008F08CEC1CF0D8900736E8
:102D50000836D89007360836240E0726000E0822BB
:102D6000350E0724F66E100E0820F76E0900F5CF19
:102D700013F00900F5CF14F00900F5CF15F00A00A3
:102D8000F5CF16F0000E0A6E640E096E34C007F01F
:102D9000086A8CEC1CF0D89007360836D8900736B5
:102DA0000836480E0726000E0822350E0724F66E58
:102DB000100E0820F76E0900F5CF0FF00900F5CFCF
:102DC00010F00900F5CF11F00A00F5CF12F045EC34
:102DD00012F00FC030F010C031F011C032F012C04C
:102DE00033F0000E046E0A0E036E34C001F0026A66
:102DF00002EC1DF0D89001360236D890013602362A
:102E0000350E0124F66E100E0220F76E0900F5CF84
:102E100013F00900F5CF14F00900F5CF15F00A0002
:102E2000F5CF16F030C00FF031C010F032C011F005
:102E300033C012F045EC12F00FC02CF010C02DF092
:102E400011C02EF012C02FF02CC00FF02DC010F0CA
:102E50002EC011F02FC012F0000E136E000E146E73
:102E6000000E156E3F0E166E45EC12F00FC028F0E6
:102E700010C029F011C02AF012C02BF0E4EF17F0B7
:102E8000E4EF17F0BCEF17F00A0E34644AEF17F0C6
:102E90004CEF17F0BCEF17F0000E046E0A0E036E35
:102EA00034C001F0026A02EC1DF0D89001360236FF
:102EB000D89001360236350E0124F66E100E02202F
:102EC000F76E0900F5CF13F00900F5CF14F00900F3
:102ED000F5CF15F00A00F5CF16F0000E0A6E0A0EB7
:102EE000096E34C007F0086A8CEC1CF0D8900736E5
:102EF0000836D89007360836240E0726000E08221A
:102F0000350E0724F66E100E0820F76E0900F5CF77
:102F10000FF00900F5CF10F00900F5CF11F00A000D
:102F2000F5CF12F045EC12F00FC030F010C031F0C8
:102F300011C032F012C033F030C00FF031C010F0C9
:102F400032C011F033C012F0000E136E000E146E7A
:102F5000000E156E3F0E166E45EC12F00FC028F0F5
:102F600010C029F011C02AF012C02BF0E4EF17F0C6
:102F7000E4EF17F0BCEF17F03450040D350EF324D6
:102F8000F66E100EF420F76E0900F5CF0FF0090071
:102F9000F5CF10F00900F5CF11F00A00F5CF12F0CF
:102FA000000E136E000E146E000E156E3F0E166EA0
:102FB00045EC12F00FC028F010C029F011C02AF023
:102FC00012C02BF0E4EF17F01200096E0950D8B4CC
:102FD000ECEF17F0EEEF17F010EF18F004BEF5EF7E
:102FE00017F0F3EF17F010EF18F001C005F002C072
:102FF00006F003C007F004C008F0051E061E071EF9
:10300000081E052A000E06220722082205C00BF022
:1030100006C00CF007C00DF008C00EF01AEF18F053
:1030200001C00BF002C00CF003C00DF004C00EF0A4
:103030001AEF18F00150021003100410D8A423EF67
:1030400018F025EF18F031EF18F0000E016E000EA9
:10305000026E000E036E000E046ED7EF18F0D7EF6D
:1030600018F0960E0A6E3DEF18F00A2AD8900E322C
:103070000D320C320B323DEF18F0000E0B14056EC2
:10308000000E0C14066E000E0D14076EFE0E0E14CC
:10309000086E0550061007100810D8A452EF18F05B
:1030A00054EF18F035EF18F064EF18F064EF18F0F3
:1030B0000A2A010E0B26000E0C220D220E22D89099
:1030C0000E320D320C320B32000E0B14056E000E58
:1030D0000C14066E000E0D14076EFF0E0E14086E13
:1030E0000550061007100810D8A479EF18F07BEFF0
:1030F00018F058EF18F087EF18F087EF18F00A066D
:10310000D8900B360C360D360E3687EF18F00DBE04
:103110008CEF18F08EEF18F098EF18F0020E0A609E
:1031200094EF18F096EF18F07FEF18F098EF18F082
:103130000AB09DEF18F09FEF18F0A7EF18F0FF0E00
:103140000B16FF0E0C167F0E0D16FF0E0E16D890E6
:103150000A320AC005F0066A076A086A05C008F064
:10316000076A066A056A05500B1206500C120750D2
:103170000D1208500E120950D8B4C1EF18F0C3EF69
:1031800018F0CDEF18F004BECAEF18F0C8EF18F031
:10319000CDEF18F00E8ECDEF18F00BC001F00CC083
:1031A00002F00DC003F00EC004F0D7EF18F01200CB
:1031B00003C009F00A6A0B6A0234093601E30A8087
:1031C0000950116E1150D8A4E8EF18F0EAEF18F08A
:1031D000F6EF18F0000E016E000E026E000E036E88
:1031E000000E046EAEEF19F0AEEF19F007C009F053
:1031F0000A6A0B6A0634093601E30A800950106E28
:103200001050D8A406EF19F008EF19F014EF19F0D8
:10321000000E016E000E026E000E036E000E046EB4
:10322000AEEF19F0AEEF19F0028EFF0E0116FF0E91
:103230000216000E0316068EFF0E0516FF0E06166A
:10324000000E0716000E0C6E000E0D6E000E0E6EB8
:10325000000E0F6E7F0E115E1050980F115E180E4B
:10326000106ED8900C360D360E360F360550015CB8
:103270000650025807500358D8A041EF19F043EF09
:1032800019F04AEF19F00550015E0650025A075036
:10329000035A0C80D890013602360336102E31EFD7
:1032A00019F053EF19F011BE5AEF19F058EF19F059
:1032B0007EEF19F01150800A970FD8B062EF19F025
:1032C00064EF19F072EF19F0000E016E000E026E3D
:1032D000000E036E000E046EAEEF19F0AEEF19F0A3
:1032E00072EF19F0D8900F320E320D320C32113EBF
:1032F00072EF19F0A6EF19F0A6EF19F0170E11648E
:1033000084EF19F086EF19F09CEF19F0000E016EB2
:10331000000E026E000E036E000E046EAEEF19F08A
:10332000AEEF19F09CEF19F0D8900C360D360E3632
:103330000F3611069CEF19F01150D8A4A2EF19F026
:10334000A4EF19F094EF19F0A6EF19F00CC001F0FA
:103350000DC002F00EC003F00FC004F012000334E1
:1033600004340E6E0E50D8A4B8EF19F0BAEF19F06D
:10337000C6EF19F0000E016E000E026E000E036E15
:10338000000E046E84EF1AF084EF1AF0073408344C
:103390000D6E0D50D8A4CFEF19F0D1EF19F0DDEF7D
:1033A00019F0000E016E000E026E000E036E000E8C
:1033B000046E84EF1AF084EF1AF0038EFF0E0116EC
:1033C000FF0E0216FF0E0316000E0416078EFF0EE8
:1033D0000516FF0E0616FF0E0716000E0816000E45
:1033E000096E000E0A6E000E0B6E000E0C6E7F0E44
:1033F0000E5E0D50A00F0E5E200E0D6E00EF1AF047
:10340000D89009360A360B360C360550015C06504A
:1034100002580750035808500458D8A012EF1AF069
:1034200014EF1AF01FEF1AF00550015E0650025A11
:103430000750035A0850045A09801FEF1AF0D89019
:1034400001360236033604360D2E00EF1AF029EF4E
:103450001AF00EBE30EF1AF02EEF1AF054EF1AF0F9
:103460000E50800A9F0FD8B038EF1AF03AEF1AF0DA
:1034700048EF1AF0000E016E000E026E000E036E91
:10348000000E046E84EF1AF084EF1AF048EF1AF081
:10349000D8900C320B320A3209320E3E48EF1AF045
:1034A0007CEF1AF07CEF1AF01F0E0E645AEF1AF040
:1034B0005CEF1AF072EF1AF0000E016E000E026E51
:1034C000000E036E000E046E84EF1AF084EF1AF003
:1034D00072EF1AF0D89009360A360B360C360E0603
:1034E00072EF1AF00E50D8A478EF1AF07AEF1AF0B3
:1034F0006AEF1AF07CEF1AF009C001F00AC002F07E
:103500000BC003F00CC004F01200000E0114096E91
:10351000000E02140A6E800E03140B6E7F0E04144C
:103520000C6E09500A100B100C10D8A49AEF1AF068
:103530009CEF1AF0A6EF1AF0000E016E000E026E5C
:10354000000E036E000E046EA6EF1AF0000E0514B6
:10355000096E000E06140A6E800E07140B6E7F0EA5
:1035600008140C6E09500A100B100C10D8A4BBEFF5
:103570001AF0BDEF1AF0C7EF1AF0000E056E000E3C
:10358000066E000E076E000E086EC7EF1AF004AE4E
:10359000CCEF1AF0CEEF1AF0EDEF1AF001C009F0FF
:1035A00002C00AF003C00BF004C00CF0091E0A1E92
:1035B0000B1E0C1E092A000E0A220B220C22000EE2
:1035C0000924016E000E0A20026E000E0B20036E0D
:1035D000800E0C20046EEDEF1AF008AEF2EF1AF038
:1035E000F4EF1AF011EF1BF005C009F006C00AF065
:1035F00007C00BF008C00CF0091E0A1E0B1E0C1EA3
:10360000092A000E0A220B220C22000E0924056E44
:10361000000E0A20066E000E0B20076E800E0C2096
:10362000086E000E011A000E021A000E031A800E18
:10363000041A000E051A000E061A000E071A800E54
:10364000081A0550015C06500258075003580850EC
:103650000458D8B02EEF1BF030EF1BF033EF1BF007
:10366000D89038EF1BF0D88038EF1BF038EF1BF004
:103670001200BAEC20F0CEEC21F0E8EC21F0D1EC15
:103680001FF0DAEC21F025EC1EF0ADC00DF0AEC05D
:103690000EF0AFC00FF0B0C010F09BEC21F051EF76
:1036A0001BF00001B151B211D8A459EF1BF05BEF30
:1036B0001BF080EF1BF0CAEC1DF0E4EC20F0000ED4
:1036C0000001B26F010EB16F090E5C6E1E0E5B6ED3
:1036D000E40EE82EFED75B2EFCD75C2EFAD700D086
:1036E000000EC46E090E5C6E1E0E5B6EE40EE82EBC
:1036F000FED75B2EFCD75C2EFAD700D080EF1BF0F4
:103700000001B105B211D8A488EF1BF08AEF1BF0BD
:10371000AFEF1BF0CEEC1EF007EC20F0000E000126
:10372000B26F020EB16F090E5C6E1E0E5B6EE40E80
:10373000E82EFED75B2EFCD75C2EFAD700D0000E09
:10374000C46E090E5C6E1E0E5B6EE40EE82EFED794
:103750005B2EFCD75C2EFAD700D0AFEF1BF0020E29
:103760000001B119B211D8A4B8EF1BF0BAEF1BF0E9
:1037700051EF1BF025EC1EF0000E0001B26F000EA1
:10378000B16F090E5C6E1E0E5B6EE40EE82EFED766
:103790005B2EFCD75C2EFAD700D0000EC46E090E4B
:1037A0005C6E1E0E5B6EE40EE82EFED75B2EFCD721
:1037B0005C2EFAD700D051EF1BF051EF1BF051EF08
:1037C0001BF000EF00F0333434343A6E3A50D8A492
:1037D000ECEF1BF0EEEF1BF0FAEF1BF0000E316E7A
:1037E000000E326E000E336E000E346E8BEF1CF046
:1037F0008BEF1CF031C035F032C036F033C037F0FB
:1038000034C038F0200E0AEF1CF0D890383237322E
:1038100036323532E82E05EF1CF03550396E338ED6
:10382000FF0E3116FF0E3216FF0E3316000E341641
:10383000960E3A5E3ABE21EF1CF01FEF1CF045EFEA
:103840001CF03A50800A970FD8B029EF1CF02BEFEC
:103850001CF039EF1CF0000E316E000E326E000EBF
:10386000336E000E346E8BEF1CF08BEF1CF039EFD3
:103870001CF0D89034323332323231323A3E39EFA2
:103880001CF06FEF1CF06FEF1CF01F0E3A644BEF53
:103890001CF04DEF1CF063EF1CF0000E316E000EBB
:1038A000326E000E336E000E346E8BEF1CF08BEF19
:1038B0001CF063EF1CF0D890313632363336343694
:1038C0003A0663EF1CF03A50D8A469EF1CF06BEF96
:1038D0001CF05BEF1CF06FEF1CF06FEF1CF0395029
:1038E000D8B475EF1CF077EF1CF081EF1CF0341E9C
:1038F000331E321E316C000E32223322342281EF0D
:103900001CF031C031F032C032F033C033F034C07B
:1039100034F08BEF1CF01200000E0C6E0ABE95EF17
:103920001CF093EF1CF09DEF1CF0096C0A1ED8B040
:103930000A2A010E0C6E9DEF1CF008BEA4EF1CF0CD
:10394000A2EF1CF0ACEF1CF0076C081ED8B0082AE0
:10395000010E0C1AACEF1CF0000E0E6E000E0D6E78
:1039600009500A10D8B4B7EF1CF0B9EF1CF0EDEF16
:103970001CF0010E0B6EC3EF1CF0D89009360A360E
:103980000B2AC3EF1CF00AAEC8EF1CF0CAEF1CF004
:10399000BDEF1CF0CEEF1CF0CEEF1CF0D8900D3632
:1039A0000E360950075C0A500858D8A0DAEF1CF010
:1039B000DCEF1CF0E3EF1CF00950075E0A50085AD8
:1039C0000D80E3EF1CF0D8900A3209320B2ECEEFB7
:1039D0001CF0EDEF1CF0EDEF1CF00C50D8B4F3EF41
:1039E0001CF0F5EF1CF0FBEF1CF00D6C0E1ED8B0B8
:1039F0000E2AFBEF1CF00DC007F00EC008F001EF1F
:103A00001DF01200000E066E02BE0BEF1DF009EF56
:103A10001DF013EF1DF0016C021ED8B0022A010E3A
:103A2000066E13EF1DF004BE1AEF1DF018EF1DF027
:103A300020EF1DF0036C041ED8B0042A20EF1DF007
:103A400003500410D8B427EF1DF029EF1DF059EFF3
:103A50001DF0010E056E33EF1DF0D89003360436CD
:103A6000052A33EF1DF004AE38EF1DF03AEF1DF0DC
:103A70002DEF1DF03EEF1DF03EEF1DF00350015CF9
:103A800004500258D8A047EF1DF049EF1DF04FEF4A
:103A90001DF00350015E0450025A4FEF1DF0D89004
:103AA00004320332052E3EEF1DF059EF1DF059EFA1
:103AB0001DF00650D8B45FEF1DF061EF1DF067EF09
:103AC0001DF0016C021ED8B0022A67EF1DF001C084
:103AD00001F002C002F06DEF1DF01200000E096E41
:103AE000000E0A6E000E0B6E000E0C6E05500610D6
:103AF00007100810D8B47FEF1DF081EF1DF0C1EF63
:103B00001DF0010E0D6E8DEF1DF0D89005360636B6
:103B1000073608360D2A8DEF1DF008AE92EF1DF026
:103B200094EF1DF085EF1DF098EF1DF098EF1DF05C
:103B3000D89009360A360B360C360550015C065013
:103B400002580750035808500458D8A0AAEF1DF097
:103B5000ACEF1DF0B7EF1DF00550015E0650025AA4
:103B60000750035A0850045A0980B7EF1DF0D89047
:103B700008320732063205320D2E98EF1DF0C1EFE4
:103B80001DF009C001F00AC002F00BC003F00CC028
:103B900004F01200070EC26ED00E286ECA0EE82E78
:103BA000FED7282EFCD7C282090E296E1E0E286E63
:103BB000E40EE82EFED7282EFCD7292EFAD700D007
:103BC000C450016E026A036A046A000EE5EC17F045
:103BD00001C074F002C075F003C076F004C077F045
:103BE00074C00FF075C010F076C011F077C012F0FD
:103BF000000E136E000E146EA00E156E3C0E166EA7
:103C000045EC12F00FC070F010C071F011C072F0EE
:103C100012C073F070C001F071C002F072C003F006
:103C200073C004F0000E056E000E066E800E076E67
:103C30003E0E086E7CEC14F001C06CF002C06DF01A
:103C400003C06EF004C06FF012000F0EC26ED00EF3
:103C5000286ECA0EE82EFED7282EFCD7C282090E87
:103C6000296E1E0E286EE40EE82EFED7282EFCD7F5
:103C7000292EFAD700D0C450016E026A036A046A82
:103C8000000EE5EC17F001C074F002C075F003C03F
:103C900076F004C077F074C00FF075C010F076C0F5
:103CA00011F077C012F0000E136E000E146EA00E0D
:103CB000156E3C0E166E45EC12F00FC070F010C081
:103CC00071F011C072F012C073F070C001F071C0D9
:103CD00002F072C003F073C004F0CD0E056ECC0E7E
:103CE000066E4C0E076E3E0E086E7CEC14F001C0A2
:103CF00068F002C069F003C06AF004C06BF0120003
:103D00000550061007100810D8B489EF1EF08BEF8D
:103D10001EF0C5EF1EF0010E096E97EF1EF0D89051
:103D20000536063607360836092A97EF1EF008AE24
:103D30009CEF1EF09EEF1EF08FEF1EF0A2EF1EF024
:103D4000A2EF1EF00550015C0650025807500358C0
:103D500008500458D8A0AFEF1EF0B1EF1EF0BBEF33
:103D60001EF00550015E0650025A0750035A0850D3
:103D7000045ABBEF1EF0D8900832073206320532E3
:103D8000092EA2EF1EF0C5EF1EF001C001F002C027
:103D900002F003C003F004C004F012000B0EC26E68
:103DA000D00E286ECA0EE82EFED7282EFCD7C2826F
:103DB000090E296E1E0E286EE40EE82EFED7282E60
:103DC000FCD7292EFAD700D0C450016E026A036ACC
:103DD000046A000EE5EC17F001C080F002C081F02B
:103DE00003C082F004C083F080C00FF081C010F0E7
:103DF00082C011F083C012F0950E136E940E146EF3
:103E0000940E156E3C0E166E45EC12F00FC07CF051
:103E100010C07DF011C07EF012C07FF07CC078F041
:103E20007DC079F07EC07AF07FC07BF01200000E7A
:103E30000D6E000E0C6E3AEF1FF00C5008240A6E47
:103E40000D5009200B6E0AC0F6FF0BC0F7FF000EE5
:103E5000F86E0F0EF76403D00800F55005D0F6CFCA
:103E6000E9FFF7CFEAFFEF5064EC20F00C4A0D2A8F
:103E70003AEF1FF00C5008240A6E0D5009200B6E0B
:103E80000AC0F6FF0BC0F7FF000EF86E0F0EF764C6
:103E900003D00800F55005D0F6CFE9FFF7CFEAFFD1
:103EA000EF500009D8A457EF1FF059EF1FF01DEF96
:103EB0001FF05BEF1FF01200000EB0EC21F0020EBD
:103EC0000C6EA00E0B6E920EE82EFED70B2EFCD7BA
:103ED0000C2EFAD700D0030E90EC20F0680E0B6E7B
:103EE000E40EE82EFED70B2EFCD700D0030E90EC8C
:103EF00020F0E50E0B6E910EE82EFED70B2EFCD7B0
:103F000000F0030E90EC20F0020E90EC20F0020E78
:103F100090EC20F0080E90EC20F0000E90EC20F0D9
:103F20000C0E90EC20F0000E90EC20F0060E90ECC1
:103F300020F012000C6E0C04D8A4A1EF1FF0A3EF28
:103F40001FF0B4EF1FF00B507F0F0F6E0F380F0BE9
:103F50000D6E0F500F0B0E6E0D5090EC20F00E50AA
:103F600090EC20F0D0EF1FF0020E0C18D8A4BBEF9D
:103F70001FF0BDEF1FF0D0EF1FF00B50BF0F0F6E03
:103F80000F380F0B0D6E0F500F0B0E6E0D5090EC87
:103F900020F00E5090EC20F0D0EF1FF0D0EF1FF08B
:103FA000120094869488A00E0E6E860E0F6E010E7F
:103FB000106E000E116E36EC20F0090E176E1E0EFC
:103FC000166EE40EE82EFED7162EFCD7172EFAD763
:103FD00000D05CEC1FF0DAEC21F0E1EC21F0010EF6
:103FE0000B6E010E9AEC1FF0960E086E100E096E05
:103FF00017EC1FF0090E176E1E0E166EE40EE82E5B
:10400000FED7162EFCD7172EFAD700D01200010EBD
:104010000B6E020E9AEC1FF09F0E086E100E096ECA
:1040200017EC1FF0840E516E000E526E910E536EFF
:10403000100E546E78C055F079C056F07AC057F023
:104040007BC058F056EC08F0030E0B6E020E9AEC93
:104050001FF0840E086E000E096E17EC1FF0A50EFF
:10406000086E100E096E17EC1FF01200280EC66EB7
:10407000000EC56E000E016E900E026ED00E036E25
:10408000030E046E0EC012F00FC013F010C014F037
:1040900011C015F0020ED8901236133614361536AC
:1040A000E82E4BEF20F012C005F013C006F014C04C
:1040B00007F015C008F06EEC1DF00104C86E000E8C
:1040C000C76E948694881200056E05500F0B076E1C
:1040D0000738F00B076E0550F00B066E010EB0ECC2
:1040E00021F00650B0EC21F006500509B0EC21F0AB
:1040F000D50EE82EFED700F006500109B0EC21F0F5
:104100000750B0EC21F007500509B0EC21F0D50EB6
:10411000E82EFED700F007500109B0EC21F01200A4
:104120000A6E0A38F00B0A6E010E076E000E076E5B
:104130009AEF20F00750B0EC21F00A50B0EC21F0DB
:10414000040E0AC005F0066A0510086E0650096ED6
:104150000850B0EC21F0540E056E1C0EE82EFED770
:10416000052EFCD700D00AC008F0096A0850B0EC50
:1041700021F012009268000E936E000E946E000EF5
:10418000956E9668000E806E000E816E000E826E37
:10419000000E836E000E846E000E896E000E8A6E15
:1041A000000E8B6E000E8C6E000E8D6E0F01386946
:1041B000000E396F000E3A6F000E3B6F000E3C6F21
:1041C000740ED36E9B8C1200010E0B6E010E9AECD6
:1041D0001FF0A20E086E100E096E17EC1FF08C0E69
:1041E000516E000E526E910E536E100E546E6CC0D6
:1041F00055F06DC056F06EC057F06FC058F056ECD9
:1042000008F0030E0B6E010E9AEC1FF08C0E086E78
:10421000000E096E17EC1FF01200000E4D1A000E72
:104220004E1A000E4F1A800E501A49C035F04AC07F
:1042300036F04BC037F04CC038F04DC039F04EC0AE
:104240003AF04FC03BF050C03CF034EC0DF035C0BC
:1042500049F036C04AF037C04BF038C04CF031EF6F
:1042600021F012000150021003100410D8B43BEFEB
:1042700021F03DEF21F047EF21F0000E011A000E72
:10428000021A000E031A800E041A47EF21F001C033
:1042900001F002C002F003C003F004C004F051EFCB
:1042A00021F01200036E000E026E3A0E03605BEF07
:1042B00021F05DEF21F069EF21F02F0E036463EF31
:1042C00021F065EF21F069EF21F0010E026E69EF38
:1042D00021F002C001F001306EEF21F0120071EF09
:1042E00021F0C7B476EF21F078EF21F071EF21F0E3
:1042F000C5CF01F01F0E0116D8A481EF21F083EF86
:1043000021F071EF21F085EF21F01200015003023E
:10431000F3CF05F0F4CF06F001500402F350062667
:1043200002500302F350062605C001F006C002F059
:104330009AEF21F01200000E016E000E026E400E88
:10434000036E410E046E0DC005F00EC006F00FC0E6
:1043500007F010C008F085EC1AF0AFEF21F0120062
:10436000046EF7EC21F0000E036E700E026EEEECA0
:1043700021F004C002F0036AEEEC21F0F3EC21F02E
:10438000120000EE60F0340EEE6AE806FDE15E6AAF
:104390005D6A000EF86E000139EF1BF0000E0F0190
:1043A000496F0C0E666E0C0EBD6E7D0EBA6EA00EC1
:1043B000BB6E1200000E90EC20F0010E90EC20F08D
:1043C0001200000E90EC20F00C0E90EC20F0120089
:1043D000800EC16E3E0EC06EC09E12006FEC21F0CA
:1043E00002C0C9FF12006FEC21F0C58412006FEC0F
:0643F00021F0C58012005F
:020000040020DA
:08000000FFFFFFFFFFFFFFFF00
:020000040030CA
:0E000000FF18193CFFBF80FF0FC00FE00F403C
:00000001FF
